:020000040800F2
:10100000980E0020D5100008295D000857570008E9
:1010100000000000000000000000000000000000D0
:101020000000000000000000000000005D6E0008ED
:101030000000000000000000C55E0008E17000082C
:10104000E7100008E710000819650008E71000081D
:10105000E71000081B380008E7100008E710000838
:10106000E7100008E710000899370008B1370008BA
:10107000E7100008E710000800000000E710000873
:1010800000000000B1710008000000000000000036
:10109000E710000800000000E7100008E710000853
:1010A000E7100008E7100008E7100008E710000844
:1010B000E7100008E710000800000000E710000833
:1010C0000348854602F002FB004800472D7B0008DC
:1010D000980E00200448804704480047FEE7FEE7DA
:1010E000FEE7FEE7FEE7FEE759710008C1100008C1
:1010F000F8B58048016C80480A7802704A784270DE
:101100008A788270CA78C2700A7902714A7942710B
:101110008A798271CA79C2710A7A02724A7A4272F3
:101120008A7A8272CA7AC2720A7B02734A7B4273DB
:101130008A7B8273C97BC1731CE0F8B500226D4BBA
:10114000197C1020441A6C4809D005000F351E6C1C
:1011500037782F70521C761C6D1EA242F8D10029E0
:1011600008D004001B6C9A1813782370521C641C5E
:10117000491EF9D1042607001037604C6D46042241
:10118000391F684602F066FAB00717D12A786878E6
:101190002870A8786870E978A970EA702A78A25C4B
:1011A0002A70205C6870605CA870E878205CE87049
:1011B00028785349B208895C4140297038001038BA
:1011C000007829784140397038000F380078697804
:1011D0004140797038000E380078A9784140B970E4
:1011E00038000D380078E9784140F970761C3F1DD1
:1011F0002C2EC4D3F1BD10B43E49C96B3E4A000148
:10120000101804220B7804785C400C704B784478FA
:101210005C404C708B7884785C408C70CB78C47860
:101220005C40CC70001D091D521EEBD110BC7047F4
:101230003048C16B0422314801E22E48C06B41782E
:1012400042794270427A4271427B427241738178A4
:10125000827A827081728179827B82718173C17896
:10126000C27BC270C27AC273C279C272C171704746
:10127000FCB42048C06B042106786A461671477892
:101280003D007540C27883781C006C405440009645
:101290006E00B446EE091B256E4365466E406640FF
:1012A000009D6E4006701D007D406E00B446EE0944
:1012B0001B256E4365466E4066407E4046701600B4
:1012C0005E407500F6091B277E436E4066405E4017
:1012D00086706B461B7953405D00DB091B26734308
:1012E0006B405C405440C470001D491EC4D1F3BC27
:1012F0007047000068010020BC070020508C0008E7
:10130000508E0008F0B489B0E248C16B0420089008
:1013100008786A4690704878507188781071C8785B
:10132000D07068468078C0091B2250436A46107608
:10133000684680784000D0766846C07E127E424083
:101340006846427040786A46107768464078C2091D
:101350001B235A436B46DA7540006A46D27D4240F1
:1013600068464273407B6A46907668464079C00979
:101370001B2250436A46907568464079400050757C
:101380006846407D927D4240D0091B2358436B46FE
:10139000187550001B7D434068460373007B6B4605
:1013A000587668460079C0091B2358436B46D874A9
:1013B000684600794000987468469B7C6C46E47CE3
:1013C0005C4004700478E3091B256B436D466B7425
:1013D00060006B465B7C43406846C372C57AC07848
:1013E000C0091B2358436B4618746846C0784000F8
:1013F000D8736846C07B1B7C4340D8091B267043CA
:101400006E46B0735800B67B464068468672867A50
:10141000F0091B2778436F467872E8091B27784349
:101420006F4638726846407EC0091B2778436F4676
:10143000F8716846807EC0091B2778436F46B871F3
:10144000684680783F7F474078006F463F7E474040
:101450006846C07D78406F46BF7E7F004740684643
:10146000807978406F467F7947406846407D784074
:101470006F46BF7D47406846407E400078406F46DB
:10148000FF794740684600797840640044406846E8
:10149000407C60406C0044406846007A60406C4686
:1014A000E4784440700060406C46647A44400C70BC
:1014B0006846477B047BC57A867A80787F00474000
:1014C00068468079784084466846477D6046474054
:1014D0006846807D7840570047406846007D7840E8
:1014E000640044406846C07960406C4624794440BA
:1014F0006846807C60406C46E47C44406800604004
:101500006C46247A44406846C07860405C004440A1
:101510006846807B6040740044406846407A604082
:10152000487068464678407B6C46A0756846007BEC
:1015300024786D466C756C46E47AAD7A6F46BF7858
:1015400076007E406F46FF7D77406E46B67D760022
:101550007E406F46BF7977406E4676797E40400088
:1015600070406E46F67946406846807C70406E4614
:10157000F67C46406846407D400070406E46767C72
:101580004640600070406C46247A44406846C0780B
:1015900060406C46E47B44406846007C60406C00E0
:1015A00044406846407A604088706846407B6C469C
:1015B00062706A46127BE47A6D46AD7A6E46B77801
:1015C000F67E7E406F463F7E7740400078406E4614
:1015D000B67946406846407970406E467678760027
:1015E00046406846007D7040520042406846C079DF
:1015F00050406A4612794240600050406A46127A72
:1016000042406846C07B50406A46127C42405800C7
:1016100050406A46927B4240680050406A46527A87
:101620004240CA70091D0898401E089000D06FE61D
:1016300009B0F0BC70471748C16B0422BA480B7858
:10164000C35C0B700B79C35C0B710B7AC35C0B72C0
:101650000B7BC35C0B73491C521EF0D170470D48C5
:10166000C06B417B427A4273427942724278427146
:1016700041708178827A827081728179827B8271F5
:101680008173C178C279C270C27AC271C27BC272E0
:10169000C17370476801002010B50020FFF7ABFD53
:1016A0000124FFF7C5FDFFF7C8FDFFF7E1FDE0B23C
:1016B000FFF7A1FD641CE0B20A28F2DBFFF7B8FDDA
:1016C000FFF7BBFD0A20FFF796FD10BD10B50A20FD
:1016D000FFF791FD0924FFF7C2FFFFF7ACFFE0B26F
:1016E000FFF789FDFFF70EFE641E2006F3D1FFF71A
:1016F000B6FFFFF7A0FF0020FFF77DFD10BD002221
:101700008B5C8354521C8B5C8354521C8B5C8354C3
:10171000521C8B5C8354521C102AF1DB704730B48E
:101720000021824A526C43181C78555C65401D703C
:10173000491C43181C78555C65401D70491C4318B2
:101740001C78555C65401D70491C43181C78555C1D
:1017500065401D70491C1029E5DB30BC7047F8B5A9
:1017600006000D0017001C003807000F0090300025
:10177000FFF7C5FF6D48C6630464FFF7DEFC6B48E6
:10178000407B6A49897B014301D0CA4801E0674830
:10179000806C66494864002F1FD02C000025200073
:1017A000FFF7BDFF0020215C3154401C215C315407
:1017B000401C215C3154401C215C3154401C1028D9
:1017C000F1DB5A48C663FFF767FF58484664103498
:1017D00010361035BD42E2D32500009800280ED007
:1017E00029003000FFF78BFF10200099411A009864
:1017F000301801F048FF4D48C663FFF74DFF4B4AD4
:10180000507B002802D01000603004E0907B00285C
:1018100003D010005030102101E0D06CD17B117446
:101820001064F1BDF1B586B00E0014002007000F62
:1018300004906D466846FFF762FF3C4F6846F863C8
:10184000FFF756FCB86C7864002C25D03000059466
:10185000290000240022835C8B54521C835C8B542F
:10186000521C835C8B54521C835C8B54521C102A78
:10187000F1DB05000E00FE63FFF728FF3000FFF7E5
:101880004EFF7D6428001030310010311034059A6D
:101890009442DFD306000D00049800280DD03100DB
:1018A0002800FFF72CFF10200499411A04982818EB
:1018B00001F0E9FEFD63FFF709FF0021387C1022EB
:1018C000131A6C46069A05E04D426519ED7B555496
:1018D000491CC9B29942F7D1002807D051186A466D
:1018E00013780B70521C491C401EF9D107B0F0BD93
:1018F00038B584B00D000D4C210070316164206456
:10190000FFF7F6FB10222900684601F0A3FEE5630D
:10191000FFF7DCFE2800FFF702FF10226946606C2B
:1019200001F098FE05B030BD508D00086801002020
:101930000268406810180A6880184A6880188A6827
:101940008018CA6880180A6980184A6980188A69EC
:101950008018C9694118C8437047F8B594B00700AA
:101960000026002502F04AF9002800D19EE004AAD2
:10197000402104F0FDF9010004AB0C2200201C788A
:1019800000195C7800199C780019DC7800191B1D7F
:10199000521EF4D1002905D1002803D004ACE16B1C
:1019A000884202D0C248866080E00599080E01286E
:1019B00002D0022839D046E068460A0C0270090AB3
:1019C000C1732021615C41702221615C81702421FE
:1019D000615CC1702621615C01712821615C4171EB
:1019E0002A21615C81712C21615CC1712D21615CB6
:1019F00001722121615C41722B21615C8172232182
:101A0000615CC1722921615C01732521615C4173B4
:101A10002721615C817320002030002100220023F7
:101A20004EC02100103168460BE06A460C21A148E7
:101A300004F09EF9684669460C3102680A6021008C
:101A40001031FFF755FF04A8007905903871984EC2
:101A50000498B060049838602000083006C806C6B4
:101A6000083E082221000831781D01F0F3FD10988E
:101A70003861606B40B27861A06BB861282130009A
:101A8000143001F000FE20001030310024319CC8D9
:101A90009CC130001430B064300024303064300019
:101AA0002430F06410203074F07300E00125280029
:101AB00015B0F0BDD8010020F8B594B007000E00B5
:101AC00015006A460421F820400001F0ABFE0CAA84
:101AD0002021080101F0A6FE01AA0821062001F03C
:101AE000A1FE0CA901A8FFF723FF714C0C99A1607E
:101AF000002906D00022D243914202D0009A90429F
:101B000003D00020A060012073E003970CA8021D01
:101B100088CA88C4083C039A1160217831706178C2
:101B20007170A178B170E178F170217931716179CA
:101B30007171A179B171E179F171017B0907090F27
:101B400000D101212970A1680491059106910791A6
:101B5000089108AA01AB151DC0CBC0C5CB430B93A0
:101B6000D17B037B872B01DA0B4300E00B40D3735F
:101B7000117B437B192B01DA0B4300E00B401373FD
:101B800004A90A7A837B802B01DA134300E0134017
:101B90000B72CA7AC37B802B01DA1A4300E01A4029
:101BA000CA721907090F022901DA022102E00E297F
:101BB00000DB0D21217404A9A16408A9216410226D
:101BC0000100103120002430FFF72CFE20001430DB
:101BD00000210022002300252EC020001430A06424
:101BE000200024302064207CE07320002430E06456
:101BF000002015B0F0BD38B52D4C246C002C01D15F
:101C0000012032BD049D002D00D12300FFF7A7FD68
:101C1000002032BD2649002804D010200A0050328E
:101C2000012302E0C87BCA6C00238B730A6408742A
:101C3000002070471E49002804D010200A0060329E
:101C4000012302E0C87BCA6C00234B730A6408744A
:101C500000207047164908730020704714490A7B1A
:101C6000002A02D01449016007E00A7A02704A7A19
:101C700042708A7A8270C97AC170002070470C491C
:101C80000A6C002A01D1012070470A7802704A7854
:101C900042708A788270CA78C2700A7902714A7971
:101CA00042718A798271C979C17100207047000040
:101CB000680100205000F81F98BADCFEF0B583B030
:101CC0000400924E3078002801D01120ACE0002CA6
:101CD00001D11320A8E06D463B20E871684603F06F
:101CE0006EFD010001D0102198E0E8793B2801D079
:101CF000122099E0311D742003F074FD7268002AEF
:101D000001D0010001D0102188E0110057311000EE
:101D10006C3001F0EDF90700706803D003F03CFD72
:101D2000380081E0697809022A7811438184E978D2
:101D30000902AA7811430905090D54228152A97993
:101D40005A228154607B02281BD172680320906064
:101D5000B049D1600021116123699362237E30254F
:101D60005355726813002C336569974FBD4203D1F8
:101D7000FA214900196001E0196002203121505414
:101D800010E001280ED17268A34890600021D16054
:101D900011610120322150546879000229790843E9
:101DA000716888867068216801606168416001001F
:101DB0005631627BCA71A2680266002048800870B2
:101DC000706801006431227B012A01D1642203E0A2
:101DD000022A02D1962292000A80227B0A73A2680C
:101DE0009B4B9A4208D13C2048809A488880607B6F
:101DF000042816D1022015E0974B9A4204D10820FE
:101E00004880FA20C000F1E7944B9A4203D13C206D
:101E100048808048EAE703F0BFFC142100F061FA33
:101E200002E001203070002003B0F0BD70B5002545
:101E30000024364E3078002801D1212070BD706812
:101E400003F0AAFC010000D020243570210000F02E
:101E500048FA70BD30B583B0069C012C01D1012534
:101E600000E00025002801D1332013E00D2901DB1B
:101E700030200FE0002A03D1012C01D1312009E0EC
:101E80000295019300920B00020001211F48406857
:101E900000F016FB03B030BD10B584B0022404433B
:101EA000012B06D101206B461C73002904D134207C
:101EB0000CE000206B461C730290019200910023FD
:101EC00003AA00211148406800F0FAFA04B010BDDE
:101ED00000B583B0012801DD352015E0002802D1CE
:101EE0000321072303E0012801D104210523002059
:101EF00002900220019000200090DBB20022C9B2C3
:101F00000248406800F0DCFA03B000BD6C08002015
:101F100080B5002A06D0012A0CD0022A12D0052A48
:101F200013D015E0B0A20260002901D00F20087084
:101F3000002002BD03F048FC0100F9D05C2100F054
:101F4000D0F902BD04F02AF8F6E703F0D3FDF3E779
:101F50005D210020F3E738B50C00A14D2978012957
:101F600030D1696802688A604268CA608068086126
:101F7000C00509D5086E394A904205D10800603085
:101F8000334A0260334A02815D20085C01280AD18D
:101F9000080000F03CF96968C886002801D141209A
:101FA00032BD32200C5468685D21415C022907D1A2
:101FB0008168002902D0C068062801D2402032BDC5
:101FC00002202870002032BDE0930400F8B507001D
:101FD0000C00834E3078002801D05820F2BD03F069
:101FE000E5FF050001D057210DE0380003F06CFF3C
:101FF000050004D1200004F0BBF8050006D004F071
:10200000FFF85721280000F06CF9F2BD0320307072
:102010000020F2BD88130000FF01000038B5704CAD
:102020002078032801D05A2032BD04F0FBF80025A7
:10203000010001D0257004E004F0E2F801002570F1
:1020400003D0592100F04DF932BD002032BD00000F
:1020500000EE020008520000D4300000A08C000006
:10206000F0B583B00400002901D1532041E00D2ACE
:1020700001DB52203DE05A4D2878022801D0512042
:1020800037E00320287068686C26865D982E01D0A2
:1020900050202EE006006C367778BA2FF8D1B7784A
:1020A000DC2FF5D1F678FE2EF2D1019300230093B8
:1020B00013000A00012100F0BBFA010019D1686881
:1020C00000F0DEF9010003D0542100F00AF910E01D
:1020D000002C04D10021686800F0C4FF0400220035
:1020E0000021686800F02CFD010002D10220287058
:1020F000002003B0F0BDF8B50D0017001E00384CED
:102100002178022901D05620F2BD04212170616896
:102110006C228A5C982A01D05520F2BD0A006C32EC
:102120005378BA2BF8D19378DC2BF5D1D278FE2AEC
:10213000F2D1002802D1080000F0D8FF01230200EC
:102140003100280000F0BEFE010012D13A00290043
:10215000606800F0D3FE9B2801D1022121700100AC
:1021600007D160686A21405A0699088002202070D1
:102170000020F2BD0021017019490A78002A06D01A
:1021800049685D228A5C022A01D109690170002038
:10219000704780B5694600F0ABFF02BD80B503F023
:1021A00009FB010003D05B2100F09BF802BD002079
:1021B00002BD0B490A78022A01D05E2070474968A7
:1021C00056228854002070470649884201DBB1201E
:1021D0007047401C024949685822885200207047C5
:1021E0006C080020FF0F000056322E372E305F465D
:1021F000444C5F4D4F4E00000100C87802028878C1
:10220000024348780002097808435040704770B490
:102210000100002008310323012400250E68EE4050
:10222000264000D0401C6D1C202DF7DB091D5B1ED5
:10223000F3D1410008184004000C70BC7047F8B599
:1022400007000024481E062101F072F9461CF6B270
:102250003B0008330021032200201D00B0421BD0A8
:1022600000236F4679703C706C466478B0420DD0A4
:102270002F68DF40FF0705D5401CC0B2864201D160
:102280006F463C705B1C641C202BEFDB6B461C789C
:1022900020312D1D521EE1D12000F2BDF0B50C0001
:1022A00005006035AE88006E310001F02BF90700A3
:1022B0002889310001F03CF9381AE9886143401A55
:1022C00080B2F0BD30B502000C0015006435A8885E
:1022D0006421515A01F02CF969884C43001980B2ED
:1022E00030BD0202C8B210437047F0B583B004009D
:1022F0000D0016005D20205C042801D002284ED17C
:10230000A08C002803D080210901884206DB200030
:102310006C30FFF771FF4005400DA0842700603747
:10232000012E1CD101212000FFF7B8FF05003889DC
:10233000B98801F0FDF8F988411801232A0089B213
:10234000A08C01F067F8A0842083A08CF988401845
:102350006083A08CF988401AA08303B0F0BD6D1C87
:10236000019500253889B98801F0E2F806000123BB
:102370000093206EB98801F0C5F8821B012392B248
:10238000B1B2A08C01F046F8A084210018316A0097
:1023900088526D1CEDB201988542DEDAE2E7A08E2C
:1023A000002803D080210901884206DB20006C3020
:1023B000FFF722FF4005400DA086A08C002801D029
:1023C000802806DB20006C30FFF716FF4006400E29
:1023D000A084012E1DD10123E28E521D92B208214C
:1023E000A08E01F017F8A086002326220421A08CDD
:1023F00001F010F8A084A08E2087A08E401C60877A
:10240000A08E401EA087A08C2083A08C6083A08C0F
:10241000A2E76D1C019500250123E28E921D92B268
:102420000721A08E00F0F6FFA086002326220421BB
:10243000A08C00F0EFFFA0846800A18E2218118705
:10244000A18C2200183211526D1CEDB20198854208
:10245000E2DB82E7026849004118098B6423C35A12
:1024600059435118036E5B08C91A914201D30121E7
:1024700001E00021C943826AC06A41435018704795
:1024800000B583B06946828C0A70828C120A4A7049
:1024900002005432537A012B04D1838E0B71838E48
:1024A0001B0A4B715423C35A8B705423C05A000A21
:1024B000C87090798871684603F0A2F903B000BD36
:1024C000F2B584B004000026002700250CA800788F
:1024D0000390012800D10125C7480078022801D0C7
:1024E0006020A3E00320C44908705B2166540B9868
:1024F000002802D169460E7202E002206946087285
:1025000001956846007A00906846017C200000F042
:102510008FF8010000D089E02000FFF7B1FF00280C
:1025200002D0010261206DE020005B30807802283B
:1025300004D1E7682069FF2188432061BBB2684667
:10254000027A0CA80178200000F05AFB010001D0AB
:102550007E280DE0002D3ED00420A74908700CA86D
:1025600002780A99200000F088FC010005D09B2821
:102570005CD10221A04A117058E0039801282AD1A9
:1025800003209D490870022003F0EDF8002802D0D6
:102590000102642036E0019000900823002202210D
:1025A000200000F045F8010040D12000FFF768FF4F
:1025B000002802D00102622024E020005B308078F5
:1025C000022800D18D4FBBB200220021200000F074
:1025D00017FB01002AD15B20205C012822D15B205F
:1025E000265401960096052300220421200000F0C5
:1025F0001FF801001AD12000FFF742FF002803D086
:1026000001026320084311E020005B30807802283B
:1026100000D1E768BBB202220021200000F0F0FAEE
:10262000010003D1022074490870002005B0F0BDFC
:1026300070B582B004000D00079E009600F0EEF821
:1026400001003AD1022D05DB6D48E0836230208421
:102650006C482BE05C20215C18A0102912DA49009C
:1026600041181C390988E1835C21615C49004118EB
:102670001039098821845C21615C49004018001FE1
:10268000008813E00A3989104900415AE1835C212E
:10269000615C0A39891049004118898921845C21CB
:1026A000615C0A39891049004018008B608432004F
:1026B00006992000FFF719FE002076BD6BA08DA0C3
:1026C0005FA311A64CA967AFE0A6D2A098A5BFA6AC
:1026D00071A9C9AF34A002A3A3A52CA797A9BEB125
:1026E000F7B58EB01F00484800685621405C0128AD
:1026F00001D1012600E00026189D179C0B21681DC2
:1027000000F0C1FFE078C0012871A078C001E17835
:1027100049080143E9706078C001A1784908014384
:10272000A9702078C0016178490801436970207858
:102730004008802101432970009600BF33A3102276
:10274000290001A803F008F8010052D101A8017B7B
:10275000FE220A400273169909094173199A002A48
:1027600002D110220A434273169909013A05120F49
:102770000A438273C773E078C0012871A078C00152
:10278000E17849080143E9706078C001A1784908FF
:102790000143A9702078C00161784908014369703C
:1027A000207840082870009618A31022290009A854
:1027B00002F0D2FF01001CD10120009009AB1022D1
:1027C00001A905A802F0C8FF010012D110A80078E5
:1027D00000280DD00E9805A90F9A10AB1B780C7825
:1027E000157865400570521C491C401C5B1EF6D1D3
:1027F000002011B0F0BD00006C080020280A000085
:1028000067AF0000BEB10000700800200011223345
:10281000445566778899AABBCCDDEEFFF2B596B039
:10282000040017001D00022606965420205A401C62
:10283000542160520005000D60525721615C01294E
:102840001AD1002804D15A20205C401C5A2160541F
:1028500016A8007804280FD05420205A010509D06A
:102860005821615A002907D000F062FE481E8041BD
:10287000C00F02E0012000E000200790280004D1F2
:102880003878C107C90F0E4310E0012D01D1002691
:102890000CE0681E03214210920F12189210920051
:1028A000801A0E1AF6B2B01CC0B2069016A80078B4
:1028B000002816D0022845D003D3042874D014D39E
:1028C0009DE00021280009D020003E308A1DD2B2B0
:1028D0003B788354491C7F1CA942F5DBB0013E21A3
:1028E0008CE0387880013E2188E0B0013E216054C0
:1028F00004AA921C05A905A8801C02F06DFF0028FF
:1029000002D001029220E1E0082044216054684690
:10291000C08A452160546846C08A000A4621605436
:102920006846808A472160546846808A000A4821A8
:102930006054049800144921605404980014001253
:102940004A215BE0B0013E21605404AA921C05A913
:1029500005A8801C02F040FF002802D0010293204D
:10296000B4E00920442160546846C08A452160547F
:102970006846C08A000A462160546846808A47211A
:1029800060546846808A000A482160540498001404
:10299000492160540498001400124A2160546A20AE
:1029A000205A64304B2129E0B0013E21605404AA32
:1029B000921C05A905A8801C02F00EFF002802D079
:1029C0000102952082E00A20442160546846C08AB2
:1029D000C82100F097FD452160546846808AC821CF
:1029E00000F090FD46216054049800140A2100F084
:1029F0009FFD472160545A20205C482160543E20AE
:102A0000215C1C9840012022104008433E21605464
:102A10005421615A0905090F01433E2021545420D5
:102A2000205A3F2160546C20205C402160542000DB
:102A30006C3041784122A15481784222A154C1785E
:102A40004322A1545721615C012933D116A9097889
:102A500004292FD0290012D00121039108A9029145
:102A600001905A20205C00905420235A2A00210013
:102A7000443120004430FFF733FE002824D108AA57
:102A80005A20205C10700021A81D23003E335B5C9F
:102A900056187370491CC9B28142F6DB04ABEA1DBB
:102AA000D2B208A90DA800F07BFC002810D00102CA
:102AB00096200BE004ABAA1DD2B221003E310DA836
:102AC00000F06EFC002803D001029120084335E09D
:102AD00000210698002811DDA81D0DAB069A6E4650
:102AE000367C76189E19103E367827003E37C0B2E5
:102AF0003E54491C401C9142F1DB069206982D1869
:102B0000AE1D5C202654F1B220003E3000F002FBE6
:102B1000010A22003E32F6B2915521003E31ED1DF0
:102B2000EDB248555C20205C801D5C2160545B2028
:102B3000205C079901435B202154002017B0F0BDB1
:102B4000F0B587B004000F001500002003F02EFA46
:102B500006002ED1280003F0B7F9060003D003F0D9
:102B60004FFB310226E0AA216846017041707900CE
:102B70006118CA8B120A8270C98BC1703B005C213C
:102B8000615C0A1FD2B2011D20003E3000F074FCCF
:102B90005C20225C7020215C684603F0BDFA0600D0
:102BA00003D003F02DFB310204E003F029FB060003
:102BB00003D001029720084300E0002007B0F0BDD9
:102BC000F8B50400080017001D0003F0EFF9060037
:102BD00015D1380003F078F9060007D12A0030201B
:102BE0002156052003F032FB060003D003F008FB5A
:102BF0003000F2BD03F004FB060000D10020F2BD5E
:102C0000FAB585B000270025019700266946097DA1
:102C1000012900D1012669468A7004005D20205CEC
:102C2000012810D14F703220205C01280FD1002ADA
:102C30000DD0002E0BD00A2002F0E8FD002834D081
:102C4000010270200EE1684601227240427068461F
:102C5000008B00284CD05D20205C022848D16846BB
:102C6000008B02F019FE00281CD100212000FFF784
:102C7000F1FB6B4602003120215C2000FFF7A0FF32
:102C8000002819D168460078002818D1A068401E95
:102C900085421CD2032002F066FD002817D00102F5
:102CA0007920DFE001027720DCE002F085FE0028D9
:102CB000CDD001027120D5E001027620D2E0684635
:102CC0000078012803D102F05BFE002841D16D1C81
:102CD000EDB2A1688D4203D2694609780129BED1BF
:102CE00022695107490FD2085019C0000818206105
:102CF0005D20205C022804D168460078012800D0BD
:102D0000B2E00025694689780291491E0491029932
:102D1000491C03912900200000F0A4F902002900B9
:102D20002000FFF70DFF010000D0A4E05D20205C33
:102D3000022802D12069401C2061002D2AD15D208B
:102D4000205C6946097D01290ED1022804D1132097
:102D500003E00102782085E0142002F057FD0028EE
:102D600018D0010275207DE0012813D13220205CAB
:102D700001280FD1E08E039900F0DAFB0100142046
:102D800000F0C0FB80B20028019003D002F03EFDAD
:102D9000002833D15D20205C02280AD102988542A8
:102DA00007DA002D05D1FA20400102F075FD002858
:102DB00027D16846407802F0D6FC002824D15D2057
:102DC000205C022830D1029885422DDA691CC9B2F4
:102DD0002000FFF73FFB6B4602003120215C200002
:102DE000FFF7EEFE002812D168460078002814D1C3
:102DF00002F0C6FD00280DD1012715E00102722066
:102E000030E001027B202DE0010274202AE0010263
:102E10007A2027E001027C2024E00498854203D137
:102E200002F0AEFD00281BD16D1CEDB20398854267
:102E300002DA380000D16DE75D20205C012819D14D
:102E40003220205C012815D10198000412D0002EF8
:102E500010D102F0B1FD00280CD00102732001E076
:102E600001027D20084306E068460078002801D171
:102E70007E2000E0002007B0F0BD70B504000D001A
:102E80001600012E07D102F097FD002803D00102A1
:102E90009820084370BD62695D20205C022801D142
:102EA000222100E019213300012000F00BF801007D
:102EB00007D12A000121200000F020F8010000D1F4
:102EC000002070BD70B50C001500012003F06EF8F5
:102ED000060001D001020CE0280002F0F5FF060018
:102EE00004D1200002F092FC060005D003F088F91E
:102EF0003102E020084370BD002070BDF2B590B0F3
:102F0000160000256A46957400271570010054319B
:102F1000069108AC059004AA05996A3108A803F047
:102F20005BFA01906846007C01286FD110A80078F8
:102F300001284BD104AB5B1C05985421425A014631
:102F40006C3108A800F026F905005FD16846407C86
:102F5000012858D10795019D0698C078012824D1F1
:102F6000002003900CA8029005986C300190069800
:102F70008079009005985421435A0822211D300081
:102F8000FFF7AEFB6946087003F03AF906006846A1
:102F9000007C002803D002F0E5FC6946887407989D
:102FA000002836D00006010C51E02079307060799D
:102FB0007070A079B070E079F070207A3071607A2A
:102FC0007071A07AB071E07AF071DDE70120002124
:102FD000725C635C9A4200D00020491C725C635CA6
:102FE0009A4200D00020491C725C635C9A4200D077
:102FF0000020491C0F29EBDB06991622895E02F09E
:10300000FDFB070002D10198002884D00795019D9F
:10301000BAE7002D02D02D06290C18E0002E01D0B1
:10302000310214E06846807C002802D06846807C2B
:103030000CE0002F04D039029A20084380B20FE040
:10304000684600780028684604D0007801029A207B
:10305000084305E0007C002801D19B2000E000200F
:1030600011B0F0BDF8B504000D005D20205C04280F
:1030700001D0022809D168002018018B200060309F
:1030800080884143206840181FE068002618308F70
:10309000811F89B22000FFF7D2F8070020006030BE
:1030A00000890090308F401E062100F02BFA0D4859
:1030B000414300984018318B962292004A43811870
:1030C00020684018084A5743C019226E5208801AD7
:1030D000002D05D162685118226E5208891A61616B
:1030E000F2BD0000A8610000E09304004069704751
:1030F00010B50C0002F052FB002803D00102992009
:10310000084310BD2078012801D000202070002045
:1031100010BD000070B402000B000020190014D094
:103120000C4C80252D020100107800024840082137
:103130004600284203D03000604080B200E0B0B2C8
:10314000491EF5D1521C5B1EEDD1034941400800D8
:1031500070BC704721100000FFFF000070B4020037
:103160000B000021180011D02F2480251078414039
:1031700008204E00294203D031006140C9B200E06E
:10318000F1B2401EF5D1521C5B1EEFD1080070BC9D
:1031900070470000FCB58BB004000F0000F070F821
:1031A000002001250194002475A1019A0F230094A9
:1031B0000E78B4461678C64001243440664666430D
:1031C000009C6640F4B2521C491C5B1EEFD1019971
:1031D0006FA2125D89180A780123834053400B7057
:1031E000401C0828DFDB019E0A21301DFFF7B6FFD7
:1031F000B17B814241D102AC387820707878607020
:10320000B878A070F878E0706846808D20716846C4
:10321000808D000A60713079A0717079E071B079A9
:103220002072F0796072307AA072707AE072B07AAF
:103230002073F07A60733878A0737878E0734D4823
:1032400000685621405C012800D0002000904A4BC5
:10325000102202A902A802F07FFA01000ED1307BF1
:103260002178884206D1707B6178884202D10C981F
:10327000057002E000200C99087000200DB0F0BD30
:10328000F8B4030008784978090201435143C8059E
:10329000C00D00D13948009300210023009C08256F
:1032A000212606404708202E03D0012E01D0002001
:1032B00001E08020400038436D1EF1D180B25D1CDA
:1032C00027780600EE407E40267067780126AE40E3
:1032D000761E0640B4460726F51A6646AE407E4086
:1032E00066705B1C641C082BD9DB0023009C09342E
:1032F0000825212606404708202E03D0012E01D0A4
:10330000002001E08020400038436D1EF1D180B2E2
:103310005D1C27780600EE407E4026706778012607
:10332000AE40761E0640B4460726F51A6646AE4005
:103330007E4066705B1C641C052BD9DB08242125AC
:1033400005404208202D03D0012D01D0002001E0CE
:10335000802040001043641EF1D1009A927B80B21D
:103360005B1CD8405040009A90730098C173F1BC28
:1033700070470000700800200C280008FF010000C2
:103380000102040803060C0B050A070E0F0D0900C5
:103390000F0001040208050A030E0907060D0B0CB5
:1033A00079B582B0150000240020112D01DB202208
:1033B00000E010221A706D1E0095134D019100213E
:1033C0001A78CEB2964217D2019A125CC9B26A54E8
:1033D000009A904202D0401CC0B200E00020491C7C
:1033E000EEE702980094094B294602F0B5F9010076
:1033F00000D1002004B070BD054800685621405C33
:103400000128EED10124ECE7740800200C28000804
:1034100070080020F8B404000D001600012B03D141
:103420000821144A0A2002E005217F2206206B466B
:103430001E805D802300002B00D113001E0006417A
:10344000012535401F000F4101263E405B041B0C47
:103450006E4002D01D0001232B4313406C4624888C
:103460009C42E8DB6C466488A342E4DB1800F2BCB3
:10347000704700BFFF070000F1B582B00F001600D3
:103480001C000025002E03D03100380000F0FBF8AE
:1034900030002CD0029A3100380080236E46347000
:1034A000019200BF14A26C462478A4001219545D46
:1034B0000278019E37781E0037420AD0641EA4416C
:1034C000E40F6643164306700AA2555DAD1CEDB2CB
:1034D00004E066431643067006A2555D5B08E0D122
:1034E0006A461478019A401C521C491ED5D103B07B
:1034F000F0BD00000000010100000000000101001B
:103500000001000130B50B460146002020220124B5
:1035100009E00D46D5409D4205D31D469540491B07
:103520002546954040191546521E002DF1DC30BD50
:1035300070B500242546002801DA01244042002904
:1035400001DA01254942FFF7DDFFAC4200D04042DD
:10355000002C00D0494270BDF0B51FB406460020D3
:1035600082B005464024019100901BE0019922465B
:103570000F46304600F05DF8049A059B801A994189
:1035800010D310461946224600F08FF8361A8F41A4
:103590000197224601200021009F00F086F838188C
:1035A0004D4100902046641E0028DFDC019B0098FE
:1035B0002946324607B0F0BDF0B51FB486B00020F2
:1035C0000090019002900698069980B204900798A6
:1035D000090C02040014114307900027089D099864
:1035E00006913E463C4603900398A9B20204000CA3
:1035F000039004982D0C154348430021224600F007
:1036000054F8C719714110340E46402CECDB384693
:10361000029A00F04AF8009A019B801800905941E4
:1036200002980191103002904028CCDB00980BB03A
:10363000F0BD10B5202A04DB0846203AD040002116
:1036400010BD0B46D340D0402024A21A914008431D
:10365000194610BD03460B439B0703D009E008C978
:10366000121F08C0042AFAD203E00B780370401C32
:10367000491C521EF9D27047D2B201E00270401CC0
:10368000491EFBD270470022F6E710B513460A46E2
:1036900004461946FFF7F0FF204610BD421C017892
:1036A000401C0029FBD1801A704710B5202A04DB8A
:1036B0000146203A9140002010BD914020239C1AE1
:1036C0000346E3401943904010BD0000064C01251D
:1036D000064E05E0E36807CC2B430C3C98471034BA
:1036E000B442F7D3FDF7F0FC508F0008708F00084C
:1036F00070B58C180578401C6B075B0F01D10378FF
:10370000401C2A1106D10278401C03E006780E7096
:10371000401C491C5B1EF9D12B0705D40023521E07
:103720000DD40B70491CFAE70378401CCB1A921C8D
:1037300003E01D780D70491C5B1C521EF9D5A14297
:10374000D8D3002070BD000000B597B000F0EAFCAF
:103750000C20009000200A900121029005916846FB
:1037600000F0D0FE20200E9000030F900EA800F075
:10377000FBFC084801690122920411430161002207
:103780000121022000F0CAFC022000F0BDFC17B0AD
:1037900000BD00004010024010B5034800F03BFAA5
:1037A000024800F038FA10BDB80300207003002072
:1037B00010B5034800F02FFA024800F02CFA10BDB3
:1037C00004050020BC04002030B5446C1C252C40AE
:1037D0000125A540046C6560046863608368102B54
:1037E000036803D099600068C26030BD9A600068C9
:1037F000C16030BD10B5044600F034FB002808D18C
:10380000204600F0E7FA002803D100F0F7FA00287C
:1038100001D000F041FB002010BD10B5012000F0E8
:1038200055FB10BDF0B50746C3B00D4603206946F1
:1038300016460871002401A90122101BC300384656
:10384000D8400B19641CE4B25870022CF5D300F078
:103850003FF800F029F87D24E400032302AA01A91F
:103860000748009401F082FB2B46324602A9044827
:10387000009401F07BFB00F005F8002043B0F0BDA0
:103880006405002010B503F0EBFA012806D00122F0
:1038900005205102000700F0E1FB10BD01221021BC
:1038A0000048F8E70004005010B503F0D9FA0128E9
:1038B00007D00121052000224902000700F0CEFBBD
:1038C00010BD002210210148F8E70000000400505C
:1038D0001FB5052168460172FF210173FFF7E4FF60
:1038E0007D24E400012301AA02A90948009401F003
:1038F0003DFB012301AA03A90548009401F036FB12
:1039000068460079C007F4D1FFF7BCFF1FBD000077
:1039100064050020704700001CB502F0A7FE0028D7
:103920001FD02520694608706A4601215B2002F0FD
:103930007DFF0EA00068019001AA0321002002F083
:1039400075FF012003F030FA002003F00FFA012088
:1039500003F0F4F9022003F0FDF9072002F09EFEC7
:103960001CBD0C21072002F09AFEF6E792522A00B5
:10397000F8B50746FFF7D0FFA225124C002F08D05C
:103980009A26012F0CD0022F0AD0032F0ED00EA0A2
:1039900000E010A003F01CFE25706570A5700BE020
:1039A0000FA003F015FE2670667004E00DA003F072
:1039B0000FFE25706570A670024A0321002002F0F8
:1039C00035FFF8BDB000002044454641554C540A2F
:1039D0000000000053485554444F574E0A00000061
:1039E00054580A0052580A0010B5214A0021906923
:1039F000C305204804D5416902231943416191154B
:103A000093699B0505D54369012423434361630200
:103A1000194393695B0505D5436908242343436132
:103A2000E301194393691B0505D543690424234326
:103A300043616302194393699B0405D543691024CC
:103A4000234343616302194393699B0304D544698B
:103A500020231C43446119439369DB0305D5436963
:103A6000402423434361A0020143916110BD000043
:103A7000002002404C05002070B5054600F0F4FA25
:103A80000646184C0AE0681C08D0002D04D000F04F
:103A9000EBFA801BA84201D9032070BDA069C007C2
:103AA000F1D1A069800701D50220A061A069C005FD
:103AB00011D4A06980050ED4A06940050BD4A0697B
:103AC000000508D4A069800405D4A069800302D44D
:103AD000A069C00303D5FFF787FF012070BD002058
:103AE00070BD00000020024070B50C46054600F095
:103AF000B9F900280BD1084A946021C2284600F089
:103B000069F9002803D100F079F9002801D000F00C
:103B1000C3F9002070BD0000B0070020F7B50025F4
:103B200082B016460F46002A01D0002417E0012576
:103B300017E0A0088000211A0A0602990858009090
:103B4000520DFF200006009BD04018400021182392
:103B500001919A1AFFF76DFD3055641CE4B2BC4226
:103B6000E7D3284605B0F0BDFFB581B01C460F462F
:103B70000025084600F048F8202800D902250398BF
:103B8000002800D10125002C07D0384600F03CF871
:103B900001460198FFF7A8FF0546002D2BD100260E
:103BA00000F060F90024781E009020E0A00880005A
:103BB000211A84460398C9B2005DCB001822D21A9C
:103BC000904006430098844201D003290DD101980A
:103BD000614641183246022000F01AF9002803D04D
:103BE00000F05AF9012504E00026641CE4B2BC424E
:103BF000DCD300F003F9284605B0F0BD0148C068E9
:103C000070470000B40000204106490EC009002999
:103C100000D0401C7047F0B4016C0D6801680C685E
:103C2000466C1C2304221E401746B7402F420ED07C
:103C300067070CD50C68A40602D40C6894430C608A
:103C4000416C19408A40016C4A60016B1AE00227FE
:103C5000B74002462F402032002F17D0A70715D5B6
:103C60000C68A40605D40C680A25AC430C6001213D
:103C70005171446C02211C40036CA1405960002129
:103C80001171C16A002918D0F0BC08470827B74055
:103C90002F4212D0240710D50C680E25AC430C60BF
:103CA000446C01211C400B46A340046C6360C1635B
:103CB000517100211171416BE4E7F0BC70470000C5
:103CC00070B504003CD01F48256814212818FFF760
:103CD00019FC800060641C482064022120462030CA
:103CE0000246417129681948E3680140A068666985
:103CF0001843236933431843A3691843E3691843FE
:103D0000236A1843084328600121A0688903884278
:103D100010D00D488030836A656C1C210D400F2641
:103D2000AE40B3438362656C63680D40816AAB400B
:103D30000B4383620020E06301215171107170BD5B
:103D4000012070BDF8FFFDBF000002400F80FFFFA3
:103D5000F8B504468C46203001790025012909D0A8
:103D60000126067141790027012905D00771022536
:103D70002846F8BD0220F8BD02214171E7632068A2
:103D8000016849084900016061462046FFF71CFDB3
:103D9000206B00282068016801D00E2205E0042273
:103DA00091430160206801680A2211430160206884
:103DB000016831430160DBE770B5044600F054F957
:103DC0000546601C00D0641C00F04EF9401BA04268
:103DD000FAD370BD70B5074D04462846FFF74CFE78
:103DE000002805D10449486120602846FFF744FEB9
:103DF00070BD000050C300004C050020034841681E
:103E00000122114341600020704700000020024061
:103E1000F8B5124D0746287C14460E46012807D0F7
:103E2000012028740E48FFF727FE002802D00CE07E
:103E30000220F8BD00216961022F09D0012F09D0AD
:103E4000002F09D00648FFF717FE00212974F8BD9E
:103E50003460FAE73480F8E73470F6E74C05002068
:103E600050C3000009494868C0070DD0EFF3108027
:103E700072B6074ACA60074ACA6080F31088486869
:103E8000C00701D001207047002070470020024089
:103E9000EFCDAB890504030201484069704700007B
:103EA0004C05002010B507494861012805D102F0F2
:103EB000EFFE002802D002F0F1FE10BD0249012001
:103EC000487010BD000401404000002010B50449B6
:103ED0004A69024202D04861FFF7E4FF10BD0000CA
:103EE00000040140F8B500230124A2E027469F40CA
:103EF0003A4070D04D68022D01D0122D14D1DD084A
:103F0000AD002D1800952D6A5E07AC46F50E0F2604
:103F1000AE46AE406546B543AC460E697546AE400A
:103F200065462E43009D2E624D68012D05D0022D61
:103F300003D0112D01D0122D16D185680326AC4671
:103F40005D00AE46AE406546B543AC46CE687546AC
:103F5000AE4065462E43866046680D79BE43ED0649
:103F6000ED0F9D403543456006685F000325BD4069
:103F7000AE46AE430D79B446AE07B60FBE406546B9
:103F80002E430660C6687546AE438D68BD40354316
:103F9000C5604D68ED004BD5294D6E6B26436E63B1
:103FA0009E08284DB6007519AC46AD689E07360FC1
:103FB0000F27B740BD4305273F07B84201D100276F
:103FC00015E0214FB84201D1012710E01F4FB84240
:103FD00002D102270BE02BE01D4FB84201D103278D
:103FE00005E01C4FB84201D1052700E00627B74085
:103FF0002F436546AF60184D2E684F689643FF0308
:1040000000D516432E606E684F689643BF0300D5F7
:1040100016436E60AE684F689643FF0200D51643A4
:10402000AE60EE684F689643BF0200D51643EE605F
:104030005B1C0A681546DD4000D057E7F8BD00005C
:104040000010024000000140000400500008005031
:10405000000C0050001C005000040140002A01D058
:1040600081617047816270470148006870470000B5
:10407000A000002002480168491C01607047000050
:10408000A000002010B50848002401684022114318
:104090000160204600F00AF8002801D0012401E068
:1040A00000F01CF8204610BD0020024070B5054607
:1040B00009487D210024C9000068FFF723FA01F0B8
:1040C000F5F8002801D0012404E000222946501E02
:1040D00000F024F8204670BDA40000200448416B85
:1040E000012211434163816B0204114381637047D4
:1040F00000100240C106C90E012088400149086035
:104100007047000080E100E0C106C90E0120884030
:10411000014908607047000000E100E010B501F0BF
:1041200005FE10BD02480168821511430160704709
:10413000007000400A4B1A689208920002431A600D
:1041400008480369042213430361012906D040BFD4
:1041500020BF20BF016991430161704730BFF9E77B
:104160000070004000ED00E0F8B504460078594DBD
:10417000800672D5574E0027403EB06BC00004D475
:10418000B06BA9050843B063012753480168C9050E
:1041900011D40168821511430160FFF765FF00909B
:1041A00005E0FFF761FF0099401A642837D84A48B4
:1041B0000068C005F5D532680321090560680A402A
:1041C0000140914208D08103890F032904D131684D
:1041D000890301D50120F8BD2A69032109040A4099
:1041E00022D0084090421FD0207880061CD5286934
:1041F0002A6988430121C9040A432A612A698A433A
:104200002A612861C0050FD5FFF72EFF009008E056
:10421000FFF72AFF0099411A3048814201D9032053
:10422000F8BD28698005F3D561688803800F0328ED
:1042300005D132680005824301400A433260286993
:10424000032261681204114008432861002F04D042
:10425000B16B012000078143B1632078C00705D00E
:10426000E868A168800880000843E860207880073B
:1042700005D5E8680C218843E1680843E8602078A8
:10428000400706D5E868032189028843216908436D
:10429000E8602078000706D5E86803210903884311
:1042A00061690843E8602078400606D5E868012186
:1042B00089068843E1690843E8602078000606D54E
:1042C000E868032189048843A1690843E860002065
:1042D000F8BD00004010024000700040881300004C
:1042E000F8B50E4605007DD053480068C007C00FE2
:1042F000B0420AD250480168490849003143016080
:104300000068C007C00FB04271D128784B4C8007BD
:1043100005D5E068F0218843A9680843E060287863
:10432000C00752D06868022817D0032818D0216827
:10433000012818D08905002959DAE168890889001F
:104340000143E160FFF790FE69680746022912D039
:1043500003291CD0012926D033E021688903EAE72C
:1043600021688901E7E74907E5E7FFF77DFEC11B03
:104370003348814223D8E0680007800F0228F4D137
:1043800023E0FFF771FEC11B2D48814217D8E0687A
:104390000007800F0328F4D117E0FFF765FEC11B6B
:1043A000274881420BD8E0680007800F0128F4D12C
:1043B0000BE0FFF759FEC11B2148814201D90320C0
:1043C000F8BDE0680007800FF3D11B480168C907FA
:1043D000C90FB1420DD90168490849003143016054
:1043E000006800E003E0C007C00FB04201D0012028
:1043F000F8BD2878400706D5E06807210902884300
:10440000E9680843E0602878000707D5E0680721DD
:10441000C90288432969C9000843E06000F036F802
:10442000E168084A0906090F515CC840064908605E
:104430000020FFF73BFEF8BD0020024000100240C4
:104440008813000014880008A400002004480549CF
:104450000068C968044A4905490F515CC840704763
:10446000A4000020001002402D88000804480549DF
:104470000068C968044A8904490F515CC840704704
:10448000A4000020001002402D88000810B5184A32
:10449000D1680C20084004280BD0082810D00C2824
:1044A00010D050680004410F0120C003491C88400F
:1044B00010BD1068C00601D50E4810BD0E4810BDD5
:1044C0000E4810BD88020E4B000F185C0902D3681D
:1044D000890F491CDB0301D5084A05E01268D206A2
:1044E00001D5044A00E0044A5043FFF70BF810BD21
:1044F0000010024000093D000024F40000127A0080
:1045000024880008FEB505007ED0FE4CE7680C202C
:10451000E66807400120000406402878C00747D01D
:10452000082F05D00C2F0AD101200004864206D1A5
:10453000206880033CD568680028E5D038E0012079
:1045400069680004814203D121680143216011E0C0
:10455000052301221B0492049942216802D11143D0
:104560002160F1E7814321602168014000912068CA
:1045700090432060686800280DD0FFF775FD00901B
:1045800005E0FFF771FD0099401A64287AD8206889
:104590008003F6D50CE0FFF767FD009005E0FFF71C
:1045A00063FD0099401A6428F0D820688003F6D48F
:1045B0002878800755D50923E868042F0DD00C2FE3
:1045C00001D1002E09D000283BD021689943014336
:1045D0002160FFF749FD064627E02168490701D51C
:1045E000002891D061681F22120291432A691202A9
:1045F000114361602168994301432160FFF746FF41
:10460000E16809060A0F00E0BBE1BF49895CC840C8
:10461000BE4908600020FFF749FD002872D120E064
:10462000FFF722FD801B0228B0D820684007F7D58D
:1046300060681F21090288432969090208436060F4
:104640000FE02068400840002060FFF70DFD06469F
:1046500004E0FFF709FD801B022897D82068400777
:10466000F7D42878C0065FD5002F0CD0E869002861
:1046700049D02068FF21013108432060FFF7F4FC96
:1046800006462DE0E4E02068800502D5E8690028B0
:10469000A7D06068072149038843696A08436060BE
:1046A0006068298C0002000A090608436060686A95
:1046B000410B0120C003491C8840E16809060A0F2C
:1046C0009149895CC840914908600020FFF7EEFCE1
:1046D000002817D128E0FFF7C7FC801B0228A3D8C9
:1046E00020688005F7D56068072149038843696A17
:1046F000084360606068298C0002000A09060843CC
:10470000606011E023E12168FF20013081432160D6
:10471000FFF7AAFC064604E0FFF7A6FC801B022870
:104720009BD820688005F7D42878794E000724D5D7
:1047300068690028306910D0012108433061FFF713
:1047400093FC009005E0FFF78FFC0099401A0228C7
:104750007ED830698007F6D50FE040084000306110
:10476000FFF782FC009005E0FFF77EFC0099401AFD
:1047700002286DD830698007F6D42878400764D5C0
:1047800000200290A06BC00006D4A06B0121090795
:104790000843A063012002905E480168C90511D456
:1047A0000168821511430160FFF75EFC009005E08F
:1047B000FFF75AFC0099401A642849D85548006808
:1047C000C005F5D5FF20AA680130824203D13169C6
:1047D0000143316111E001218902002A07D005233C
:1047E0001B029A4203D132690A433261EFE7326910
:1047F00082433261306988433061A86800280ED056
:10480000FFF732FC009006E0FFF72EFC0099411AFA
:10481000414881421CD830698005F5D50DE0FFF78D
:1048200023FC009006E0FFF71FFC0099411A3A486C
:1048300081420DD830698005F5D40298002804D053
:10484000A16B012000078143A1632878800600E066
:104850007CE02ED53148A9694314002916D0A268FE
:1048600001210A43A260626B0A436263016A194331
:104870000162FFF7F9FB064604E0FFF7F5FB801B3A
:10488000022863D8A0688007F7D512E0A16849081C
:104890004900A160016A99430162FFF7E5FB064602
:1048A00004E0FFF7E1FB801B02284FD8A0688007D7
:1048B000F7D4A86A002866D00C2F4DD00126360602
:1048C0000228206805D0B0432060FFF7CDFB0546E5
:1048D0003EE0B0432060FFF7C7FB074604E0FFF768
:1048E000C3FBC01B022831D820688001F7D4296B94
:1048F000E86AE2680843696BFD231B049A4311438D
:1049000008430DE00010024014880008A4000020B5
:104910004010024000700040881300000000014079
:10492000E060206830432060FFF79EFB054604E00E
:10493000FFF79AFB401B022808D820688001F7D5B2
:1049400021E0FFF791FB401B022801D90320FEBDA7
:1049500020688001F5D416E00128F8D0E068012134
:104960000904EA6A014091420BD10F2189042A6BA4
:104970000140914205D1032189050840696B8842B5
:1049800001D00120FEBD0020FEBDF8B5054604465D
:1049900020352878012819D001202870022068705D
:1049A0002168CA20486221685320486220688168D3
:1049B0000122920291438160206881681201914333
:1049C0008160FFF751FB064600270FE00220F8BD8B
:1049D000FFF74AFB811B7D20C000814206D9216878
:1049E000FF204862032068702F70F8BD2068C068FF
:1049F0004007EDD52168FF204862012068702F70C4
:104A00000020F8BDF7B5054604462035287882B069
:104A1000012814D001202870022068702168CA2063
:104A2000486221685320486220688068002640055B
:104A3000FF27002812DAFFF717FB00900AE0022098
:104A400005B0F0BDFFF710FB0099411A7D20C000B2
:104A500081421CD82068C0684007F3D42068816870
:104A600001229202914381602068C1688022114036
:104A7000204A8918C160FFF7F7FA00900DE0FFF7B0
:104A8000F3FA0099411A7D20C000814205D92068BF
:104A90004762032068702E70D2E72068C068400724
:104AA000EDD521680398486120688168C908C9006C
:104AB000816020688168049A114381600E48026811
:104AC000012109050A43026082680A438260206866
:104AD000816801229203114381602068816812116C
:104AE0001143816020684762012068702E700020A9
:104AF000A6E700007FFBFFFF0004014070470000B5
:104B000010B504460068C068400509D52046FFF787
:104B1000F5FF2068C16880221140054A8918C160EC
:104B2000012004490005486101202034607010BD57
:104B30007FFBFFFF00040140F8B5040050D025467C
:104B400020356878002803D12870204600F052F8FC
:104B5000022068702168CA20486221685320486298
:104B6000204601F0BDFCFF2604270028206802D063
:104B700046626F7034E081681D4A1140816021688F
:104B800088686268A369104322691A4310438860E9
:104B90002168E068086120680169228912041143D4
:104BA00001612068C16880229143C1602068C16CA6
:104BB00089088900C164E169606901432068C26CA9
:104BC0001143C1642068806880060BD4204600F041
:104BD000FFF8002806D0206846626F700020287019
:104BE0000120F8BD20684662012068700020F8BDF1
:104BF000BFFF8FFF10B50068084988420DD10848F3
:104C00000169012292041143016100220121022065
:104C1000FFF784FA0220FFF777FA10BD0028004062
:104C200040100240F8B505460446203528780B466A
:104C300001280FD00120287002206870002A0BD0B4
:104C4000D8789E7800040643587809780002490312
:104C5000084317E00220F8BD5878C10603D5EF21BC
:104C600008400A305870D87801F02EFC06045878B5
:104C700001F02AFC00020643987801F025FC064367
:104C80001878400306432168CA20486221685320EF
:104C90004862204601F024FC0027002811D1114869
:104CA0000640206846602068C16880229143C16048
:104CB0002068806880060CD4204600F089F800281F
:104CC00007D02168FF204862042068702F700120FF
:104CD000F8BD2168FF204862012068702F70002015
:104CE000F8BD00003FFFFF00F8B506460446203639
:104CF00030780D46012822D00120307002207070DB
:104D0000206800278068002A1BD0400600D4EF707E
:104D10002978A878090408436978EA780902120416
:104D20001143084300902168CA204862216853203B
:104D30004862204601F0D4FB002837D116E002205B
:104D4000F8BD400600D4EF70287801F0BDFB0304E5
:104D5000687801F0B9FB00020343A87801F0B4FBC6
:104D60000343E878000403430093DCE71749009805
:104D700008402168086020688168012292049143FC
:104D800081602969E868084321688A68104388605F
:104D90002068C16880229143C160206880688006D5
:104DA0000CD4204600F014F8002807D02168FF201A
:104DB00048620420707037700120F8BD2168FF2020
:104DC00048620120707037700020F8BD7F7F7F003F
:104DD00070B504460068C168A0229143C160FFF726
:104DE00043F97D260546F60006E0FFF73DF9401B36
:104DF000B04201D9032070BD2068C0688006F4D598
:104E0000002070BD70474030407C704770B5040092
:104E100007D0002625464035A662687C002802D0CF
:104E200005E0012070BD2E74204600F02FF802200E
:104E3000687420680168402291430160A16860683D
:104E400022690843E168114308436169012208436C
:104E5000A169520211400843E1690843216A0843ED
:104E6000A16A084321680860A0690421000C084079
:104E7000616A0843216848602068C16992009143D3
:104E8000C161666501206874002070BDF0B587B00F
:104E9000064614216846FEF7F6FB2E493068884224
:104EA00055D12D48416B821411434163C16A0225DB
:104EB0002943C162C16A29400591C16A012739436A
:104EC000C162C06A6946384005901820A1C100241B
:104ED0006946224803950494FFF704F88020694648
:104EE000A1C105206946000703950494FEF7FAFF67
:104EF0001B481C4D81C510206C6028608020EC6030
:104F00002C618701AF616C61A8601648083DFEF70F
:104F1000D7FE002801D0FEF7FDFCB564AE62104854
:104F2000104D143848352860AC600120EC60686092
:104F30006C61AC612F628020EC6128612846FEF72D
:104F4000BFFE002801D0FEF7E5FCF564AE6207B0B5
:104F5000F0BD00000030014000100240000400508D
:104F6000300002407003002070477047FFB50446D0
:104F700083B0012001900020264640360090307C0E
:104F80000C9F1D4601280FD001203074FFF76CF8EC
:104F90000290707C616801280DD0CA1FFD3A08D1CB
:104FA000A168002905D102E0022007B0F0BD042865
:104FB00001D00220C3E00498002828D005980028DA
:104FC00025D0002D23D0707C042801D005207074DA
:104FD000002060650599A163E587A5870499216391
:104FE000E586A5862064606420680168490603D4CC
:104FF00001684022114301600121E068C902884232
:10500000606848D1002804D0012D02D03CE0012086
:1050100095E0206B21680088C860206B801C2063AD
:10502000E08E401EE0862FE020688168890710D559
:10503000E18E00290DD0019901290AD1216B09883F
:10504000C160206B801C2063E08E401EE086002043
:10505000019020688168C9070DD0E18F00290AD02E
:10506000C068A16B0880A06B801CA063E08F401E0D
:10507000E08701200190FEF7F7FF01460298081A29
:10508000B84201D3781C59D1E08E0028CCD1E08FF2
:105090000028C9D146E0002801D0012D3CD1206B69
:1050A000216800780873206B401C2063E08E401E4E
:1050B000E08631E020688168890710D5E18E0029FB
:1050C0000DD0019901290AD1216B09780173206B58
:1050D000401C2063E08E401EE08600200190206886
:1050E0008168C9070DD0E18F00290AD0C068A16B83
:1050F0000870A06B401CA063E08F401EE087012079
:105100000190FEF7B1FF0299401AB84202D3781C11
:1051100002D013E0002F11D0E08E0028CAD1E08F1A
:105120000028C7D139462046029A01F093FC002896
:1051300007D0012000902020606509E00320009046
:1051400006E0A068002803D12068C168806801904B
:105150000120707400203074009826E7F8B50546E9
:1051600004464035287C002696468C4601280CD003
:1051700001272F74687C616801280CD0CA1FFD3A92
:1051800007D1A168002904D101E00220F8BD04285C
:1051900001D0022667E0604600282ED07046002825
:1051A0002BD0002B29D0687C042801D005206874FE
:1051B0000020606561462163A386E3867146A16392
:1051C000A387E38720646064697C042917D0E26CBC
:1051D000274911632749E26C0020D162E26C26491D
:1051E0005163E16C8863E38F2168A26B0C31E06C42
:1051F000FEF7AEFD00281DD106E0012633E0E26C8B
:105200001E4911631E49E6E7206841683943416041
:10521000A16C00200863A16CC862A16C4863A16CFA
:105220008863E38E2268216B0C32A06CFEF790FD40
:10523000002806D0606D10210843606501266F7458
:1052400011E020680168490603D401684022114337
:105250000160206841682022114341602068416854
:10526000022211434160002028743046F8BD00003E
:105270003D6900089D69000811690008336900084C
:105280004769000810B5074C6078002809D0012252
:105290000520D1030007FEF7E1FE0020607001F059
:1052A000E5FD10BD5000002070470000094910B511
:1052B000401E884201D9012010BD074C60610321C6
:1052C000081F00F033FD0020A061072020610020AE
:1052D00010BD0000FFFFFF0000E000E0F0B5024657
:1052E0002032137E012B15D0012717760223537627
:1052F00005686C68AB687026B4430E68496826433D
:105300008024A34319436E600068816057760020B3
:105310001076F0BD0220F0BD70B5040005D0254622
:105320002035687E002802D006E0012070BD0020F4
:105330002876204600F00AF802206876211D2068B1
:1053400001F03EFF01206876002070BD10B50068B6
:10535000084988420CD10848816B102211438163AF
:10536000002201211120FEF7D9FE1120FEF7CCFE0C
:1053700010BD000000100040001002400222014653
:1053800020314A760068826801235207520F062AAC
:1053900002D002681A4302604B7600207047026810
:1053A000D36801210B43D360006882685207520F13
:1053B000062A02D002680A430260002070470000FB
:1053C00002210246203251760168086A054B1842D4
:1053D00003D1086840084000086001205076002092
:1053E00070470000111100000168CA68520852009D
:1053F000CA600068016A044A114203D10168490881
:10540000490001600020704711110000704770B51D
:105410000446006801690025C9438907002915DB96
:10542000C168C943890711D4E91E016101202076B2
:10543000206880698007204602D0FFF7E7FF04E07C
:1054400000F078F8204600F076F8257620680169AB
:10545000C943490717D4C168C943490713D4042174
:10546000C943016102202076206880698005800F91
:10547000204602D0FFF7CAFF04E000F05BF82046A8
:1054800000F059F8257620680169C943090716D448
:10549000C168C943090712D40821C9430161042026
:1054A00020762068C0698007204602D0FFF7AEFF53
:1054B00004E000F03FF8204600F03DF82576206833
:1054C0000169C943C90617D4C168C943C90613D4C1
:1054D0001021C9430161082020762068C069800539
:1054E000800F204602D0FFF791FF04E000F022F881
:1054F000204600F020F8257620680169C943C907D5
:1055000008D1C168C943C90704D1891E0161204679
:1055100000F012F820680169C943490609D4C1683E
:10552000C943490605D44021C9430161204600F022
:1055300004F870BD70477047704770470146406F70
:10554000896F0843704710B5040003D0606F0028CE
:1055500002D007E0012010BD002170200155204637
:1055600000F026F824206067206801684908490097
:105570000160204601F0E6FE0128ECD0606A0028B8
:1055800002D0204601F048FE206841680922D2027C
:1055900091434160206881682A229143816020689C
:1055A0000168012211430160204601F09BFE10BDFD
:1055B000F0B587B0064614216846FEF764F82E4918
:1055C0003068884256D12D48416B01229203114325
:1055D0004163C16A01221143C162C06A02251040C1
:1055E000059090020090042004900024052001956D
:1055F0000395029469460007FEF774FC28020090A8
:10560000042004900327052003970195029469461E
:105610000007FEF767FC1B4D1948AC60EC6081C5C4
:10562000EC6080272C61AF602020AC616861154878
:10563000083DFEF745FB002801D0FEF76BF9F56643
:10564000AE62104D0E48483514382860032068605B
:1056500029461020083191C16C61AC614002EC61B7
:1056600028622846FEF72CFB002801D0FEF752F9ED
:10567000B566AE6207B0F0BD0038014000100240D0
:1056800058000240BC040020FFB50446406F83B0C0
:1056900017460D4620285CD1002D0AD0002F08D0D7
:1056A000A168C001814207D12069002804D1E80720
:1056B00002D0012007B0F0BD204660300290007C8F
:1056C000012846D00298012101740020E0672120C2
:1056D0006067FEF7C9FC2646403601903782778224
:1056E0000120A1680003814202D12069002802D074
:1056F0002F46002511E000270FE0002280212046E0
:1057000001F034FF002815D1002F15D0216838781A
:1057100088627F1C708A401E7082708A019B0028FC
:1057200006980090E9D100224021204601F01EFF9A
:10573000002808D00320BDE728882168C005C00DD7
:105740008862AD1CE6E7202060670299002008749B
:10575000B0E70220AEE7FEE738B5049C0094FCF702
:105760004AFA002038BD10B5002805D0012803D022
:10577000022807D003280DD101F0D8FA4000FF21FC
:10578000F53104E001F0D2FA40007D210901081A48
:10579000FEF712FB002010BD0020704710B50C462C
:1057A000FCF75CFA024800782070002010BD000071
:1057B0006401002010B5FCF762FA002010BD10B59E
:1057C000072100F0DFFA10BD07220A7001490160CD
:1057D00000207047478C0008002303800B80138053
:1057E00018467047FF22F532904201D911207047C8
:1057F0000148086000207047BC0500200020704769
:1058000010B5072100F01CFB10BD000070B5054667
:10581000002001F07DFA002002F044FF02F064F95C
:10582000194C222DA06000D12425FDF78DFF012009
:105830002070A0680068C16880221140134A89184E
:10584000C16001201249000548610020606001200C
:1058500002F01CFF02F05EF901460E4869438142E6
:1058600003D942428D18014600E000250022A068BD
:10587000FFF7C8F802F04EF901462846FDF742FE50
:1058800002F0FEFE002070BD540000207FFBFFFFF1
:1058900000040140FFFF00007CB505462D4C0120AF
:1058A000607002F021F9A06002F022F9002817D000
:1058B0007D20C001684301AA694601F0D9FA684613
:1058C0008088401E82B268460088401E81B2204611
:1058D0000C3001F019FB20460C30FFF760FD36E07C
:1058E000FDF732FF01202070A0680068C1688022A7
:1058F0001140194A8918C160012018490005486102
:1059000000206060012002F0C1FE012002F0C4FE10
:1059100002F000F97D216843C900FDF709FE104936
:105920000546884203D948422E180D4600E000265D
:1059300002F0F0F801467D20C0007043FDF7E2FD63
:1059400002F09EFE00222946A068FFF75BF80020C7
:105950007CBD0000540000207FFBFFFF00040140DD
:10596000FFFF000010B502F0BFF804498860FFF7A0
:105970000CF8002002F08AFE002010BD5400002028
:1059800010B502F0B1F80B4CA06002F0B7F8002897
:1059900009D0A068FEF7F9FF002002F077FE002092
:1059A00002F07AFE03E003480C30FFF71DFD0020F3
:1059B000607010BD5400002010B501E001F04CF9FA
:1059C00002F0A2F80028F9D0002002F06BFE0020BF
:1059D00010BD000030B587B001F0A4F80021684682
:1059E00001F0FAF96D46002804D0022840D025A025
:1059F00001F0EEFDFF20F53001F0CEF823A001F01C
:105A0000E7FD28A0009901F0E3FD00242819417961
:105A100029A001F0DDFD641CA4B2082CF6D328A057
:105A200001F0D6FD274801F0D1F9049801F0B0F952
:105A300025A0049901F0CCFD069840B201F0AEF922
:105A400026A0069901F0C4FD059840B201F0B2F914
:105A500025A0059901F0BCFD002001F0B1F901205D
:105A600001F0A2F91A20C04301F08CF907B030BD53
:105A700000240821681D0094FDF705FE68460471A6
:105A8000B8E700004572726F72210A0053696766B9
:105A90006F7820694D435020485433325358200AC0
:105AA0000000000049443A20252E3858202D20506F
:105AB00041433A2000000000252E3258000000002B
:105AC0000A00000080F0FA0246726571204F666697
:105AD000736574202564200A000000004C425420A5
:105AE0002564200A000000005253534920256420F9
:105AF0000A0000008320704708B50C48016B0122A2
:105B000011430163006B01211040009000220A2024
:105B1000FEF704FB0A20FEF7F7FA002211460B20DD
:105B2000FEF7FCFA0B20FEF7EFFA08BD001002406A
:105B3000F0B587B014216846FDF7A5FD2348C16A7A
:105B400001242143C162C16A21400591C16A022535
:105B50002943C162C06AE603284005900520224619
:105B600031460007FEF77AFA270200223946184824
:105B7000FEF774FA05200194694600070096039524
:105B80000294FEF7AFF90026694611480097029685
:105B900003950194FEF7A6F9009469460C48019616
:105BA0000294FEF79FF90B48019005206946029682
:105BB00000940007FEF796F9002211460520FEF733
:105BC000ADFA0520FEF7A0FA07B0F0BD00100240C4
:105BD000000400500000211010B586B01421684662
:105BE000FDF751FD00241E491E48059412C07F2177
:105BF00001608460C4600461FF2144614160083831
:105C0000FEF79AFF002801D0FDF784FE6846047075
:105C10004470847003940122694612480494FFF78B
:105C200063F8002801D0FDF775FE0120694608756C
:105C300048758875CC75024605A90A48FEF7F2FF3B
:105C4000002801D0FDF766FE7D210022C90005482D
:105C5000FEF7D8FE002801D0FDF75CFE06B010BDAF
:105C600000280040F401002010B50E480C490160E6
:105C7000FF210531416000218160C1600161416106
:105C8000C161012201625202416282618162072187
:105C9000C162FFF7BBF8002801D0FDF73BFE10BD45
:105CA00000300140180300201CB500240E48009469
:105CB0000C49019401603F21846041600B494461BB
:105CC000C160FFF729FB002801D0FDF723FE0094F7
:105CD000694605480194FFF701FB002801D0FDF754
:105CE00019FE1CBD0010004000040020E703000066
:105CF00010B50C480A490160E121490241600021C8
:105D00008160C16001618161C1610C2201624261F7
:105D10004162FFF718FC002801D0FDF7FBFD10BD24
:105D2000003801403C040020704700008307FF2238
:105D3000DB0E9A408907090E994000280BDA00070C
:105D4000000F0838830808489B001818C36993435C
:105D50000B43C3617047830804489B001B181868F5
:105D6000904308431860704700ED00E000E400E055
:105D700010B50024FDF7D2FE002800D002242046F2
:105D800010BD0000F3B5002583B0FE20254C019521
:105D90000090A0680E4660602078012814D0F1B20F
:105DA000039A606838E06A4608216068FFF7E0FF00
:105DB000002807D16068C01B702819D060681030B7
:105DC000606002E004252AE0174F0199009808431B
:105DD000E9D10DE06068103860606068B84201D2B7
:105DE00006251CE06A4608216068FFF7C1FF0546EA
:105DF00000990198FE23FC2259405040014302D0F3
:105E0000002DE7D001E0002D02D0062DDAD106E00A
:105E1000039A6068F1B20830FFF7AAFF05462846EA
:105E200005B0F0BDB40000208000080810B50024C3
:105E3000FDF79AFE002800D00124204610BD000086
:105E4000F3B5002583B0FE201C4C019500900F4651
:105E5000A068294660602078012826D0F9B2002386
:105E6000039A6068FFF7E2FF18E06068B04217D05D
:105E70006A4608216068FFF77BFF002801D00425EF
:105E800018E001990098084303D060681030606002
:105E90000DE03A460399606801F085FD054609E08A
:105EA0000748606001F0BEFDF3E7054E80360098BC
:105EB0000843DAD1284605B0F0BD0000B400002048
:105EC0008000080870470000F1B5314884B0C2690D
:105ED00004980025C60A47052B4638463146FDF78B
:105EE0003BFB04462A48C069214601F095FB02901D
:105EF00027480391C0690021621C2B464B4129466B
:105F0000FDF75AFBC21B0298B141039B381A9E4110
:105F1000101AB14100D2641C04981F4B8000C01AB3
:105F20001B481C490022C069954105D3884201D90C
:105F3000022604E0012605E0884202D90326002556
:105F400001E0022601256A460121652001F0B7FE25
:105F500069460878FB210840A90008436946087093
:105F60006A460121652001F075FF2001000F7101D3
:105F7000084369460870200C4870200A8870CC706D
:105F80006A460421052001F065FF002005B0F0BD40
:105F9000C400002080C3C90100A493D608220A705F
:105FA000014901600020704735880008F0B5554C64
:105FB00000252746203785B00646002804D1B87C46
:105FC000002801D0257199E0A069002801D1E0697D
:105FD000A061012000F0D2FD002000F0CFFD787913
:105FE000002807D0B020694608706A4601216D205C
:105FF00001F030FFB97943488030002901D0616C4D
:1060000000E0216CC1610022E078114600F0ACFD97
:10601000206A0921890148433B49FDF789FAA169B2
:10602000081AE061E069394FB84201D23E2000E031
:106030002E20694608706A4601216C2001F00AFF93
:1060400033A0006801902078FF2803D001AA012125
:1060500001F000FF6078FF2804D001AA013201217D
:1060600001F0F8FEA078FF2804D001AA0232012135
:1060700001F0F0FE002E3AD0012E3BD0022E01D0CE
:10608000032E39D12046E469BC4200D96408C269B4
:106090002B46204D01212846FDF75EFA6321C943B6
:1060A0004018694608742246002328460121FDF75E
:1060B00053FA6321C94340186946487404AA02216F
:1060C000092001F0C7FE812069460872032E01D124
:1060D0005120087202AA0121132001F0BBFE2020EA
:1060E0006946087202AA01212E2001F0B3FE02F0D7
:1060F000FBF901E001F0F4FE00F016FE002005B00F
:10610000F0BD0000C40000201027000080C3C901BA
:1061100092522A00000074B7F8B5064615460020D2
:1061200001E0401CC0B2A842FBD3002903D00F4CB1
:10613000207B002801D03120F8BD084601F0E0FFA7
:106140000A48002720388774C660C58001F09AFE8F
:1061500000F0C2FD277201E000F07EFD207A0028E9
:10616000FAD0277227730020F8BD0000E400002059
:10617000F8B5214E0546307B002801D03120F8BD0E
:106180001D4C0127203CE078012D04D0022D02D0C7
:10619000002D0DD02EE00122114600F0E5FCA77481
:1061A00016482082284601F0ABFF01F06BFE1FE08D
:1061B0000022114600F0D8FC6A460121102001F0AF
:1061C0007EFD684600786A460107090F702001438A
:1061D000684601700121102001F03CFEE18D684607
:1061E000491C01706A4601215A2001F033FE3773C1
:1061F00000F072FD0020F8BDE4000020FF01000067
:1062000010B500F07BFD012000F0B8FC0448027BD3
:106210000021052A00D1017301728174002010BD94
:10622000E400002010B500F069FD0748002101736B
:106230002038817C002904D00022C078114600F06B
:1062400093FC002010BD0000E4000020F7B50746D5
:1062500082B000205D4C0090E56916465C4885429E
:1062600000D96D08402168468170102101706A468E
:106270000421502001F0EEFD022168460170534CCC
:106280006A46E078012101F0E5FDE0780022012175
:1062900000F06AFC2034217C03986A46411A607C35
:1062A000091A6846923101700121182001F0D2FDCF
:1062B0008021684601706A460121392001F0CAFD3B
:1062C0003846294601F0A8F97D22D2000023FDF7C7
:1062D00043F9404A0023FDF73FF90022401C514199
:1062E000FF220023FDF738F9C1B268464170012949
:1062F00002D9491E417002E00120694648703846C3
:10630000294601F089F97D22D2000023FDF724F906
:10631000304A0023FDF720F90022401C51416A4613
:106320005278521CD317FDF717F96A4610700221F4
:10633000462001F08FFD04202073012737700025CF
:10634000712001F0B1FC6A460421FA2001F0B7FC8B
:10635000257200F0B7FC01E000F07EFC207A0028F6
:1063600002D1A07A0028F7D0207A002818D0257210
:106370006A460421FA2001F0A2FC684680784006B3
:1063800002D500F0BBFC0BE068460078C00607D5DC
:1063900037706A4604215020009501F05BFD0AE049
:1063A000A07A0028CCD0A5723570012000F0E6FB61
:1063B000FFF7E6FAA57405480022C078114600F000
:1063C000D3FB2573002005B0F0BD0000C400002001
:1063D00080C3C901BA040000F7B582B000270121CB
:1063E00068460097C170202181703D466A460421AD
:1063F000502001F02FFD022168460170314E6A469F
:10640000F078012101F026FDF0780022012100F052
:10641000ABFB712001F048FC6A460421FA2001F030
:106420004EFC3446203425720220207300F04AFCD2
:1064300038E000F011FC207A002833D025726A463B
:106440000421FA2001F03BFC6846C078C00724D044
:1064500001AA0121902001F032FC68460179FF2059
:10646000029A01F02CFC174A01211432A22001F0FB
:1064700026FC142010213056615600224018039942
:1064800092380880F078114600F06EFB257304996D
:1064900001200870002005B0F0BD684680788006B5
:1064A00000D50127607A0028C3D0002FC1D100F0A9
:1064B00025FC0022F078114600F056FB2573049865
:1064C0000570E7E7C40000200022014602E00A3917
:1064D000C9B2521C0A29FAD21007000E08437047AD
:1064E00070B504460068C168490613D40021C94349
:1064F000C160FDF7B9FD7D260546F60006E0FDF713
:10650000B3FD401BB04201D9032070BD2068C068B4
:106510004006F4D5002070BD10B51BA001F0A8FB0B
:10652000FDF712F91E48FEF7EBFA1D48FEF72DFAAB
:1065300001F0CEFA00280FD001F0CAFAFFF766F991
:1065400001F0C0FA174908600868401C0860086834
:10655000C0B202F08FF810BD012002F0A3F80020B5
:1065600002F094F801F0BAFA0028F4D001F0C6FA6B
:10657000002805D0002002F08FF800F0CFFB10BDFE
:10658000012000F0C5FB10BD2A2A2A205254435F87
:1065900049525148616E646C657220494E0D00008D
:1065A000F40100209C0000200148007870470000A2
:1065B00050000020F0B585B00F46002801D001261C
:1065C00000E00026134801900125002002900320DE
:1065D000114C009503906561052069460007FDF7A1
:1065E00081FCA068002F01D0284301E04008400052
:1065F000A060002E09D00520FDF786FD002211467F
:106600000520FDF78BFD05B0F0BD0520FDF772FDFF
:10661000F9E700000000211000040140F0B5104827
:106620008BB0C16A01242143C162C06A00252040A9
:106630000527009403263F070A90019569460396B3
:1066400002953846FDF74EFC064806A9059461C13F
:106650000548446105A93846FDF744FC0BB0F0BD80
:106660000010024000002110000401400148407861
:1066700070470000A80000200148406870470000F3
:10668000A80000200149087070470000A800002001
:106690000149487070470000A8000020704770470B
:1066A0000149486070470000A800002010B5012291
:1066B00011020248FDF7D2FC10BD0000000400509A
:1066C00008B5FF21002201310648FDF7C7FC002074
:1066D00000900F2040020099491C00918142FAD39A
:1066E00008BD00000004005000B50C4887B0C26A25
:1066F00002210A43C262C06A08400590C8010090A6
:106700000120019000200290032003906946044874
:10671000FDF7E8FBFFF7CAFF07B000BD001002401D
:1067200000040050FFB581B01F46140000D13C4C5E
:106730003C4D012028700026002F11D068700122E6
:1067400011460A20FDF7EAFC0A20FDF7DDFC0022D5
:1067500001210A20FDF7E2FC0A20FDF7D5FC07E045
:106760006E700A20FDF7C6FC0A20FDF7C3FC72B666
:10677000002201210520C9030007FDF76FFC28480E
:1067800022468030019B0299FEF7E8FC002F43D19E
:10679000254B234C08338034E06C234A0068116891
:1067A000984201D1022722E01F4F1C37B84201D185
:1067B00020271CE01C4F3037B84201D1471516E0A6
:1067C000194F4437B84202D101277F030FE0164F1B
:1067D0005837B84202D101277F0408E0124F6C37C6
:1067E000B84202D101277F0501E001277F06394227
:1067F000D5D0E06CFDF70FFAA06CFDF70CFA084855
:106800008030FEF700FB0128F3D1C10305200122EF
:106810000007FDF723FC62B62E7005B0F0BD000046
:10682000980200205000002000000240F8B50C46FD
:10683000344900230B70487068460380184603E013
:10684000135C0D18AB70401CA042F9D372B6002245
:1068500001210520C9030007FDF700FC2949294A49
:10686000C81DA31C8032F930FEF778FC274C264A5D
:10687000254BE06C244E244D08321C330068303622
:106880002968904201D102271FE0984201D12027B8
:106890001BE0B04202D101277F0216E01A4F4437B5
:1068A000B84202D101277F030FE0174F5837B84293
:1068B00002D101277F0408E0134F6C37B84202D1A0
:1068C00001277F0501E001277F063942D8D0E06C1F
:1068D000FDF7A1F9A06CFDF79EF90C48FEF793FABD
:1068E0000128F4D1C103052001220007FDF7B6FB02
:1068F00062B604486946803002784A704078087071
:106900000888F8BD1802002000000240180300208B
:1069100010B5806A01684A68920892004A60416D29
:10692000102211434165012251210A54FEF76AFAEF
:1069300010BD10B5806AFEF718FB10BD10B5806A57
:10694000FEF7B2FC10BD70B50546846AFDF78CFBFE
:1069500002462868006880061CD42068416820250B
:10696000A943416020684168890889004160642129
:10697000204600F041F8002800D065650020E0873F
:10698000012151200155606D002803D02046FEF7FB
:1069900039FA70BD2046FEF7E7FA70BD70B50546BE
:1069A000846AFDF761FB02462868006880061FD4F0
:1069B000206841682025A94341606421204600F0F9
:1069C00049F8002802D0606D28436065206841685E
:1069D0008908890041600020E086E087012151207C
:1069E0000155606D002803D02046FEF70BFA70BDFC
:1069F0002046FEF747FC70BDF8B504464368FF2605
:106A0000012005368002B3420AD1A3684501AB429A
:106A100001D0834204D123681D684027BD431D6017
:106A200063682025B34210D1A36883420DD0009241
:106A30000B4600228021204600F02DF8002803D0CC
:106A4000606D284360650320F8BD00920B4600226C
:106A50000121F0E738B504464068FF2305332025BF
:106A6000984204D100920B460022802107E0512079
:106A7000005D05280DD100920B4600220121204621
:106A800000F009F8002804D0606D284360650320F9
:106A900038BD002038BDF8B51D4617460E460446E1
:106AA00009E0681C07D0FDF7DFFA0699401AA842F2
:106AB0000BD2002D09D020688168304688432ED043
:106AC0000020B842EDD10020F8BD20684168E022E6
:106AD000914341606068C11FFD390CD10121A0685C
