:020000040800F2
:1000000028100020D5000008F95C000849570008B6
:1000100000000000000000000000000000000000E0
:10002000000000000000000000000000756D0008E6
:100030000000000000000000955E0008CD6F000881
:10004000E7000008E7000008D5640008E7000008A2
:10005000E7000008E700000813350008E700000883
:10006000E7000008E700000891340008A934000800
:10007000E7000008E700000800000000E7000008B3
:10008000000000009970000800000000000000005F
:10009000E700000800000000E7000008E700000893
:1000A000E7000008E7000008E7000008E700000894
:1000B000E7000008E700000800000000E700000873
:1000C0000348854603F0E2F800480047717C0008C9
:1000D000281000200448804704480047FEE7FEE758
:1000E000FEE7FEE7FEE7FEE745700008C1000008F6
:1000F000FEB5040095480078002801D01120FEBD0F
:10010000002C01D11320FEBD01AD3B20E87101A8F8
:1001100005F04FFB01000ED1E8793B2801D01220F9
:10012000FEBD8B49742005F065FB88494A68002AAA
:1001300001D0010001D010219AE0110057311000C8
:100140006C3002F003FD06008048406803D005F0E3
:100150001CFB3000FEBD697809022A7811438184B6
:10016000E9780902AA7811430905090D5422815240
:10017000A9795A22815400200221627B022A1FD1D0
:10018000724A536803229A60B84EDE60186126698D
:100190009E62277E30269F556C4B5B681E002C3676
:1001A000009666699E4FBE4206D1FA267600009FF1
:1001B0003E6031269A5503E0009A10603126995529
:1001C0000122637B012B0ED1604B5B68A84E9E60C1
:1001D000D860186132269A556B791B022D792B4312
:1001E0005A4D6D68AB86594B5B6825681D60656824
:1001F0005D601D005635667BEE71A6681E666880E0
:1002000028705248406803006433257B012D01D1DA
:10021000642503E0022D02D19625AD001D80257BCB
:100220001D73A5683C26A04FBD4210D15E809F483B
:100230009880607B042801D144480170607B0128CC
:1002400001D0022801D1414802700020FEBD984F24
:10025000BD4204D108205880FA20C000E8E7954F3D
:10026000BD4202D15E808148E2E705F08EFA14219A
:1002700001F096FDFEBD70B500250024334E3078A8
:10028000002801D1212070BD706805F07EFA0100C0
:1002900000D020243570210001F082FD70BD3EB5F4
:1002A000069C012C01D1012500E00025002801D188
:1002B00033203EBD0D2901DB30203EBD002A03D195
:1002C000012C01D131203EBD0295019300920B001B
:1002D000020001211D48406801F04FFE3EBD1FB5E0
:1002E00002240443012B06D101206B461C73002914
:1002F00004D134200CE000206B461C730290019264
:100300000091002303AA00211048406801F035FE47
:1003100004B010BDE0B5012801DD35200EBD002878
:1003200002D10321072303E0012801D10421052381
:10033000002002900220019000200090DBB20022F9
:10034000C9B20248406801F018FE0EBDE80700205F
:10035000EC07002080B5002A06D0012A0CD0022A22
:1003600012D0052A13D015E00CA20260002901D09A
:100370000F200870002002BD05F020FA0100F9D01E
:100380005C2101F00DFD02BD05F0F0FDF6E701F086
:10039000F3F8F3E75D210020F3E7000056322E3832
:1003A0002E315F46444C5F4D4F4E000038B50C0077
:1003B000A24D2978012930D1696802688A604268B3
:1003C000CA6080680861C00509D5086E394A904244
:1003D00005D108006030344A0260344A02815D2051
:1003E000085C01280AD1080001F07BFC6968C88616
:1003F000002801D1412032BD32200C5468685D21B3
:10040000415C022907D18168002902D0C068062812
:1004100001D2402032BD02202870002032BD0000F1
:10042000E0930400F8B507000C00844E30780028F3
:1004300001D05820F2BD05F0A1FD050001D05721E3
:100440000DE0380005F028FD050004D1200005F07E
:100450006DFE050006D005F0B1FE5721280001F021
:100460009FFCF2BD032030700020F2BD8813000015
:10047000FF01000038B5714C2078032801D05A20C4
:1004800032BD05F0ADFE0025010001D0257004E06D
:1004900005F094FE0100257003D0592101F080FC85
:1004A00032BD002032BD000000EE02000852000004
:1004B000D4300000A08C0000FEB505000E0002A89C
:1004C00060A10C68046001D15320FEBD0D2A01DB40
:1004D0005220FEBD594C2078022801D05120FEBD8B
:1004E000032020700020616809186C27C95D02AFE5
:1004F0003F5CB9420ED1401C0428F4DB019300207C
:100500000090130032000121606801F0F1FD01004C
:1005100002D0FEBD5020FEBD606801F00FFD01005D
:1005200003D0542101F03CFCFEBD002D04D100217C
:10053000606802F0C1FA05002A000021606802F03C
:100540004FF8010002D1022020700020FEBD000003
:10055000F8B50D0017001E00694600BF3AA21368E7
:100560000B60364C2178022901D05620F2BD0421BF
:1005700021700021626852186C23D25C6B465B5C70
:100580009A4210D1491C0429F4DB002802D160688A
:1005900002F0DAFA012302003100280002F0E0F94B
:1005A000010002D0F2BD5520F2BD3A00290060687A
:1005B00002F0F3F902219B2800D12170020006D13C
:1005C00060686A22805A069A108021700020F2BD6D
:1005D0000021017019490A78002A06D049685D2275
:1005E0008A5C022A01D1096901700020704780B538
:1005F000694602F0ABFA02BD80B505F0D5F80100FE
:1006000003D05B2101F0CCFB02BD002002BD0B49F1
:100610000A78022A01D05E20704749685622885421
:10062000002070470649884201DBB1207047401C1A
:10063000024949685822885200207047E807002084
:10064000FF0F000098BADCFE98BADCFE0021002201
:10065000D300C318196019715971521C042AF7DDAF
:100660007047FCB502000B000020002100241D0093
:10067000E540ED071ED5E6000196534E019FF619A1
:1006800000960026F5005519B04217DB0F0015D172
:10069000009F3F682D68AF4200D10121761CF6B261
:1006A000F0E7C600009D2D6895513F78151DAF55A8
:1006B000401CC0B2641C072CD9DBF6BD434E019F21
:1006C000F7190E00EDD039782D1F2E788E4200D00C
:1006D00069700021EEE7F7B506001C003C48007881
:1006E000002801D0B220FEBD200001D1B420FEBD03
:1006F000384F3900342000F059FE050038680028D2
:100700002FD029002DD104630621314A11700670C3
:100710003868001DFFF79AFF386800212C228154A9
:100720000178001DFFF79DFF0400042005F026FC62
:10073000050007D1284A6846017A808800F040FE0B
:10074000050001D0B3210EE0244B002221003868BF
:10075000001D00F081FE050008D005F02FFD00F01F
:1007600079FEB321280001F01BFBFEBD0020FEBD79
:1007700038B5174C2078062803D0072801D0B520BB
:1007800032BD00F0D7FE050004D005F017FD00F0E3
:1007900061FE05E000F05EFE050004D005F00EFDF0
:1007A000B62128000AE005F009FD050005D1094839
:1007B000006800F003FE050003D0B62101F0F0FA56
:1007C00032BD0020207032BD24010020280100200D
:1007D000E8070020F00700200F1B0008711B00082D
:1007E000F8B58048016C80480A7802704A784270F7
:1007F0008A788270CA78C2700A7902714A79427125
:100800008A798271CA79C2710A7A02724A7A42720C
:100810008A7A8272CA7AC2720A7B02734A7B4273F4
:100820008A7B8273C97BC1731CE0F8B500226D4BD3
:10083000197C1020441A6C4809D005000F351E6C35
:1008400037782F70521C761C6D1EA242F8D10029F9
:1008500008D004001B6C9A1813782370521C641C77
:10086000491EF9D1042607001037604C6D4604225A
:10087000391F684602F0FEFBB00717D12A78687866
:100880002870A8786870E978A970EA702A78A25C64
:100890002A70205C6870605CA870E878205CE87062
:1008A00028785349B208895C4140297038001038D3
:1008B000007829784140397038000F38007869781D
:1008C0004140797038000E380078A9784140B970FD
:1008D00038000D380078E9784140F970761C3F1DEA
:1008E0002C2EC4D3F1BD10B43E49C96B3E4A000161
:1008F000101804220B7804785C400C704B78447814
:100900005C404C708B7884785C408C70CB78C47879
:100910005C40CC70001D091D521EEBD110BC70470D
:100920003048C16B0422314801E22E48C06B417847
:1009300042794270427A4271427B427241738178BD
:10094000827A827081728179827B82718173C178AF
:10095000C27BC270C27AC273C279C272C17170475F
:10096000FCB42048C06B042106786A4616714778AB
:100970003D007540C27883781C006C40544000965E
:100980006E00B446EE091B256E4365466E40664018
:10099000009D6E4006701D007D406E00B446EE095D
:1009A0001B256E4365466E4066407E4046701600CD
:1009B0005E407500F6091B277E436E4066405E4030
:1009C00086706B461B7953405D00DB091B26734321
:1009D0006B405C405440C470001D491EC4D1F3BC40
:1009E000704700005C010020F4070020508D0008D3
:1009F000508F0008F0B489B0E248C16B0420089021
:100A000008786A4690704878507188781071C87874
:100A1000D07068468078C0091B2250436A46107621
:100A2000684680784000D0766846C07E127E42409C
:100A30006846427040786A46107768464078C20936
:100A40001B235A436B46DA7540006A46D27D42400A
:100A500068464273407B6A46907668464079C00992
:100A60001B2250436A469075684640794000507595
:100A70006846407D927D4240D0091B2358436B4617
:100A8000187550001B7D434068460373007B6B461E
:100A9000587668460079C0091B2358436B46D874C2
:100AA000684600794000987468469B7C6C46E47CFC
:100AB0005C4004700478E3091B256B436D466B743E
:100AC00060006B465B7C43406846C372C57AC07861
:100AD000C0091B2358436B4618746846C078400011
:100AE000D8736846C07B1B7C4340D8091B267043E3
:100AF0006E46B0735800B67B464068468672867A6A
:100B0000F0091B2778436F467872E8091B27784362
:100B10006F4638726846407EC0091B2778436F468F
:100B2000F8716846807EC0091B2778436F46B8710C
:100B3000684680783F7F474078006F463F7E474059
:100B40006846C07D78406F46BF7E7F00474068465C
:100B5000807978406F467F7947406846407D78408D
:100B60006F46BF7D47406846407E400078406F46F4
:100B7000FF79474068460079784064004440684601
:100B8000407C60406C0044406846007A60406C469F
:100B9000E4784440700060406C46647A44400C70D5
:100BA0006846477B047BC57A867A80787F00474019
:100BB00068468079784084466846477D604647406D
:100BC0006846807D7840570047406846007D784001
:100BD000640044406846C07960406C4624794440D3
:100BE0006846807C60406C46E47C4440680060401D
:100BF0006C46247A44406846C07860405C004440BB
:100C00006846807B6040740044406846407A60409B
:100C1000487068464678407B6C46A0756846007B05
:100C200024786D466C756C46E47AAD7A6F46BF7871
:100C300076007E406F46FF7D77406E46B67D76003B
:100C40007E406F46BF7977406E4676797E404000A1
:100C500070406E46F67946406846807C70406E462D
:100C6000F67C46406846407D400070406E46767C8B
:100C70004640600070406C46247A44406846C07824
:100C800060406C46E47B44406846007C60406C00F9
:100C900044406846407A604088706846407B6C46B5
:100CA00062706A46127BE47A6D46AD7A6E46B7781A
:100CB000F67E7E406F463F7E7740400078406E462D
:100CC000B67946406846407970406E467678760040
:100CD00046406846007D7040520042406846C079F8
:100CE00050406A4612794240600050406A46127A8B
:100CF00042406846C07B50406A46127C42405800E1
:100D000050406A46927B4240680050406A46527AA0
:100D10004240CA70091D0898401E089000D06FE636
:100D200009B0F0BC70471748C16B0422BA480B7871
:100D3000C35C0B700B79C35C0B710B7AC35C0B72D9
:100D40000B7BC35C0B73491C521EF0D170470D48DE
:100D5000C06B417B427A427342794272427842715F
:100D600041708178827A827081728179827B82710E
:100D70008173C178C279C270C27AC271C27BC272F9
:100D8000C17370475C01002010B50020FFF7ABFD78
:100D90000124FFF7C5FDFFF7C8FDFFF7E1FDE0B255
:100DA000FFF7A1FD641CE0B20A28F2DBFFF7B8FDF3
:100DB000FFF7BBFD0A20FFF796FD10BD10B50A2016
:100DC000FFF791FD0924FFF7C2FFFFF7ACFFE0B288
:100DD000FFF789FDFFF70EFE641E2006F3D1FFF733
:100DE000B6FFFFF7A0FF0020FFF77DFD10BD00223A
:100DF0008B5C8354521C8B5C8354521C8B5C8354DD
:100E0000521C8B5C8354521C102AF1DB704730B4A7
:100E10000021824A526C43181C78555C65401D7055
:100E2000491C43181C78555C65401D70491C4318CB
:100E30001C78555C65401D70491C43181C78555C36
:100E400065401D70491C1029E5DB30BC7047F8B5C2
:100E500006000D0017001C003807000F009030003E
:100E6000FFF7C5FF6D48C6630464FFF7DEFC6B48FF
:100E7000407B6A49897B014301D0CA4801E0674849
:100E8000806C66494864002F1FD02C00002520008C
:100E9000FFF7BDFF0020215C3154401C215C315420
:100EA000401C215C3154401C215C3154401C1028F2
:100EB000F1DB5A48C663FFF767FF584846641034B1
:100EC00010361035BD42E2D32500009800280ED020
:100ED00029003000FFF78BFF10200099411A00987D
:100EE000301802F0E0F84D48C663FFF74DFF4B4A5B
:100EF000507B002802D01000603004E0907B002876
:100F000003D010005030102101E0D06CD17B11745F
:100F10001064F1BDF1B586B00E0014002007000F7B
:100F200004906D466846FFF762FF3C4F6846F863E1
:100F3000FFF756FCB86C7864002C25D0300005947F
:100F4000290000240022835C8B54521C835C8B5448
:100F5000521C835C8B54521C835C8B54521C102A91
:100F6000F1DB05000E00FE63FFF728FF3000FFF7FE
:100F70004EFF7D6428001030310010311034059A86
:100F80009442DFD306000D00049800280DD03100F4
:100F90002800FFF72CFF10200499411A0498281804
:100FA00002F081F8FD63FFF709FF0021387C102271
:100FB000131A6C46069A05E04D426519ED7B5554AF
:100FC000491CC9B29942F7D1002807D051186A4686
:100FD00013780B70521C491C401EF9D107B0F0BDAC
:100FE00038B584B00D000D4C21007031616420646F
:100FF000FFF7F6FB10222900684602F03BF8E56394
:10100000FFF7DCFE2800FFF702FF10226946606C44
:1010100002F030F805B030BD508E00085C010020B1
:101020000268406810180A6880184A6880188A6840
:101030008018CA6880180A6980184A6980188A6905
:101040008018C9694118C8437047F8B594B00700C3
:101050000026002502F0A8FB002800D19EE004AA8B
:10106000402104F06DFE010004AB0C2200201C782E
:1010700000195C7800199C780019DC7800191B1D98
:10108000521EF4D1002905D1002803D004ACE16B35
:10109000884202D0C248866080E00599080E012887
:1010A00002D0022839D046E068460A0C0270090ACC
:1010B000C1732021615C41702221615C8170242117
:1010C000615CC1702621615C01712821615C417104
:1010D0002A21615C81712C21615CC1712D21615CCF
:1010E00001722121615C41722B21615C817223219B
:1010F000615CC1722921615C01732521615C4173CE
:101100002721615C81732000203000210022002310
:101110004EC02100103168460BE06A460C21A14800
:1011200004F00EFE684669460C3102680A60210030
:101130001031FFF755FF04A8007905903871984EDB
:101140000498B060049838602000083006C806C6CD
:10115000083E082221000831781D01F08BFF10980D
:101160003861606B40B27861A06BB86128213000B3
:10117000143001F098FF20001030310024319CC859
:101180009CC130001430B064300024303064300032
:101190002430F06410203074F07300E00125280042
:1011A00015B0F0BDCC010020F8B594B007000E00DA
:1011B00015006A460421F820400002F0AFF90CAA9D
:1011C0002021080102F0AAF901AA0821062002F054
:1011D000A5F90CA901A8FFF723FF714C0C99A16098
:1011E000002906D00022D243914202D0009A9042B8
:1011F00003D00020A060012073E003970CA8021D1B
:1012000088CA88C4083C039A1160217831706178DB
:101210007170A178B170E178F170217931716179E3
:101220007171A179B171E179F171017B0907090F40
:1012300000D101212970A1680491059106910791BF
:10124000089108AA01AB151DC0CBC0C5CB430B93B9
:10125000D17B037B872B01DA0B4300E00B40D37378
:10126000117B437B192B01DA0B4300E00B40137316
:1012700004A90A7A837B802B01DA134300E0134030
:101280000B72CA7AC37B802B01DA1A4300E01A4042
:10129000CA721907090F022901DA022102E00E2998
:1012A00000DB0D21217404A9A16408A92164102286
:1012B0000100103120002430FFF72CFE20001430F4
:1012C00000210022002300252EC020001430A0643D
:1012D000200024302064207CE07320002430E0646F
:1012E000002015B0F0BD38B52D4C246C002C01D178
:1012F000012032BD049D002D00D12300FFF7A7FD82
:10130000002032BD2649002804D010200A005032A7
:10131000012302E0C87BCA6C00238B730A64087443
:10132000002070471E49002804D010200A006032B7
:10133000012302E0C87BCA6C00234B730A64087463
:1013400000207047164908730020704714490A7B33
:10135000002A02D01449016007E00A7A02704A7A32
:1013600042708A7A8270C97AC170002070470C4935
:101370000A6C002A01D1012070470A7802704A786D
:1013800042708A788270CA78C2700A7902714A798A
:1013900042718A798271C979C17100207047000059
:1013A0005C0100205000F81F98BADCFE652801DBC4
:1013B0008020704766480860002070470020704712
:1013C000F8B50400150000260096624F08000CD105
:1013D000200001F0EEFE8D21C90501F06FFE5E498F
:1013E00001F0A9FE01F0ECFE24E02000012901D16A
:1013F00080031FE002290CD15849884206D3491EB8
:1014000001F0A6FD3861200055490CE0F0210903E8
:101410000FE003290FD1492809D3482101F098FD95
:1014200038612000482101F093FD009103E0E121A3
:1014300089044843386100987861BE60FE600120ED
:1014400038773E603D6301220121032005F026FB31
:101450000020F2BD80B573E0FBB5694609790091C3
:10146000072901DB8420FEBD002400233D4D0BE055
:10147000D90046586E50061D765C2F1D7E54461DC1
:10148000765C6F1D7E545B1C00998B42F0DB0090F4
:1014900002993548AC239B00C618316133490A7064
:1014A000C721C943B180B4713473A22189004718A0
:1014B0001AA078601CA0B860102038807470B470D6
:1014C0000020285804F0E8FC684600792749487055
:1014D000747027482979415C009A5279805C0843EE
:1014E000786222480078002806D134709420800069
:1014F0003861F4704B2004E0012030700220F0705D
:10150000782005F09FFB00F011FA01220121032051
:1015100005F0C4FA05F0A4FB0020FEBDA000000009
:1015200076000000690000001500000015000000B2
:101530001500000080B505F0AFFB01200D490870D3
:1015400000220021032005F0A9FA002002BD0000BE
:10155000A00B0020380B002000007A44121100007C
:1015600011110000700B0020A40800206C0B00205B
:10157000E0180008540B002007220A7001A1016046
:101580000020704776312E312E300000F0B5ADB01E
:1015900000220021032005F081FAC724E443CE484D
:1015A000007800280AD105F077FB05F00BFB04005A
:1015B00005F025FB089001220DA906E005F01FFBB0
:1015C000089000220DA9801EC0B205F00BFB01227D
:1015D0000121032005F062FAC0480390BE4800785C
:1015E000002808D103980079BB494978491E8842F0
:1015F00001DA00F077F905F033FBC7480290407834
:10160000012804D103980079401C03990871C3484C
:1016100002990978C9004018C1490191B0A1027925
:101620008A5C4079085C104301994862AA480078B6
:10163000002801D100F07AF9002007900125D3E0BD
:10164000401E0B902600C8360C98002809D0B068C0
:10165000B449C95D059A891A491E01228A4002438C
:10166000B260B048C05D6946487001204978884042
:10167000401EB9000991AC49099A8A58059913008E
:10168000CB40944669464A780599511A62468A4089
:101690001A430240049204994A006B465B785B1E31
:1016A000D940114308400690F06880002158049A00
:1016B00006981043484000F0E5F905994900611883
:1016C00005914822895A081A059988527168049A26
:1016D00006981043484000F0D5F905994822895AE8
:1016E000081805998852F06880002158049808402D
:1016F00000F0C8F90599883106910988081A0699F9
:10170000088071680498084000F0BCF906990988BF
:101710000818069908800198406809994058059969
:101720004822895A88422FD30198806809994058E5
:1017300006990988814206D20B99490061188822CE
:10174000895A814220D302984078022801D1012091
:1017500000E00020390000D00121C9B2014368D166
:10176000029845700398076000200199C8600298AC
:101770000221405E0A99884206DA084602994880AA
:101780000298007802990871069800883080206CD1
:10179000401C206469464978491E814214DA706809
:1017A000F16889006050B0687060606CF060002083
:1017B000B0602064616C491C6164019A0023D25EB0
:1017C000521E8A4200DA60647F1C032F20DB0A9CD1
:1017D00068460078401C694608706846007808280A
:1017E00009DB0798401C07900798089988422BDA74
:1017F0000020694608700DA80799415C07206A46D9
:101800001278801AC140C807C00F00270A940C90B4
:101810000198406AF8402840D6D0A548D82179439D
:101820004418206C0590002802D100BFAAA0C05D1A
:1018300006E705F031FA05F0C5F902007F1CF9B2A0
:101840003648029B1B7817E00398007922494978B3
:10185000491E884216D102984078012812D10220F0
:101860000299487002980221425E03980168491C5F
:10187000C9B22A48029B1B79DB00C058039B9B68B6
:10188000984726E0019840698A49884208D3002099
:101890000199486101988069401C0199886103E0C1
:1018A000C943401801994861019880690199096A02
:1018B00088420ED10198C069401E01994969884249
:1018C00007D2002001994861019908620398C06815
:1018D00080472DB0F0BD00006C0B00205C0B002099
:1018E0000001020410B57448407874490A78441E17
:1018F000A24201DA521C00E000220A700A78002A93
:1019000001D1401E00E0501E48700448D1004058EC
:1019100004F0C2FA10BD0000560B0020700B00202E
:101920002C0B0020D81A0008CC1A0008F0B587B09C
:10193000002001905E4F00BF67A00199405C69469E
:1019400008706846007804900198D82148433818F8
:1019500002900498401E02990864A2208000381862
:1019600003900021405E401E02994864002008E078
:1019700001216A4612789140491E029A8300D15093
:10198000401C03990022895E8842F1DB002400BFDD
:1019900051A00199405C694608700120097888408F
:1019A000401E069049A00199890040580590019871
:1019B000D82148433818029031E00599E140059854
:1019C0006A461278121B90400843069D0540029813
:1019D000016868006A461278521E2B00D340034308
:1019E000069818402843484000F04CF802996200DD
:1019F0008E18A2218900791803910022895E48433C
:101A000048217052029800680540280000F03AF81A
:101A100003990022895E484388217052641C04980F
:101A20008442CADB0199D822514379180023482502
:101A300005E042008A18535388241353401C202881
:101A4000F7D30198D821484338180100C831026CF7
:101A5000520082188623D25A0A80426C9200825821
:101A60008A60426C92008218121F12684A60406CB1
:101A7000401EC8600198401C0190032800DA5AE714
:101A800007B0F0BD41100E4A0A40801A0D490A0005
:101A90000240801001405018011141180A480840C6
:101AA000010A40180100001408188006800E7047D3
:101AB000A4080020A7FDFFFF6C0B0020550B0020A1
:101AC00055555555333333330F0F0F0F00800080BA
:101AD0000010000200042000201A160070B5030058
:101AE00000240020744DE600AD192E689E4207D1F7
:101AF0002E798E4204D16D79954201D10120A0400A
:101B0000641C072C01DA0506ECD0C0B270BD38B5F4
:101B10006A4C2078062803D0072801D0B72032BDB0
:101B2000FFF708FD050004D004F048FBFFF792FC26
:101B300005E0FFF78FFC050004D004F03FFBB8215F
:101B400028000FE004F03AFB05000AD15C4D0021AB
:101B500000202A68126B90472868FFF72FFC0500C9
:101B600003D0B82100F01CF932BD0020207032BD36
:101B7000F5B581B00C0000270026504800780628F3
:101B800003D0072801D0B920FEBD019A00204C499E
:101B900009680192C2000B1D9B58019DAB4208D001
:101BA000401C0428F6DD04F009FBFFF753FCBC20C1
:101BB000FEBD8818017AA1420AD1FFF7BBFC0500DF
:101BC00051D1FFF747FC05000BD004F0F7FA4EE0C7
:101BD000407AA042F1D004F0F1FAFFF73BFCBB20C1
:101BE000FEBD36480078062844D1072033490870E6
:101BF000344A0021C8204000FFF7E2FB050002D074
:101C000004F0DCFA33E02E480068001DFEF71EFDEC
:101C10002B4805682849684604700020C2008B18CC
:101C20001C68019FBC420FD10C1DA25C6C4624783D
:101C3000A24209D12A78C240D20705D56F605A79ED
:101C4000F6B2AB191A72761C401C0728E6DB684610
:101C500004782C202C541C4B01220121281DFFF755
:101C6000FBFB050026D004F0A9FAFFF7F3FBBA212D
:101C700028001AE007281DD104F0A0FA050013D1AE
:101C80000F48056822002C20295C0198FFF726FFE9
:101C90002C22AF54029909B22A6B90470848006879
:101CA000FFF78CFB050003D0BA2100F079F8FEBDE8
:101CB000024807700020FEBD24010020E807002034
:101CC000F00700200F1B0008711B00080100C878F6
:101CD000020288780243487800020978084350409D
:101CE000704720B5030000220020002185005D1907
:101CF000AD68CD40ED0700D5521C491C2029F5DB0D
:101D0000401C0328F1DB0620424390B220BDB0B551
:101D1000040000250027481E062101F019F9401C87
:101D2000C0B20022874216D00023390081420ED073
:101D30009700E719BF68DF40FF0705D5491CC9B206
:101D4000884201D15501ED185B1C202BEEDB0F0002
:101D5000521C032AE6DBE8B2B0BDF0B50C0005006A
:101D60006035AE88006E310001F0DCF8070028898C
:101D7000310001F0EDF8381AE9886143401A80B269
:101D8000F0BD30B502000C0015006435A888642150
:101D9000515A01F0DDF869884C43001980B230BD1A
:101DA0000202C8B210437047F4B582B004005D204F
:101DB000205C491C0091554F042801D0022847D1CE
:101DC000A08C002802D0791C884205DB20006C30F2
:101DD000FFF77CFF3840A0846846007A01281BD1B9
:101DE00001212000FFF7B9FF050001212000FFF7C6
:101DF000C8FF01232A000100A08C01F019F8A0847B
:101E00002083A08C6621615A40186083A08C6621D3
:101E1000615A401AA0831BE00025260000213000F3
:101E2000FFF79BFF040000213000FFF7AAFF01230A
:101E300022000100B08C00F0FBFFB08431001831AB
:101E40006A0088526D1CEDB200988542E6DB3400D2
:101E50005D20205C012858D1A08E002802D0791C7A
:101E6000884205DB20006C30FFF730FF0740A78673
:101E7000A08C002801D0802806DB20006C30FFF702
:101E800025FF4006400EA0846846007A01281ED136
:101E90000123E28E521D92B20821A08E00F0C8FFED
:101EA000A086002326220421A08C00F0C1FFA0847C
:101EB000A08E2087A08E401C6087A08E401EA08729
:101EC000A08C2083A08C6083A08CA083F7BD00250C
:101ED0000123E28E921D92B20721A08E00F0A8FF8E
:101EE000A086002326220421A08C00F0A1FFA0845C
:101EF0006800A18E22181187A18C2200183211527D
:101F00006D1CEDB200988542E2DBF7BDFF070000D3
:101F1000026849004118098B6423C35A5943511878
:101F2000036E5B08C91A914201D3012101E000212F
:101F3000C943826AC06A41435018704700B583B0F4
:101F40006946828C0A70828C120A4A7002005432EE
:101F5000537A012B04D1838E0B71838E1B0A4B7134
:101F60005423C35A8B705423C05A000AC870907906
:101F70008871684603F04CFC0EBDF2B586B00500D2
:101F80000027039700260EA800780490012800D1AE
:101F90000126CB480078022801D06020A5E003206C
:101FA000C74908705B216F5402240D9800286946C8
:101FB00001D10F7200E00C7201966846007A009021
:101FC0006846017E280000F093F80100E6D1280061
:101FD000FFF7B4FF002802D00102612070E0280062
:101FE0005B308078022805D1E86803902869FF21DA
:101FF00088432861039B9BB26846027A0EA8017849
:10200000280000F04CFB01003ED1002E41D00420FE
:10201000AB4908700EA802780C99280000F07BFCF0
:10202000010001D09B2830E00498012831D1032021
:10203000A3490870022003F08FFB002802D00102A0
:1020400064203DE001900090082300220221280036
:1020500000F04EF8010048D12800FFF76FFF00287C
:1020600002D0010262202BE028005B308078022839
:1020700001D194480390039B9BB2002200212800C9
:1020800000F00DFB010004D07E282ED18C490C708D
:102090002BE05B20285C012824D15B202F54019782
:1020A0000097052300220421280000F021F80100F8
:1020B0001BD12800FFF742FF002803D00102632054
:1020C000084312E028005B308078022801D1E868DC
:1020D0000390039B9BB202220021280000F0DFFA4C
:1020E000010002D176480470002007B0F0BD000066
:1020F00070B582B004000D00079E009600F0F2F863
:1021000001003AD1022D05DB6F48E0836230208464
:102110006E482BE05C20215C18A0102912DA4900DF
:1021200041181C390988E1835C21615C4900411830
:102130001039098821845C21615C49004018001F26
:10214000008813E00A3989104900415AE1835C2173
:10215000615C0A39891049004118898921845C2110
:10216000615C0A39891049004018008B6084320094
:1021700006992000FFF718FE002076BD6BA08DA009
:102180005FA311A64CA967AFE0A6D2A098A5BFA6F1
:1021900071A9C9AF34A002A3A3A52CA797A9BEB16A
:1021A000F7B58EB01F004A4800685621405C0128F0
:1021B00001D1012600E00026189D179C0B21681D07
:1021C00000F071FFE078C0012871A078C001E178CB
:1021D00049080143E9706078C001A17849080143CA
:1021E000A9702078C001617849080143697020789E
:1021F0004008802101432970009600BF35A31022BA
:10220000290001A803F0A1FA010056D101A8017B21
:10221000FE220A400273169909094173199A002A8D
:1022200002D110220A434273169909013A05120F8E
:102230000A438273C773E078C0012871A078C00197
:10224000E17849080143E9706078C001A178490844
:102250000143A9702078C001617849080143697081
:1022600020784008287000961AA31022290009A897
:1022700003F06BFA010020D10120009009AB10227D
:1022800001A905A803F061FA010016D110A803788E
:102290000F9A0E9900200E910F9210A90B7007E073
:1022A00005A9095C0F9A125C4A400E990A54401C19
:1022B00010A909788842F3DB002011B0F0BD0000BE
:1022C000E8070020280A000067AF0000BEB1000048
:1022D000EC07002000112233445566778899AABB89
:1022E000CCDDEEFFF6B595B004001D000227069781
:1022F0005420205A401C54216052B84908405422AE
:10230000A05215AA127800925722A25C012A19D174
:10231000002804D15A20205C401C5A22A054009866
:1023200004280FD05420205A084209D05821615A5D
:10233000002907D000F00CFE4E1EB641F60F02E059
:10234000012600E00026280005D116980078C10774
:10235000C90F0F4310E0012D01D100270CE0681ECA
:1023600003214210920F121892109200801A0F1A35
:10237000FFB2B81CC0B20690B90127003E3715A8BD
:102380000078002812D0022840D003D304286DD052
:1023900011D394E0002005E0169A125C831DDBB295
:1023A000FA54401CA842F7DB397088E01698007890
:1023B0008001387083E0397004AA921C05A905A831
:1023C000801C03F003FA002802D001029220D2E020
:1023D0000820442160546846C08A452160546846FC
:1023E000C08A000A462160546846808A47216054AA
:1023F0006846808A000A48216054049800144921E4
:1024000060540498001400124A2157E0397004AA5D
:10241000921C05A905A8801C03F0D8F9002802D059
:1024200001029320A7E00920442160546846C08A35
:10243000452160546846C08A000A462160546846B7
:10244000808A472160546846808A000A4821605487
:1024500004980014492160540498001400124A2181
:1024600060546A20205A64304B2127E0397004AA56
:10247000921C05A905A8801C03F0A8F9002802D029
:102480000102952077E00A20442160546846C08A02
:10249000C82100F05DFD452160546846808AC8214E
:1024A00000F056FD46216054049800140A2100F003
:1024B0004FFD472160545A20205C482160543E2043
:1024C000215C1C98400120221040084338705421A0
:1024D000615A0905090F014339705420205A3F21E0
:1024E00060540020402321186C228A5CCA54401C8E
:1024F0000428F8DB5720205C012831D100980428FB
:102500002ED0280014D00120039007A802902000AC
:102510006C3001905A20205C00905420235A2A00ED
:102520002100443120004430FFF73AFE002820D13A
:1025300007A95A20205C087000203A5C0B185A70DA
:10254000401CC0B2AA1D9042F7DB04ABEA1DD2B218
:102550000CA800F031FC00280FD0010296200AE000
:1025600004ABAA1DD2B239000CA800F025FC00284B
:1025700003D00102912008432EE000200BE029182F
:10258000891DC9B20CAA6B461B7C1B18D218103AC5
:1025900012787A54401C06998842F0DB6D1869461F
:1025A000A81D0870684600785C216054615C3800A2
:1025B00000F0DEFA010A6A461278B954ED1DEDB258
:1025C00078555C20205C801D5C2160545B20205C81
:1025D00006435B202654002017B0F0BDFF0F00001B
:1025E000F2B588B004001700002003F0C7FC97255F
:1025F00000282DD1380003F04FFC060020D1AA217D
:1026000068460170417008A9097849006118CA8BB1
:10261000120A8270C98BC17008A90B785C21615CB9
:102620000A1FD2B2011D20003E3000F033FC5C20B6
:10263000225C7020215C684603F052FD060003D046
:1026400003F0BCFD300204E003F0B8FD060003D047
:1026500000020543280000E0002009B0F0BDF8B5F5
:102660000400080017001D0003F088FC060015D1C7
:10267000380003F011FC060007D12A003020215653
:10268000052003F0C1FD060003D003F097FD3000E4
:10269000F2BD03F093FD060000D10020F2BDF2B5BB
:1026A00086B01F0000260025019603966946097E24
:1026B000012900D1039169468A7004005D20205CE5
:1026C000012811D14E703220205C012811D1002A3E
:1026D0000FD0039800280CD00A2003F09FF80028A0
:1026E00032D0010270200BE16846039901224A4072
:1026F000427038004BD05D20205C022847D1380062
:1027000003F0D2F800281CD100212000FFF700FCC4
:102710006B4602003120215C2000FFF7A0FF00285B
:1027200019D168460078002818D1A068401E85425B
:102730001CD2032003F010F8002817D001027920E2
:10274000DEE001027720DBE003F03EF90028D0D084
:1027500001027120D4E001027620D1E068460078C1
:10276000012803D103F014F900283FD16D1CEDB20C
:10277000A1688D4203D2694609780129BFD1216938
:102780004A07520FC9084819C000101820615D207F
:10279000205C022804D168460078012800D0B1E00E
:1027A0000027684680780290401C0490002529008C
:1027B000200000F081F9020029002000FFF710FF3F
:1027C000010000D0A5E05D20205C022802D1206934
:1027D000401C2061002D2AD15D20205C6946097EC5
:1027E00001290ED1022804D1132003E00102782030
:1027F00086E0142003F012F8002818D0010275209A
:102800007EE0012813D13220205C01280FD1E08E18
:10281000049900F09DFB0100142000F083FB80B2BE
:102820000028019003D002F0F9FF002833D15D2089
:10283000205C02280AD10298854207DA002D05D1D2
:10284000FA20400103F030F8002827D1684640788C
:1028500002F082FF002824D16E1C5D20205C02283B
:1028600030D1029885422DDAF1B22000FFF750FBFB
:102870006B4602003120215C2000FFF7F0FE0028AB
:1028800012D168460078002814D103F081F800289E
:102890000DD1012716E00102722031E001027B20F8
:1028A0002EE0010274202BE001027A2028E00102D0
:1028B0007C2025E00298401E854203D103F068F891
:1028C00000281BD1F5B20498854202DA380000D105
:1028D0006DE75D20205C01281AD13220205C0128A0
:1028E00016D10198000413D00398002810D103F0EA
:1028F0006BF800280CD00102732001E001027D205A
:10290000084306E068460078002801D17E2000E0F8
:10291000002007B0F0BD70B504000D001600012EB8
:1029200007D103F051F8002803D001029820084392
:1029300070BD62695D20205C022801D1222100E087
:1029400019213300012000F00BF8010007D12A0003
:102950000121200000F021F8010000D1002070BD0D
:10296000F8B50F001400012003F008FBE026002852
:1029700001D000020CE0200003F08EFA050004D123
:10298000380002F04BFF050005D003F017FC2802C9
:1029900006433000F2BD0020F2BDF3B591B0170040
:1029A00000240694002605940025119854300890C0
:1029B00004AA11996A3109A803F0ECFC0790684653
:1029C000007C01284BD112A80078012831D104AB3A
:1029D0005B1C11985421425A01466C3109A800F041
:1029E00001F9069000283AD16846407C012833D18D
:1029F0000898C078012813D103940DA8029011986B
:102A00006C30019008988079009011985421435AB5
:102A1000082209A8011D3800FFF7C2FB05001EE0CF
:102A2000002109A8001D405C7854491C082916DAC9
:102A3000F7E7012000217A5C09AB5B5C9A4200D089
:102A40000020491C0F29F6DB08991622895E02F046
:102A5000DDFE0590002802D107980028A8D003F0D9
:102A6000ADFB04006846007C002802D002F082FF23
:102A700006009A20069900290DD1079900290AD14C
:102A8000002C01D021020CE0310001D0310208E01D
:102A90000599002902D00906090C02E0290002D09C
:102AA0002902084306E06846007C002801D19B20EB
:102AB00000E0002013B0F0BDF8B504000D000020C8
:102AC00000216A00A21800925D22A25C26006036F6
:102AD000042A01D0022A08D10098018BB088414312
:102AE00020684018236E5B08C01A012A1FD1009885
:102AF000008F811F89B22000FFF709F9070036898E
:102B00000098008F401E062100F00CFA0C4841434B
:102B100070180099098B962292004A438118206808
:102B20004018084A5743C019226E5208801A002DD7
:102B300005D162685118226E5208891A6161F2BD8E
:102B4000A8610000E09304004069704710B50C00D4
:102B500002F01EFE002803D001029920084310BD98
:102B60002078012801D000202070002010BD000036
:102B700030B502000023002010E0A0B20BE00400FA
:102B8000DBB2D05C00026040082544000004F4D5AC
:102B90000648604080B26D1EF7D15B1CDCB28C42EF
:102BA000EDD303494140080030BD00002110000072
:102BB000FFFF000030B50200002300200EE0E0B26D
:102BC00009E0DBB2D45C6040082544000006F6D57D
:102BD0002F206040C0B26D1EF7D15B1CDCB28C426E
:102BE000EFD330BDFEB58AB00500002018706846EE
:102BF000828D0A99280000F066F800200124002147
:102C0000002200BF64A39F5CAB5CC34001261E4052
:102C100077434F40F9B2521C0E2AF2DD62A2515C9A
:102C200069180A780123834053400B70401C082820
:102C3000E5DB0A21281DFFF7BDFFA97B81423FD1BB
:102C400001AE0A98007830700A98407870700A983F
:102C50008078B0700A98C078F0706846808D3071C6
:102C60006846808D000A70710020291D095C3218A9
:102C70009171401C0828F8DB0A980078B0730A9814
:102C80004078F073384800685621405C012800D035
:102C900000200090354B102201A901A802F055FD3B
:102CA00001000ED1287B3178884206D1687B71788B
:102CB000884202D10C98047002E000200C99087040
:102CC00000200DB0F0BDF8B50300294C0D78487810
:102CD000000228435043204000D120000024002659
:102CE000009300F047F8721C009989190B780700CF
:102CF000D7405F400F700099491C89190F78012354
:102D000093405B1E03409C4607239A1B63469340F7
:102D10007B400B70761C082EE3DB009900260091A7
:102D200000F028F8721C009989194B7A0700D740E7
:102D30005F404F728F7A012393405B1E03409C4695
:102D400007239A1B634693407B408B72761C052EAB
:102D5000E6DB009D00F00EF8A97B761CF0404840B1
:102D6000A873EC73F1BD0000EC070020D42200082A
:102D7000FF0100000822212303404108202B01D03D
:102D8000012B02D18020400000E000200843521EA9
:102D9000F1D180B2704700000102040803060C0B59
:102DA000050A070E0F0D09000F0001040208050AAD
:102DB000030E0907060D0B0C79B582B01E00002327
:102DC0000020112A01DB202400E0102434700025AB
:102DD000144C0191009600990978EEB28E4218D2F7
:102DE0000199095CEDB26155511E884202D0401C28
:102DF000C0B200E000206D1CEDE7029800930A4B82
:102E00000A00210002F0A1FC010000D1002004B062
:102E100070BD064800685622805C0128EDD1012370
:102E2000EBE700BF040C0020D4220008EC070020D0
:102E3000F8B505000C001600012B03D10820144939
:102E40000A2202E005207F2106222B006D466C80BD
:102E50006C462680002B00D10B001E001641012578
:102E600035401F00074101263E405B041B0C6E40AD
:102E700002D01D0001232B430B406C4624889C424A
:102E8000E8DB6C466488A342E4DB1800F2BD00BFB7
:102E9000FF070000F6B583B006001F000024002ADB
:102EA00003D01146039800F0FEF8330000222AE018
:102EB0001E0066432E43009C267000BF15A4615C73
:102EC0001CE003998918009101932100802300BF21
:102ED00011A4BD006419645C009D2D78019EB65C50
:102EE0001E42E5D0641EA441E40F1E0066432E433B
:102EF000009C267007A4615C891CC9B25B08E6D1FE
:102F0000019B0C00521C6946097C8A42D9DB05B042
:102F1000F0BD000000000101000000000001010000
:102F20000001000130B50B4601460020202201249B
:102F300009E00D46D5409D4205D31D469540491BED
:102F40002546954040191546521E002DF1DC30BD36
:102F500070B500242546002801DA012440420029EA
:102F600001DA01254942FFF7DDFFAC4200D04042C3
:102F7000002C00D0494270BDF0B51FB406460020B9
:102F800082B005464024019100901BE00199224641
:102F90000F46304600F05DF8049A059B801A99416F
:102FA00010D310461946224600F01EF9361A8F41FA
:102FB0000197224601200021009F00F015F93818E2
:102FC0004D4100902046641E0028DFDC019B0098E4
:102FD0002946324607B0F0BDF0B51FB486B00020D8
:102FE0000090019002900698069980B2049007988C
:102FF000090C02040014114307900027089D09984A
:1030000006913E463C4603900398A9B20204000C88
:10301000039004982D0C154348430021224600F0EC
:10302000E3F8C719714110340E46402CECDB3846EA
:10303000029A00F0D9F8009A019B8018009059413B
:1030400002980191103002904028CCDB00980BB020
:10305000F0BD10B5202A04DB0846203AD0400021FC
:1030600010BD0B46D340D0402024A21A9140084303
:10307000194610BD03460B439B0703D009E008C95E
:10308000121F08C0042AFAD203E00B780370401C18
:10309000491C521EF9D27047D2B201E00270401CA6
:1030A000491EFBD270470022F6E710B513460A46C8
:1030B00004461946FFF7F0FF204610BD024670B5E2
:1030C0004A40D30FDB0740002DD04A002AD0010E22
:1030D000140E000212020919400A520A8418E5016E
:1030E00004465443000A120A2E045043A4194219FC
:1030F000200CC543AA18120C0125AD03521C52190D
:1031000012047F39240400D0521C104301D4400023
:10311000491EC2B20C06C0092018401C4008802A73
:1031200002D003E0002070BD40084000002900DA12
:103130000020184370BD70B502464A40D50F4000CC
:103140004A00ED0740085208002814D0002A12D087
:10315000C40DD30D41020120C0055202490A520A92
:10316000E41A091812187D34914201D3641C00E05E
:103170004900002C01DA002070BD0023914201D3E8
:10318000891A0343400849000028F7D100290AD0D2
:10319000914202D10121C90705E0914201D20121EA
:1031A00001E00121C943E005C018401900F02CF8E6
:1031B00070BD10B500229623114600F02DF810BD09
:1031C000410040020122400AD205090E80187F29E1
:1031D00001DA00207047962903DC9622511AC84074
:1031E000704796398840704710B5202A04DB0146A5
:1031F000203A9140002010BD914020239C1A0346A4
:10320000E3401943904010BD002904DA401C4900F6
:1032100001D140084000704770B40024050C05D16E
:103220001024000402D1002921D01124050E01D15F
:1032300000020834050F01D10001241D850F01D1C2
:103240008000A41C002801DB4000641C002908D079
:1032500020252E1B0D46F540A14000D00121294319
:10326000084301061B1B000ADB1D02D5002070BCB1
:103270007047DB05181880180029F8DA401C49004F
:10328000F5D170BC4008400070470000064C012595
:10329000064E05E0E36807CC2B430C3C98471034FE
:1032A000B442F7D3FCF710FF50900008709000086C
:1032B00070B58C180578401C6B075B0F01D1037843
:1032C000401C2A1106D10278401C03E006780E70DB
:1032D000401C491C5B1EF9D12B0705D40023521E4C
:1032E0000DD40B70491CFAE70378401CCB1A921CD2
:1032F00003E01D780D70491C5B1C521EF9D5A142DC
:10330000D8D3002070BD70B50446006881684907B5
:1033100020D5816810264907002905DA81688907C8
:1033200002D481683143816000F062FE05460DE001
:1033300000F05EFE401B0A2808D9606D30436065CE
:10334000A06D01210843A065084670BD2068806813
:103350004007EDD4002070BD38B504460648054945
:103360000068FFF7DFFD604300E0401E009000288A
:10337000FBD138BD40420F0064000020F8B5044680
:10338000006881688907890F012925D10168C9076B
:1033900022D08168052211401025012601290FD174
:1033A000816802221143816021680320086000F0D7
:1033B0001FFE07460CE000F01BFEC01B0A2807D9C1
:1033C000606D28436065A06D3043A0650120F8BDA5
:1033D00020688068C007EED10020F8BDF8B504462B
:1033E000006881688907890F012902D10168C9072E
:1033F00022D18168114A10261140012500290ED1E1
:103400008168294381600120FFF7A6FF00F0F0FDED
:1034100007460CE000F0ECFDC01B0A2807D9606DE0
:1034200030436065A06D2843A0650120F8BD206889
:103430000068C043C007EDD10020F8BD1700008030
:1034400000B597B000F032FE0C20009000200A90EA
:10345000012102900591684601F018F820200E9095
:1034600000030F900EA800F043FE084801690122F6
:1034700092041143016100220121022000F012FE9A
:10348000022000F005FE17B000BD00004010024011
:1034900010B5034800F083FB024800F080FB10BD2C
:1034A00000040020B803002010B5034800F077FBAB
:1034B000024800F074FB10BD880500204005002084
:1034C00030B5446C1C252C400125A540046C65607A
:1034D000046863608368102B036803D099600068F8
:1034E000C26030BD9A600068C16030BD10B504464E
:1034F00000F07CFC002808D1204600F02FFC0028BA
:1035000003D100F03FFC002801D000F089FC00202E
:1035100010BD10B5042000F09DFC10BD00207047C8
:103520007047000008B504A0006800906A460321B7
:10353000002003F02DF908BD92522A00F8B5074685
:10354000FFF7F0FFA225114C002F06D09A26012F7D
:1035500007D0022F0AD0032F14D025706570A570F4
:103560000AE00BA003F0DEFF26700CE008A003F0D9
:10357000D9FF26706670A670044A0321002003F06C
:1035800007F9F8BD25706570F5E7000068000020B8
:1035900054580A0010B5214A00219069C3052048FB
:1035A00004D54169022319434161911593699B0533
:1035B00005D5436901242343436163021943936999
:1035C0005B0505D54369082423434361E30119439F
:1035D00093691B0505D543690424234343616302B2
:1035E000194393699B0405D5436910242343436120
:1035F0006302194393699B0304D5446920231C4348
:10360000446119439369DB0305D54369402423438F
:103610004361A0020143916110BD000000200240FF
:10362000D007002070B5054600F0E2FC0646184CB5
:103630000AE0681C08D0002D04D000F0D9FC801BE3
:10364000A84201D9032070BDA069C007F1D1A069CB
:10365000800701D50220A061A069C00511D4A0692E
:1036600080050ED4A06940050BD4A069000508D4DC
:10367000A069800405D4A069800302D4A069C003B6
:1036800003D5FFF787FF012070BD002070BD00004B
:103690000020024070B50C46054600F0A7FB00284C
:1036A0000BD1084A946021C2284600F057FB00283D
:1036B00003D100F067FB002801D000F0B1FB00202F
:1036C00070BD0000C4070020F7B5002582B0164683
:1036D0000F46002A01D0002417E0012517E0A008BA
:1036E0008000211A0A06029908580090520DFF2006
:1036F0000006009BD04018400021182301919A1A1F
:10370000FFF7A7FC3055641CE4B2BC42E7D328465F
:1037100005B0F0BDFFB581B01C460F460025084638
:1037200000F048F8202800D902250398002800D18D
:103730000125002C07D0384600F03CF801460198DE
:10374000FFF7A8FF0546002D2BD1002600F04EFB09
:103750000024781E009020E0A0088000211A8446F2
:103760000398C9B2005DCB001822D21A90400643DC
:103770000098844201D003290DD101986146411877
:103780003246022000F008FB002803D000F048FB7E
:10379000012504E00026641CE4B2BC42DCD300F046
:1037A000F1FA284605B0F0BD0148C0687047000036
:1037B0006C0000204106490EC009002900D0401CC1
:1037C00070470000F8B506460D464036317C0129A9
:1037D0000DD00121317401688A68520709D5416D05
:1037E000202211434165002030740120F8BD0220E1
:1037F000F8BD174B6A68D80547109A42154C8A6A7B
:103800002B6812D05B035B0B1A438A622968490359
:1038100005D5A1680143A1600A20FFF79DFD286836
:10382000800312D5A06838430EE05B035B0B9A431C
:103830008A622968490302D5A1688143A16028688A
:10384000800302D5A068B843A06000203074F8BDA2
:1038500001100000002701400068006C7047000064
:1038600070B5040006D0606D26460025403600285D
:1038700002D006E0012070BDA5653574204600F039
:10388000D3F8606DC00603D421688868400705D569
:10389000606D1021084360653574EBE7606DFF22B1
:1038A0000132904302221043606588688207920FBC
:1038B0005B48012A02D10A68D2072BD10323626830
:1038C0009B079A4205D05B429A4202D05B009A4223
:1038D00009D10A69920092080A6121680A6963683D
:1038E0001A430A610CE00A69920092080A61816831
:1038F0000F22920491438160816862681143816064
:103900002168CA6818239A43CA602168CA68A368F4
:103910001A43CA608168012252069143816081681E
:10392000A28E52061143816020688168C90004D4C8
:10393000816801221207114381602068C168394AF9
:103940001140C1602069E168022825D000200143B0
:10395000204620300278037B52035B001A43114358
:10396000226B1143A26992031143E269D20311430E
:103970002268D3681943D160616A0A46FF3AC23AA5
:1039800005D0A26A11432268D3681943D1604278F6
:103990000121012A02D00BE00420D8E7007800289A
:1039A00023D0606D202210436065A06D0843A065A0
:1039B000E06B012820681FD00169C90703D00169A5
:1039C00049084900016120684169C908C90041618D
:1039D00020684169A26B11434161A565606D800853
:1039E0008000401C6065002070BD2068C268012313
:1039F0001B041A43C260DBE70269FF239B009A4362
:103A0000026120680269236CA66C1A43636C33431D
:103A10001A430261206802690A430261D3E7000089
:103A2000002701401902FEFF00680449884204D1C2
:103A30000348416B42151143416370470024014024
:103A400000100240F8B504464069254640350E4650
:103A500008280BD02068C068C00709D0606D2021FD
:103A600008436065002028740120F8BD082700E0A5
:103A70000C2700F0BDFA009011E0701C0FD0002E52
:103A800005D000F0B5FA0099401AB04207D9606D30
:103A9000042108436065002028740320F8BD2068D5
:103AA00000683842E9D0606D012149020843606531
:103AB0002068C16809058A0F0C21002A1BD1202229
:103AC000125D002A17D10268120714D582685307C5
:103AD0000122002B08DB43688B434360606D1302B7
:103AE00098431043606506E0606D202318436065CD
:103AF000A06D1043A065A069002801D12068016075
:103B00000020F8BD70B50446216800208968490787
:103B100021D425464035297C01291CD00121297456
:103B2000E169012904D02046FFF758FC002811D193
:103B3000616D0A4A1140FF22013211436165002183
:103B4000A165297422681C21116021688A680423F8
:103B50001A438A6070BD022070BD0000FEF1FFFFB5
:103B600070B5054604464035287C012807D001265B
:103B70002E742046FFF7C7FB002802D00CE002207D
:103B800070BD2046FFF7FAFB002805D1616DFF22CA
:103B900001329143314361650021297470BDF0B455
:103BA000016C0D6801680C68466C1C2304221E40E1
:103BB0001746B7402F420ED067070CD50C68A406F5
:103BC00002D40C6894430C60416C19408A40016C2B
:103BD0004A60016B1AE00227B74002462F402032AC
:103BE000002F17D0A70715D50C68A40605D40C68BC
:103BF0000A25AC430C6001215171446C02211C4028
:103C0000036CA140596000211171C16A002918D0CC
:103C1000F0BC08470827B7402F4212D0240710D520
:103C20000C680E25AC430C60446C01211C400B4613
:103C3000A340046C6360C163517100211171416B39
:103C4000E4E7F0BC7047000070B504003CD01F48AA
:103C5000256814212818FFF765F9800060641C4866
:103C6000206402212046203002464171296819480B
:103C7000E3680140A0686669184323693343184329
:103C8000A3691843E3691843236A1843084328606B
:103C90000121A0688903884210D00D488030836AD2
:103CA000656C1C210D400F26AE40B3438362656CEA
:103CB00063680D40816AAB400B4383620020E06380
:103CC00001215171107170BD012070BDF8FFFDBF61
:103CD000000002400F80FFFFF8B504468C462030FC
:103CE00001790025012909D00126067141790027B3
:103CF000012905D0077102252846F8BD0220F8BD2C
:103D000002214171E76320680168490849000160A8
:103D100061462046FFF7D4FB206B0028206801682D
:103D200001D00E2205E00422914301602068016861
:103D30000A22114301602068016831430160DBE71A
:103D400070B5044600F054F90546601C00D0641CB0
:103D500000F04EF9401BA042FAD370BD70B5074D7C
:103D600004462846FFF75EFC002805D10449486157
:103D700020602846FFF756FC70BD000050C30000CD
:103D8000D007002003484168012211434160002010
:103D90007047000000200240F8B5124D0746287C0D
:103DA00014460E46012807D0012028740E48FFF75C
:103DB00039FC002802D00CE00220F8BD0021696126
:103DC000022F09D0012F09D0002F09D00648FFF794
:103DD00029FC00212974F8BD3460FAE73480F8E743
:103DE0003470F6E7D007002050C300000949486846
:103DF000C0070DD0EFF3108072B6074ACA60074AB9
:103E0000CA6080F310884868C00701D0012070475D
:103E10000020704700200240EFCDAB89050403026B
:103E20000148406970470000D007002010B50749DD
:103E30004861042805D102F0CFFE002802D002F02C
:103E4000E7FE10BD02490120487010BD000401408A
:103E50000300002010B504494A69024202D04861BB
:103E6000FFF7E4FF10BD000000040140F8B5002397
:103E70000124A2E027469F403A4070D04D68022DB1
:103E800001D0122D14D1DD08AD002D1800952D6A3A
:103E90005E07AC46F50E0F26AE46AE406546B5430E
:103EA000AC460E697546AE4065462E43009D2E62B7
:103EB0004D68012D05D0022D03D0112D01D0122DFA
:103EC00016D185680326AC465D00AE46AE40654619
:103ED000B543AC46CE687546AE4065462E43866017
:103EE00046680D79BE43ED06ED0F9D4035434560B4
:103EF00006685F000325BD40AE46AE430D79B4466B
:103F0000AE07B60FBE4065462E430660C6687546CE
:103F1000AE438D68BD403543C5604D68ED004BD55F
:103F2000294D6E6B26436E639E08284DB6007519A9
:103F3000AC46AD689E07360F0F27B740BD43052737
:103F40003F07B84201D1002715E0214FB84201D107
:103F5000012710E01F4FB84202D102270BE02BE0EF
:103F60001D4FB84201D1032705E01C4FB84201D1D3
:103F7000052700E00627B7402F436546AF60184D80
:103F80002E684F689643FF0300D516432E606E6877
:103F90004F689643BF0300D516436E60AE684F6806
:103FA0009643FF0200D51643AE60EE684F68964315
:103FB000BF0200D51643EE605B1C0A681546DD4063
:103FC00000D057E7F8BD000000100240000001409B
:103FD0000004005000080050000C0050001C00506D
:103FE00000040140002A01D081617047816270475E
:103FF0000148006870470000200100200248016865
:10400000491C0160704700002001002010B50848DD
:1040100000240168402211430160204600F00AF8A4
:10402000002801D0012401E000F01CF8204610BD5A
:104030000020024070B5054609487D210024C900D2
:104040000068FEF76FFF00F0FDFF002801D001249B
:1040500004E000222946501E00F024F8204670BDDE
:10406000640000200448416B012211434163816BCD
:10407000020411438163704700100240C106C90E5B
:1040800001208840014908607047000080E100E09D
:10409000C106C90E01208840014908607047000030
:1040A00000E100E010B501F029FE10BD02480168F2
:1040B0008215114301607047007000400A4B1A6876
:1040C0009208920002431A600848036904221343CD
:1040D0000361012906D040BF20BF20BF0169914381
:1040E0000161704730BFF9E70070004000ED00E06B
:1040F000F8B504460078594D800672D5574E002712
:10410000403EB06BC00004D4B06BA9050843B06357
:10411000012753480168C90511D40168821511436C
:104120000160FFF765FF009005E0FFF761FF009970
:10413000401A642837D84A480068C005F5D5326867
:104140000321090560680A400140914208D08103BB
:10415000890F032904D13168890301D50120F8BDF5
:104160002A69032109040A4022D0084090421FD046
:10417000207880061CD528692A6988430121C90452
:104180000A432A612A698A432A612861C0050FD53A
:10419000FFF72EFF009008E0FFF72AFF0099411A71
:1041A0003048814201D90320F8BD28698005F3D544
:1041B00061688803800F032805D1326800058243B7
:1041C00001400A43326028690322616812041140E9
:1041D00008432861002F04D0B16B01200007814300
:1041E000B1632078C00705D0E868A1688008800026
:1041F0000843E8602078800705D5E8680C218843EB
:10420000E1680843E8602078400706D5E8680321A4
:104210008902884321690843E8602078000706D5B1
:10422000E86803210903884361690843E86020784E
:10423000400606D5E868012189068843E1690843FC
:10424000E8602078000606D5E868032189048843E1
:10425000A1690843E8600020F8BD0000401002405A
:104260000070004088130000F8B50E4605007DD0B0
:1042700053480068C007C00FB0420AD250480168D6
:1042800049084900314301600068C007C00FB042CF
:1042900071D128784B4C800705D5E068F021884320
:1042A000A9680843E0602878C00752D068680228EF
:1042B00017D0032818D02168012818D089050029B3
:1042C00059DAE168890889000143E160FFF790FE4F
:1042D00069680746022912D003291CD0012926D07B
:1042E00033E021688903EAE721688901E7E74907A4
:1042F000E5E7FFF77DFEC11B3348814223D8E06824
:104300000007800F0228F4D123E0FFF771FEC11BE4
:104310002D48814217D8E0680007800F0328F4D1A8
:1043200017E0FFF765FEC11B274881420BD8E06804
:104330000007800F0128F4D10BE0FFF759FEC11BE5
:104340002148814201D90320F8BDE0680007800FB1
:10435000F3D11B480168C907C90FB1420DD90168E3
:104360004908490031430160006800E003E0C007EC
:10437000C00FB04201D00120F8BD2878400706D513
:10438000E068072109028843E9680843E06028786B
:10439000000707D5E0680721C90288432969C900D9
:1043A0000843E06000F036F8E168084A0906090FA2
:1043B000515CC840064908600020FFF73BFEF8BD8D
:1043C00000200240001002408813000014890008F9
:1043D00064000020044805490068C968044A49058A
:1043E000490F515CC8407047640000200010024033
:1043F0002D890008044805490068C968044A8904F1
:10440000490F515CC8407047640000200010024012
:104410002D89000810B5184AD1680C2008400428DE
:104420000BD0082810D00C2810D050680004410F81
:104430000120C003491C884010BD1068C00601D58A
:104440000E4810BD0E4810BD0E4810BD88020E4B20
:10445000000F185C0902D368890F491CDB0301D5E2
:10446000084A05E01268D20601D5044A00E0044A71
:104470005043FEF757FD10BD0010024000093D00FB
:104480000024F40000127A0024890008FEB505001B
:104490007ED0FE4CE7680C20E6680740012000044F
:1044A00006402878C00747D0082F05D00C2F0AD126
:1044B00001200004864206D1206880033CD568684C
:1044C0000028E5D038E0012069680004814203D16A
:1044D00021680143216011E0052301221B0492049D
:1044E0009942216802D111432160F1E781432160A3
:1044F000216801400091206890432060686800288E
:104500000DD0FFF775FD009005E0FFF771FD0099F4
:10451000401A64287AD820688003F6D50CE0FFF7AB
:1045200067FD009005E0FFF763FD0099401A6428DD
:10453000F0D820688003F6D42878800755D5092361
:10454000E868042F0DD00C2F01D1002E09D00028CF
:104550003BD02168994301432160FFF749FD06469E
:1045600027E02168490701D5002891D061681F2202
:10457000120291432A691202114361602168994332
:1045800001432160FFF746FFE16809060A0F00E0DA
:10459000BBE1BF49895CC840BE4908600020FFF705
:1045A00049FD002872D120E0FFF722FD801B022880
:1045B000B0D820684007F7D560681F2109028843FA
:1045C00029690902084360600FE020684008400044
:1045D0002060FFF70DFD064604E0FFF709FD801B94
:1045E000022897D820684007F7D42878C0065FD5FE
:1045F000002F0CD0E869002849D02068FF21013144
:1046000008432060FFF7F4FC06462DE0E4E0206854
:10461000800502D5E8690028A7D060680721490312
:104620008843696A084360606068298C0002000A58
:10463000090608436060686A410B0120C003491CF9
:104640008840E16809060A0F9149895CC840914990
:1046500008600020FFF7EEFC002817D128E0FFF7E4
:10466000C7FC801B0228A3D820688005F7D56068A6
:10467000072149038843696A084360606068298CA0
:104680000002000A09060843606011E023E1216886
:10469000FF20013081432160FFF7AAFC064604E0B9
:1046A000FFF7A6FC801B02289BD820688005F7D462
:1046B0002878794E000724D568690028306910D021
:1046C000012108433061FFF793FC009005E0FFF7FC
:1046D0008FFC0099401A02287ED830698007F6D5F1
:1046E0000FE0400840003061FFF782FC009005E0D9
:1046F000FFF77EFC0099401A02286DD830698007C8
:10470000F6D42878400764D500200290A06BC00042
:1047100006D4A06B012109070843A0630120029081
:104720005E480168C90511D4016882151143016012
:10473000FFF75EFC009005E0FFF75AFC0099401A75
:10474000642849D855480068C005F5D5FF20AA68F7
:104750000130824203D131690143316111E001210D
:104760008902002A07D005231B029A4203D132692D
:104770000A433261EFE7326982433261306988432C
:104780003061A86800280ED0FFF732FC009006E0E8
:10479000FFF72EFC0099411A414881421CD830692C
:1047A0008005F5D50DE0FFF723FC009006E0FFF74C
:1047B0001FFC0099411A3A4881420DD830698005A2
:1047C000F5D40298002804D0A16B01200007814392
:1047D000A1632878800600E07CE02ED53148A969E5
:1047E0004314002916D0A26801210A43A260626B1B
:1047F0000A436263016A19430162FFF7F9FB064647
:1048000004E0FFF7F5FB801B022863D8A06880074F
:10481000F7D512E0A16849084900A160016A9943EF
:104820000162FFF7E5FB064604E0FFF7E1FB801BB2
:1048300002284FD8A0688007F7D4A86A002866D05D
:104840000C2F4DD0012636060228206805D0B04333
:104850002060FFF7CDFB05463EE0B0432060FFF748
:10486000C7FB074604E0FFF7C3FBC01B022831D893
:1048700020688001F7D4296BE86AE2680843696B15
:10488000FD231B049A43114308430DE0001002402E
:1048900014890008640000204010024000700040AD
:1048A0008813000000000140E06020683043206071
:1048B000FFF79EFB054604E0FFF79AFB401B02282A
:1048C00008D820688001F7D521E0FFF791FB401B55
:1048D000022801D90320FEBD20688001F5D416E02E
:1048E0000128F8D0E06801210904EA6A01409142F8
:1048F0000BD10F2189042A6B0140914205D103217C
:1049000089050840696B884201D00120FEBD002066
:10491000FEBDF8B50546044620352878012819D093
:1049200001202870022068702168CA20486221682E
:10493000532048622068816801229202914381607D
:1049400020688168120191438160FFF751FB0646A0
:1049500000270FE00220F8BDFFF74AFB811B7D20F6
:10496000C000814206D92168FF2048620320687098
:104970002F70F8BD2068C0684007EDD52168FF2082
:104980004862012068702F700020F8BDF7B5054619
:1049900004462035287882B0012814D001202870E0
:1049A000022068702168CA2048622168532048624A
:1049B0002068806800264005FF27002812DAFFF7EC
:1049C00017FB00900AE0022005B0F0BDFFF710FBD6
:1049D0000099411A7D20C00081421CD82068C0681F
:1049E0004007F3D4206881680122920291438160DC
:1049F0002068C16880221140204A8918C160FFF7F1
:104A0000F7FA00900DE0FFF7F3FA0099411A7D20C4
:104A1000C000814205D920684762032068702E706B
:104A2000D2E72068C0684007EDD521680398486147
:104A300020688168C908C900816020688168049A7B
:104A4000114381600E480268012109050A43026092
:104A500082680A43826020688168012292031143C0
:104A6000816020688168121111438160206847626B
:104A7000012068702E700020A6E700007FFBFFFF7A
:104A8000000401407047000010B504460068C0688B
:104A9000400509D52046FFF7F5FF2068C168802250
:104AA0001140054A8918C160012004490005486188
:104AB00001202034607010BD7FFBFFFF0004014027
:104AC000F8B5040050D0254620356878002803D179
:104AD0002870204600F052F8022068702168CA2031
:104AE0004862216853204862204601F0D7FCFF2627
:104AF00004270028206802D046626F7034E0816885
:104B00001D4A11408160216888686268A36910436A
:104B100022691A43104388602168E06808612068B0
:104B2000016922891204114301612068C168802251
:104B30009143C1602068C16C89088900C164E16942
:104B4000606901432068C26C1143C16420688068B9
:104B500080060BD4204600F0FFF8002806D020681D
:104B600046626F70002028700120F8BD2068466200
:104B7000012068700020F8BDBFFF8FFF10B50068EE
:104B8000084988420DD10848016901229204114365
:104B90000161002201210220FFF784FA0220FFF7C1
:104BA00077FA10BD0028004040100240F8B50546D5
:104BB0000446203528780B4601280FD001202870A4
:104BC00002206870002A0BD0D8789E780004064333
:104BD0005878097800024903084317E00220F8BD1D
:104BE0005878C10603D5EF2108400A305870D878AC
:104BF00001F048FC0604587801F044FC000206432A
:104C0000987801F03FFC064318784003064321687A
:104C1000CA204862216853204862204601F03EFCC9
:104C20000027002811D111480640206846602068FE
:104C3000C16880229143C1602068806880060CD4DE
:104C4000204600F089F8002807D02168FF2048623C
:104C5000042068702F700120F8BD2168FF20486291
:104C6000012068702F700020F8BD00003FFFFF009A
:104C7000F8B506460446203630780D46012822D085
:104C80000120307002207070206800278068002AA0
:104C90001BD0400600D4EF702978A8780904084397
:104CA0006978EA78090212041143084300902168E8
:104CB000CA204862216853204862204601F0EEFB7A
:104CC000002837D116E00220F8BD400600D4EF706E
:104CD000287801F0D7FB0304687801F0D3FB0002C9
:104CE0000343A87801F0CEFB0343E87800040343B4
:104CF0000093DCE7174900980840216808602068A5
:104D0000816801229204914381602969E86808431F
:104D100021688A68104388602068C16880229143B6
:104D2000C1602068806880060CD4204600F014F82A
:104D3000002807D02168FF20486204207070377077
:104D40000120F8BD2168FF20486201207070377093
:104D50000020F8BD7F7F7F0070B504460068C16801
:104D6000A0229143C160FFF743F97D260546F60076
:104D700006E0FFF73DF9401BB04201D9032070BDAA
:104D80002068C0688006F4D5002070BD70474030B0
:104D9000407C704770B5040007D00026254640359A
:104DA000A662687C002802D005E0012070BD2E7448
:104DB000204600F02FF80220687420680168402225
:104DC00091430160A168606822690843E16811436A
:104DD0000843616901220843A16952021140084356
:104DE000E1690843216A0843A16A08432168086011
:104DF000A0690421000C0840616A084321684860EA
:104E00002068C16992009143C161666501206874A0
:104E1000002070BDF0B587B0064614216846FEF745
:104E200042F92E493068884255D12D48416B821491
:104E300011434163C16A02252943C162C16A294005
:104E40000591C16A01273943C162C06A6946384089
:104E500005901820A1C100246946224803950494B6
:104E6000FFF704F880206946A1C1052069460007C4
:104E700003950494FEF7FAFF1B481C4D81C51020D2
:104E80006C6028608020EC602C618701AF616C61F0
:104E9000A8601648083DFEF7D7FE002801D0FEF7AF
:104EA0003FFBB564AE621048104D14384835286099
:104EB000AC600120EC6068606C61AC612F628020A6
:104EC000EC6128612846FEF7BFFE002801D0FEF7FE
:104ED00027FBF564AE6207B0F0BD00000030014072
:104EE000001002400004005030000240B8030020CF
:104EF00070477047F8B5054604464035287C0026C3
:104F000096468C4601280CD001272F74687C616876
:104F100001280CD0CA1FFD3A07D1A168002904D18D
:104F200001E00220F8BD042801D0022667E06046B7
:104F300000282ED0704600282BD0002B29D0687C6A
:104F4000042801D005206874002060656146216353
:104F5000A386E3867146A163A387E3872064606428
:104F6000697C042917D0E26C274911632749E26C58
:104F70000020D162E26C26495163E16C8863E38FC3
:104F80002168A26B0C31E06CFEF7A6FE00281DD153
:104F900006E0012633E0E26C1E4911631E49E6E794
:104FA0002068416839434160A16C00200863A16C0E
:104FB000C862A16C4863A16C8863E38E2268216B90
:104FC0000C32A06CFEF788FE002806D0606D102120
:104FD0000843606501266F7411E020680168490686
:104FE00003D40168402211430160206841682022F7
:104FF0001143416020684168022211434160002052
:1050000028743046F8BD0000A16800080169000856
:105010007568000897680008AB68000810B5074C71
:105020006078002809D001220520D1030007FEF78F
:10503000D9FF0020607001F09EFE10BD140000201A
:1050400070470000094910B5401E884201D901206F
:1050500010BD074C60610321081F00F04FFE0020C7
:10506000A06107202061002010BD0000FFFFFF00AD
:1050700000E000E0F0B502462032137E012B15D08F
:10508000012717760223537605686C68AB68702693
:10509000B4430E68496826438024A34319436E60D5
:1050A00000688160577600201076F0BD0220F0BDC8
:1050B00070B5040005D025462035687E002802D052
:1050C00006E0012070BD00202876204600F00AF896
:1050D00002206876211D206801F0E6FF0120687635
:1050E000002070BD10B50122016892070B48914263
:1050F00004D1816B01221143816310BD084A9142A2
:10510000FBD1816B10221143816300220121112008
:10511000FEF7C8FF1120FEF7BBFF10BD00100240D4
:10512000001000400222014620314A760068826861
:1051300001235207520F062A02D002681A43026066
:105140004B76002070470268D36801210B43D3607F
:10515000006882685207520F062A02D002680A438A
:105160000260002070470000022102462032517682
:105170000168086A054B184203D1086840084000DE
:1051800008600120507600207047000011110000D7
:105190000168CA6852085200CA600068016A044A7D
:1051A000114203D10168490849000160002070479D
:1051B00011110000F8B5054604462035287E012867
:1051C00017D001262E76022068762268906877270D
:1051D000FF23B8431B02984390600A68502A31D0DD
:1051E0000EDC202A4BD006DC002A48D0102A3AD107
:1051F00045E00220F8BD302A41D0402A33D136E0C4
:10520000602A27D0702A12D001200003121A2AD057
:10521000824228D1CB684A688968206801F070FF13
:105220002068816801229203114381601BE0CB68F2
:105230004A688968206801F063FF216888683843FC
:10524000886010E0CA684968206801F06CFF50214E
:10525000206806E0CA684968206801F075FF60218F
:10526000206801F058FF6E7600202876F8BDCA68E5
:105270004968206801F057FF40212068F1E7114696
:105280002068EEE7704770B50446006801690025A4
:10529000C9438907002915DBC168C943890711D4AF
:1052A000E91E016101202076206880698007204680
:1052B00002D0FFF7E7FF04E000F078F8204600F0A6
:1052C00076F8257620680169C943490717D4C16873
:1052D000C943490713D40421C94301610220207640
:1052E000206880698005800F204602D0FFF7CAFF42
:1052F00004E000F05BF8204600F059F825762068BD
:105300000169C943090716D4C168C943090712D402
:105310000821C9430161042020762068C069800704
:10532000204602D0FFF7AEFF04E000F03FF8204631
:1053300000F03DF8257620680169C943C90617D4F5
:10534000C168C943C90613D41021C94301610820AB
:1053500020762068C0698005800F204602D0FFF7C4
:1053600091FF04E000F022F8204600F020F82576B6
:1053700020680169C943C90708D1C168C943C90781
:1053800004D1891E0161204600F012F820680169ED
:10539000C943490609D4C168C943490605D4402117
:1053A000C9430161204600F004F870BD70477047A2
:1053B000704770470146406F896F0843704710B5CA
:1053C000040003D0606F002802D007E0012010BD68
:1053D000002170200155204600F026F82420606747
:1053E00020680168490849000160204601F054FF27
:1053F0000128ECD0606A002802D0204601F0B7FEF8
:10540000206841680922D202914341602068816886
:105410002A229143816020680168012211430160C2
:10542000204601F009FF10BDF0B587B006461421F3
:105430006846FDF738FE28493068884249D1274838
:10544000416B0122920311434163C16A012211435E
:10545000C162C06A00241040059003204002009001
:105460000220032701A991C1042004900520694668
:105470000007FEF7FBFC1B4D1948AC60EC6081C5D2
:10548000EC6080272C61AF602020AC61686115481A
:10549000083DFEF7D9FB002801D0FEF741F8F5667C
:1054A000AE62104D0E4848351438286003206860FD
:1054B00029461020083191C16C61AC61EC6128462D
:1054C0002C62FEF7C1FB002801D0FEF729F8B56673
:1054D000AE6207B0F0BD000000380140001002408D
:1054E0005800024040050020FFB50446406F83B0DD
:1054F00017460D4620285CD1002D0AD0002F08D079
:10550000A168C001814207D12069002804D1E807C1
:1055100002D0012007B0F0BD204660300290007C30
:10552000012846D00298012101740020E067212063
:105530006067FEF75DFD2646403601903782778230
:105540000120A1680003814202D12069002802D015
:105550002F46002511E000270FE000228021204681
:1055600001F0AEFF002815D1002F15D02168387842
:1055700088627F1C708A401E7082708A019B00289E
:1055800006980090E9D100224021204601F098FFC2
:10559000002808D00320BDE728882168C005C00D79
:1055A0008862AD1CE6E7202060670299002008743D
:1055B000B0E70220AEE7000010B50A4604460A2113
:1055C0001046FDF7AFFC014620464843FF212D3130
:1055D000FDF7A8FC054964234A8BC98B801A584300
:1055E000891AFDF7B5FC1E3010BD00006000F81FE1
:1055F00010B52848416B42151143416326480169A3
:1056000003229207114301618168C90703D08168B1
:1056100049084900816081680122D20711438160F5
:1056200001680905FCD501680122D202114301601D
:10563000026801210A43026082680A438260C168ED
:10564000090402D40168C907FCD0C16801225203D1
:105650001143C160510181624169072211434161D7
:105660000E4881680122D205114381600C48FEF783
:1056700049FA0C4C0A482146FEF7E4F90028F9D112
:105680000748FEF7E9F804460548FEF769FA2046A0
:1056900010BD00000010024000240140002701401E
:1056A000E0010020000004481CB50F4C69460F487B
:1056B0000094FEF787F80D48FEF724FA21460B48C0
:1056C000FEF7C0F90028F9D10848FEF7C5F80446EE
:1056D0000648FEF745FA06480649008B484321462E
:1056E000FDF720FC1CBD000000000244E00100208A
:1056F0006000F81FB80B000010B5044601F010FB65
:10570000214602A001F00EFF10BD00005365745F3A
:10571000736D70735F766F6C746167652025640AC2
:105720000000000010B5044601F0E8FA214602A08E
:1057300001F0F8FE10BD00005377697463682050D3
:10574000413A2025640A0000FEE738B5049C009425
:10575000FBF7C9FD002038BD10B5002805D0012891
:1057600003D0022807D003280DD101F0ADFA400084
:10577000FF21F53104E001F0A7FA40007D21090185
:10578000081AFEF7DDFA002010BD00207047000067
:1057900010B50C46FBF7DAFD0248007820700020B7
:1057A00010BD00001C01002010B5FBF7E0FD00203B
:1057B00010BD10B5072100F0CDFA10BD07220A7008
:1057C0000149016000207047478D0008F8B5154673
:1057D0000E460746FFF768FF0446FFF709FF21461C
:1057E000FFF7EAFE3C80002131800A2148432880EF
:1057F0000020F8BDFF22F532904201D911207047F8
:105800000148086000207047D00500200020704744
:1058100010B5072100F0FCFA10BD000070B5054678
:10582000002001F043FA002002F0BCFF02F0F8F97A
:10583000194C222DA06000D12425FDF701FE012086
:105840002070A0680068C16880221140134A89183E
:10585000C1600120124900054861002060600120FC
:1058600002F094FF02F0F2F901460E4869438142CA
:1058700003D942428D18014600E000250022A068AD
:10588000FFF784F802F0E2F901462846FDF74AFBEB
:1058900002F076FF002070BD180000207FFBFFFFA4
:1058A00000040140FFFF00007CB505462D4C01209F
:1058B000607002F0B5F9A06002F0B6F9002817D0C8
:1058C0007D20C001684301AA694601F055FA684687
:1058D0008088401E82B268460088401E81B2204601
:1058E0000C3001F095FA20460C30FFF72CFC36E026
:1058F000FDF7A6FD01202070A0680068C168802225
:105900001140194A8918C1600120184900054861F1
:1059100000206060012002F039FF012002F03CFF0E
:1059200002F094F97D216843C900FDF711FB10498D
:105930000546884203D948422E180D4600E000264D
:1059400002F084F901467D20C0007043FDF7EAFAB9
:1059500002F016FF00222946A068FFF717F8002082
:105960007CBD0000180000207FFBFFFF0004014009
:10597000FFFF000010B502F053F904498860FEF7FC
:10598000C8FF002002F002FF002010BD1800002018
:1059900010B502F045F90B4CA06002F04BF900285D
:1059A00009D0A068FEF7B5FF002002F0EFFE00204E
:1059B00002F0F2FE03E003480C30FFF7E9FB0020A1
:1059C000607010BD1800002010B501E001F0DEF895
:1059D00002F036F90028F9D0002002F0E3FE0020A2
:1059E00010BD00001CB500211E4800911C4A019109
:1059F0000260C163032292078160426081630122D9
:105A000002610246C16020321170FF235170C2331F
:105A100043628162117301638161042241634261C7
:105A2000C161FDF71DFF002801D0FDF779FD0E488B
:105A3000009001200003019069460A48FDF7C2FE6C
:105A4000002801D0FDF76CFD084800906946054824
:105A5000FDF7B8FE002801D0FDF762FD1CBD000077
:105A600000240140E001002000000448000002443E
:105A700008B50C48016B012211430163006B012141
:105A80001040009000220A20FEF70CFB0A20FEF7CF
:105A9000FFFA002211460B20FEF704FB0B20FEF755
:105AA000F7FA08BD00100240F0B587B0142168462F
:105AB000FDF7F9FA2048C16A01242143C162C16A95
:105AC00021400591C16A02252943C162C06AE603EB
:105AD000284005900520224631460007FEF782FA4D
