:020000040800F2
:1000000020100020D5000008F15800084F540008C7
:1000100000000000000000000000000000000000E0
:10002000000000000000000000000000756A0008E9
:1000300000000000000000008D5A0008F96C000864
:10004000E7000008E7000008E5600008E700000896
:10005000E700000863350008E7000008E700000833
:10006000E7000008E7000008E1340008F934000860
:10007000E7000008E700000800000000E7000008B3
:1000800000000000C56D0008000000000000000036
:10009000E700000800000000E7000008E700000893
:1000A000E7000008E7000008E7000008E700000894
:1000B000E7000008E700000800000000E700000873
:1000C0000348854603F0A6F900480047A9780008D0
:1000D000201000200448804704480047FEE7FEE760
:1000E000FEE7FEE7FEE7FEE7716D0008C1000008CD
:1000F000F8B58048016C80480A7802704A784270EE
:100100008A788270CA78C2700A7902714A7942711B
:100110008A798271CA79C2710A7A02724A7A427203
:100120008A7A8272CA7AC2720A7B02734A7B4273EB
:100130008A7B8273C97BC1731CE0F8B500226D4BCA
:10014000197C1020441A6C4809D005000F351E6C2C
:1001500037782F70521C761C6D1EA242F8D10029F0
:1001600008D004001B6C9A1813782370521C641C6E
:10017000491EF9D1042607001037604C6D46042251
:10018000391F684603F03AF8B00717D12A78687823
:100190002870A8786870E978A970EA702A78A25C5B
:1001A0002A70205C6870605CA870E878205CE87059
:1001B00028785349B208895C4140297038001038CA
:1001C000007829784140397038000F380078697814
:1001D0004140797038000E380078A9784140B970F4
:1001E00038000D380078E9784140F970761C3F1DE1
:1001F0002C2EC4D3F1BD10B43E49C96B3E4A000158
:10020000101804220B7804785C400C704B7844780A
:100210005C404C708B7884785C408C70CB78C47870
:100220005C40CC70001D091D521EEBD110BC704704
:100230003048C16B0422314801E22E48C06B41783E
:1002400042794270427A4271427B427241738178B4
:10025000827A827081728179827B82718173C178A6
:10026000C27BC270C27AC273C279C272C171704756
:10027000FCB42048C06B042106786A4616714778A2
:100280003D007540C27883781C006C405440009655
:100290006E00B446EE091B256E4365466E4066400F
:1002A000009D6E4006701D007D406E00B446EE0954
:1002B0001B256E4365466E4066407E4046701600C4
:1002C0005E407500F6091B277E436E4066405E4027
:1002D00086706B461B7953405D00DB091B26734318
:1002E0006B405C405440C470001D491EC4D1F3BC37
:1002F0007047000068010020E40700203C8A0008E5
:100300003C8C0008F0B489B0E248C16B042008902E
:1003100008786A4690704878507188781071C8786B
:10032000D07068468078C0091B2250436A46107618
:10033000684680784000D0766846C07E127E424093
:100340006846427040786A46107768464078C2092D
:100350001B235A436B46DA7540006A46D27D424001
:1003600068464273407B6A46907668464079C00989
:100370001B2250436A46907568464079400050758C
:100380006846407D927D4240D0091B2358436B460E
:10039000187550001B7D434068460373007B6B4615
:1003A000587668460079C0091B2358436B46D874B9
:1003B000684600794000987468469B7C6C46E47CF3
:1003C0005C4004700478E3091B256B436D466B7435
:1003D00060006B465B7C43406846C372C57AC07858
:1003E000C0091B2358436B4618746846C078400008
:1003F000D8736846C07B1B7C4340D8091B267043DA
:100400006E46B0735800B67B464068468672867A60
:10041000F0091B2778436F467872E8091B27784359
:100420006F4638726846407EC0091B2778436F4686
:10043000F8716846807EC0091B2778436F46B87103
:10044000684680783F7F474078006F463F7E474050
:100450006846C07D78406F46BF7E7F004740684653
:10046000807978406F467F7947406846407D784084
:100470006F46BF7D47406846407E400078406F46EB
:10048000FF794740684600797840640044406846F8
:10049000407C60406C0044406846007A60406C4696
:1004A000E4784440700060406C46647A44400C70CC
:1004B0006846477B047BC57A867A80787F00474010
:1004C00068468079784084466846477D6046474064
:1004D0006846807D7840570047406846007D7840F8
:1004E000640044406846C07960406C4624794440CA
:1004F0006846807C60406C46E47C44406800604014
:100500006C46247A44406846C07860405C004440B1
:100510006846807B6040740044406846407A604092
:10052000487068464678407B6C46A0756846007BFC
:1005300024786D466C756C46E47AAD7A6F46BF7868
:1005400076007E406F46FF7D77406E46B67D760032
:100550007E406F46BF7977406E4676797E40400098
:1005600070406E46F67946406846807C70406E4624
:10057000F67C46406846407D400070406E46767C82
:100580004640600070406C46247A44406846C0781B
:1005900060406C46E47B44406846007C60406C00F0
:1005A00044406846407A604088706846407B6C46AC
:1005B00062706A46127BE47A6D46AD7A6E46B77811
:1005C000F67E7E406F463F7E7740400078406E4624
:1005D000B67946406846407970406E467678760037
:1005E00046406846007D7040520042406846C079EF
:1005F00050406A4612794240600050406A46127A82
:1006000042406846C07B50406A46127C42405800D7
:1006100050406A46927B4240680050406A46527A97
:100620004240CA70091D0898401E089000D06FE62D
:1006300009B0F0BC70471748C16B0422BA480B7868
:10064000C35C0B700B79C35C0B710B7AC35C0B72D0
:100650000B7BC35C0B73491C521EF0D170470D48D5
:10066000C06B417B427A4273427942724278427156
:1006700041708178827A827081728179827B827105
:100680008173C178C279C270C27AC271C27BC272F0
:10069000C17370476801002010B50020FFF7ABFD63
:1006A0000124FFF7C5FDFFF7C8FDFFF7E1FDE0B24C
:1006B000FFF7A1FD641CE0B20A28F2DBFFF7B8FDEA
:1006C000FFF7BBFD0A20FFF796FD10BD10B50A200D
:1006D000FFF791FD0924FFF7C2FFFFF7ACFFE0B27F
:1006E000FFF789FDFFF70EFE641E2006F3D1FFF72A
:1006F000B6FFFFF7A0FF0020FFF77DFD10BD002231
:100700008B5C8354521C8B5C8354521C8B5C8354D3
:10071000521C8B5C8354521C102AF1DB704730B49E
:100720000021824A526C43181C78555C65401D704C
:10073000491C43181C78555C65401D70491C4318C2
:100740001C78555C65401D70491C43181C78555C2D
:1007500065401D70491C1029E5DB30BC7047F8B5B9
:1007600006000D0017001C003807000F0090300035
:10077000FFF7C5FF6D48C6630464FFF7DEFC6B48F6
:10078000407B6A49897B014301D0CA4801E0674840
:10079000806C66494864002F1FD02C000025200083
:1007A000FFF7BDFF0020215C3154401C215C315417
:1007B000401C215C3154401C215C3154401C1028E9
:1007C000F1DB5A48C663FFF767FF584846641034A8
:1007D00010361035BD42E2D32500009800280ED017
:1007E00029003000FFF78BFF10200099411A009874
:1007F000301802F01CFD4D48C663FFF74DFF4B4A11
:10080000507B002802D01000603004E0907B00286C
:1008100003D010005030102101E0D06CD17B117456
:100820001064F1BDF1B586B00E0014002007000F72
:1008300004906D466846FFF762FF3C4F6846F863D8
:10084000FFF756FCB86C7864002C25D03000059476
:10085000290000240022835C8B54521C835C8B543F
:10086000521C835C8B54521C835C8B54521C102A88
:10087000F1DB05000E00FE63FFF728FF3000FFF7F5
:100880004EFF7D6428001030310010311034059A7D
:100890009442DFD306000D00049800280DD03100EB
:1008A0002800FFF72CFF10200499411A04982818FB
:1008B00002F0BDFCFD63FFF709FF0021387C102228
:1008C000131A6C46069A05E04D426519ED7B5554A6
:1008D000491CC9B29942F7D1002807D051186A467D
:1008E00013780B70521C491C401EF9D107B0F0BDA3
:1008F00038B584B00D000D4C210070316164206466
:10090000FFF7F6FB10222900684602F077FCE5634A
:10091000FFF7DCFE2800FFF702FF10226946606C3B
:1009200002F06CFC05B030BD3C8B00086801002073
:100930000268406810180A6880184A6880188A6837
:100940008018CA6880180A6980184A6980188A69FC
:100950008018C9694118C8437047F8B594B00700BA
:100960000026002502F0D2FF002800D19EE004AA54
:10097000402104F0E1FF010004AB0C2200201C78B0
:1009800000195C7800199C780019DC7800191B1D8F
:10099000521EF4D1002905D1002803D004ACE16B2C
:1009A000884202D0C248866080E00599080E01287E
:1009B00002D0022839D046E068460A0C0270090AC3
:1009C000C1732021615C41702221615C817024210E
:1009D000615CC1702621615C01712821615C4171FB
:1009E0002A21615C81712C21615CC1712D21615CC6
:1009F00001722121615C41722B21615C8172232192
:100A0000615CC1722921615C01732521615C4173C4
:100A10002721615C81732000203000210022002307
:100A20004EC02100103168460BE06A460C21A148F7
:100A300004F082FF684669460C3102680A602100B2
:100A40001031FFF755FF04A8007905903871984ED2
:100A50000498B060049838602000083006C806C6C4
:100A6000083E082221000831781D02F0C7FB1098CB
:100A70003861606B40B27861A06BB86128213000AA
:100A8000143002F0D4FB20001030310024319CC817
:100A90009CC130001430B064300024303064300029
:100AA0002430F06410203074F07300E00125280039
:100AB00015B0F0BDD8010020F8B594B007000E00C5
:100AC00015006A460421F820400002F04FFD0CAAF0
:100AD0002021080102F04AFD01AA0821062002F0A7
:100AE00045FD0CA901A8FFF723FF714C0C99A160EB
:100AF000002906D00022D243914202D0009A9042AF
:100B000003D00020A060012073E003970CA8021D11
:100B100088CA88C4083C039A1160217831706178D2
:100B20007170A178B170E178F170217931716179DA
:100B30007171A179B171E179F171017B0907090F37
:100B400000D101212970A1680491059106910791B6
:100B5000089108AA01AB151DC0CBC0C5CB430B93B0
:100B6000D17B037B872B01DA0B4300E00B40D3736F
:100B7000117B437B192B01DA0B4300E00B4013730D
:100B800004A90A7A837B802B01DA134300E0134027
:100B90000B72CA7AC37B802B01DA1A4300E01A4039
:100BA000CA721907090F022901DA022102E00E298F
:100BB00000DB0D21217404A9A16408A9216410227D
:100BC0000100103120002430FFF72CFE20001430EB
:100BD00000210022002300252EC020001430A06434
:100BE000200024302064207CE07320002430E06466
:100BF000002015B0F0BD38B52D4C246C002C01D16F
:100C0000012032BD049D002D00D12300FFF7A7FD78
:100C1000002032BD2649002804D010200A0050329E
:100C2000012302E0C87BCA6C00238B730A6408743A
:100C3000002070471E49002804D010200A006032AE
:100C4000012302E0C87BCA6C00234B730A6408745A
:100C500000207047164908730020704714490A7B2A
:100C6000002A02D01449016007E00A7A02704A7A29
:100C700042708A7A8270C97AC170002070470C492C
:100C80000A6C002A01D1012070470A7802704A7864
:100C900042708A788270CA78C2700A7902714A7981
:100CA00042718A798271C979C17100207047000050
:100CB000680100205000F81F98BADCFEF0B583B040
:100CC0000400924E3078002801D01120ACE0002CB6
:100CD00001D11320A8E06D463B20E871684604F07E
:100CE000EAFB010001D0102198E0E8793B2801D00F
:100CF000122099E0311D742004F0F0FB7268002A84
:100D000001D0010001D0102188E0110057311000FE
:100D10006C3001F0C1FF0700706803D004F0B8FB2D
:100D2000380081E0697809022A7811438184E978E2
:100D30000902AA7811430905090D54228152A979A3
:100D40005A228154607B02281BD172680320906074
:100D5000B049D1600021116123699362237E30255F
:100D60005355726813002C336569974FBD4203D108
:100D7000FA214900196001E0196002203121505424
:100D800010E001280ED17268A34890600021D16064
:100D900011610120322150546879000229790843F9
:100DA000716888867068216801606168416001002F
:100DB0005631627BCA71A2680266002048800870C2
:100DC000706801006431227B012A01D1642203E0B2
:100DD000022A02D1962292000A80227B0A73A2681C
:100DE0009B4B9A4208D13C2048809A488880607B7F
:100DF000042816D1022015E0974B9A4204D108200E
:100E00004880FA20C000F1E7944B9A4203D13C207D
:100E100048808048EAE704F03BFB142101F035F8F4
:100E200002E001203070002003B0F0BD70B5002555
:100E30000024364E3078002801D1212070BD706822
:100E400004F026FB010000D020243570210001F0C1
:100E50001CF870BD30B583B0069C012C01D1012572
:100E600000E00025002801D1332013E00D2901DB2B
:100E700030200FE0002A03D1012C01D1312009E0FC
:100E80000295019300920B00020001211F48406867
:100E900001F0EAF803B030BD10B584B00224044379
:100EA000012B06D101206B461C73002904D134208C
:100EB0000CE000206B461C7302900192009100230D
:100EC00003AA00211148406801F0CEF804B010BD1B
:100ED00000B583B0012801DD352015E0002802D1DE
:100EE0000321072303E0012801D104210523002069
:100EF00002900220019000200090DBB20022C9B2D3
:100F00000248406801F0B0F803B000BD940800202A
:100F100080B5002A06D0012A0CD0022A12D0052A58
:100F200013D015E0B0A20260002901D00F20087094
:100F3000002002BD04F0C4FA0100F9D05C2100F0E9
:100F4000A4FF02BD04F00EFEF6E700F00FFBF3E78E
:100F50005D210020F3E738B50C00A14D2978012967
:100F600030D1696802688A604268CA608068086136
:100F7000C00509D5086E394A904205D10800603095
:100F8000334A0260334A02815D20085C01280AD19D
:100F9000080000F010FF6968C886002801D14120D0
:100FA00032BD32200C5468685D21415C022907D1B2
:100FB0008168002902D0C068062801D2402032BDD5
:100FC00002202870002032BDE0930400F8B507002D
:100FD0000C00834E3078002801D05820F2BD04F078
:100FE000C9FD050001D057210DE0380004F050FD87
:100FF000050004D1200004F0A1FE050006D004F095
:10100000E5FE5721280000F040FFF2BD03203070BC
:101010000020F2BD88130000FF01000038B5704CBD
:101020002078032801D05A2032BD04F0E1FE0025CB
:10103000010001D0257004E004F0C8FE0100257015
:1010400003D0592100F021FF32BD002032BD000045
:1010500000EE020008520000D4300000A08C000016
:10106000F0B583B00400002901D1532041E00D2ADE
:1010700001DB52203DE05A4D2878022801D0512052
:1010800037E00320287068686C26865D982E01D0B2
:1010900050202EE006006C367778BA2FF8D1B7785A
:1010A000DC2FF5D1F678FE2EF2D1019300230093C8
:1010B00013000A00012101F08FF8010019D16868BE
:1010C00000F0B2FF010003D0542100F0DEFE10E07A
:1010D000002C04D10021686801F098FD0400220072
:1010E0000021686801F000FB010002D10220287095
:1010F000002003B0F0BDF8B50D0017001E00384CFD
:101100002178022901D05620F2BD042121706168A6
:101110006C228A5C982A01D05520F2BD0A006C32FC
:101120005378BA2BF8D19378DC2BF5D1D278FE2AFC
:10113000F2D1002802D1080001F0ACFD0123020029
:101140003100280001F092FC010012D13A00290080
:10115000606801F0A7FC9B2801D1022121700100E9
:1011600007D160686A21405A0699088002202070E1
:101170000020F2BD0021017019490A78002A06D02A
:1011800049685D228A5C022A01D109690170002048
:10119000704780B5694601F07FFD02BD80B504F05F
:1011A00085F9010003D05B2100F06FFE02BD002035
:1011B00002BD0B490A78022A01D05E2070474968B7
:1011C00056228854002070470649884201DBB1202E
:1011D0007047401C024949685822885200207047D5
:1011E00094080020FF0F000056322E372E305F4645
:1011F000444C5F4D4F4E0000001D04210022031F90
:101200001A60027042700830491EF8D17047F2B47B
:1012100083B005000021002200235C4C6E46367B23
:10122000DE40F6071DD50026271F3F68029701956F
:1012300000910099B1421CDB11001AD10299019D65
:10124000F700ED59A94200D10122761CF6B2F0E771
:10125000CE00AE19271F3F68376027783771491CC9
:10126000C9B25B1C0834062BD8DBC8B204B0F0BC92
:101270007047019D00991700EAD0F2002E1FB218A6
:1012800026781778B74200D056700022E9E7F7B504
:1012900006001C003E480078002801D0B22044E03F
:1012A000200001D1B42040E03A4F39002C2000F05A
:1012B00077F805003868002831D029002FD18462E2
:1012C0000621334A117006703868001DFFF794FF3D
:1012D00038680021242281540178001DFFF797FF10
:1012E0000400042004F046FC050001D0B32118E0FE
:1012F000294A6846017A808800F05CF8050001D030
:10130000B3210EE0254B002221003868001D00F0BB
:101310009DF8050008D004F059FD00F095F8B321C0
:10132000280000F0B2FD00E0002003B0F0BD38B5A9
:10133000174C2078062803D0072801D0B52032BDED
:1013400000F0F2F8050006D004F040FD00F07CF853
:10135000B621280013E000F077F8050004D004F06F
:1013600035FDB62128000AE004F030FD050005D166
:101370000848006800F01CF8050003D0B62100F012
:1013800084FD32BD0020207032BD0000EC01002041
:10139000940800209C080020411B0008A71B00089F
:1013A000652801DB80207047664808600020704790
:1013B00000207047F8B50400150000260096624F23
:1013C00008000CD1200001F0B8FF8D21C90501F003
:1013D00039FF5E4901F073FF01F0B6FF24E0200001
:1013E000012901D180031FE002290CD1584988420C
:1013F00006D3491E01F070FE3861200055490CE00B
:10140000F02109030FE003290FD1492809D348210E
:1014100001F062FE38612000482101F05DFE00917C
:1014200003E0E12189044843386100987861BE6097
:10143000FE60012038773E603D63012201210320D8
:1014400005F06AF90020F2BD80B573E0FBB569468E
:1014500009790091072901DB8420FEBD00240023C7
:101460003D4D0BE0D90046586E50061D765C2F1D91
:101470007E54461D765C6F1D7E545B1C00998B422A
:10148000F0DB009002993548AC239B00C61831610F
:1014900033490A70C721C943B180B4713473A221A2
:1014A000890047181AA078601CA0B8601020388006
:1014B0007470B4700020285804F0EAFA6846007985
:1014C00027494870747027482979415C009A5279FD
:1014D000805C0843786222480078002806D1347086
:1014E000942080003861F4704B2004E001203070BB
:1014F0000220F070782005F0E9F900F011FA0122DD
:101500000121032005F008F905F0EEF90020FEBDE9
:10151000A000000076000000690000001500000037
:10152000150000001500000080B505F0F9F9012054
:101530000D49087000220021032005F0EDF800207D
:1015400002BD00009C0B0020340B002000007A44F8
:1015500012110000111100006C0B0020A0080020E7
:10156000680B0020D4180008500B002007220A70D6
:1015700001A101600020704776312E312E3000002D
:10158000F0B5ADB000220021032005F0C5F8C72456
:10159000E443CE48007800280AD105F0C1F905F0EF
:1015A0004FF9040005F06FF9089001220DA906E03B
:1015B00005F069F9089000220DA9801EC0B205F05F
:1015C00055F901220121032005F0A6F8C048039037
:1015D000BE480078002808D103980079BB494978B3
:1015E000491E884201DA00F077F905F07DF9C74815
:1015F00002904078012804D103980079401C039997
:101600000871C34802990978C9004018C14901917D
:10161000B0A102798A5C4079085C10430199486264
:10162000AA480078002801D100F07AF9002007903C
:101630000125D3E0401E0B902600C8360C980028E8
:1016400009D0B068B449C95D059A891A491E0122BA
:101650008A400243B260B048C05D694648700120CC
:1016600049788840401EB9000991AC49099A8A58C6
:1016700005991300CB40944669464A780599511A5A
:1016800062468A401A430240049204994A006B461B
:101690005B785B1ED940114308400690F0688000DB
:1016A0002158049A06981043484000F0E5F905993E
:1016B0004900611805914822895A081A05998852EB
:1016C0007168049A06981043484000F0D5F90599CE
:1016D0004822895A081805998852F06880002158D4
:1016E0000498084000F0C8F90599883106910988E6
:1016F000081A0699088071680498084000F0BCF93F
:10170000069909880818069908800198406809997F
:10171000405805994822895A88422FD301988068F9
:101720000999405806990988814206D20B994900C7
:1017300061188822895A814220D302984078022871
:1017400001D1012000E00020390000D00121C9B200
:10175000014368D102984570039807600020019901
:10176000C86002980221405E0A99884206DA08465B
:1017700002994880029800780299087106980088BA
:101780003080206C401C206469464978491E8142A3
:1017900014DA7068F16889006050B0687060606C3D
:1017A000F0600020B0602064616C491C6164019AA3
:1017B0000023D25E521E8A4200DA60647F1C032F2F
:1017C00020DB0A9C68460078401C69460870684621
:1017D0000078082809DB0798401C079007980899AB
:1017E00088422BDA0020694608700DA80799415CF1
:1017F00007206A461278801AC140C807C00F002728
:101800000A940C900198406AF8402840D6D0A54828
:10181000D82179434418206C0590002802D100BFDC
:10182000AAA0C05D06E705F07BF805F009F8020004
:101830007F1CF9B23648029B1B7817E003980079A9
:1018400022494978491E884216D1029840780128D9
:1018500012D102200299487002980221425E039838
:101860000168491CC9B22A48029B1B79DB00C05899
:10187000039B9B68984726E0019840698A49884203
:1018800008D300200199486101988069401C0199A2
:10189000886103E0C9434018019948610198806953
:1018A0000199096A88420ED10198C069401E0199C8
:1018B0004969884207D2002001994861019908626C
:1018C0000398C06880472DB0F0BD0000680B002071
:1018D000580B00200001020410B574484078744988
:1018E0000A78441EA24201DA521C00E000220A706B
:1018F0000A78002A01D1401E00E0501E48700448BA
:10190000D100405804F0C4F810BD0000520B002074
:101910006C0B0020280B0020CC1A0008C01A00080D
:10192000F0B587B0002001905E4F00BF67A001991D
:10193000405C694608706846007804900198D82198
:101940004843381802900498401E02990864A22067
:101950008000381803900021405E401E02994864C0
:10196000002008E001216A4612789140491E029A3F
:101970008300D150401C03990022895E8842F1DB2C
:10198000002400BF51A00199405C69460870012005
:1019900009788840401E069049A001998900405866
:1019A00005900198D82148433818029031E00599F4
:1019B000E14005986A461278121B90400843069D44
:1019C00005400298016868006A461278521E2B0092
:1019D000D3400343069818402843484000F04CF891
:1019E000029962008E18A2218900791803910022C1
:1019F000895E4843482170520298006805402800DB
:101A000000F03AF803990022895E48438821705219
:101A1000641C04988442CADB0199D8225143791886
:101A20000023482505E042008A18535388241353A5
:101A3000401C2028F7D30198D821484338180100CA
:101A4000C831026C520082188623D25A0A80426C36
:101A5000920082588A60426C92008218121F1268AB
:101A60004A60406C401EC8600198401C01900328E9
:101A700000DA5AE707B0F0BD41100E4A0A40801A5A
:101A80000D490A0002408010014050180111411810
:101A90000A480840010A401801000014081880068E
:101AA000800E7047A0080020A7FDFFFF680B0020F4
:101AB000510B002055555555333333330F0F0F0F4E
:101AC000008000800010000200042000201A160090
:101AD000F8B405000E0000200021AC4B01956D46C6
:101AE0002E70C5005E59019FBE4201D0401C0EE021
:101AF0001E1D765D6F463F78BE42F7D15E1D755D57
:101B00009542F3D101218140401C0D0615D1C5003D
:101B10005E59019FBE420BD11E1D765D6F463F7818
:101B2000BE4205D15E1D755D954201D10121814006
:101B3000401C052801DC0D06D3D0C8B2E6BC7047B6
:101B400038B5934C2078062803D0072801D0B72059
:101B500032BDFFF7E9FC050006D004F037F9FFF7C6
:101B600073FCB821280018E0FFF76EFC050004D0D4
:101B700004F02CF9B82128000FE004F027F9050043
:101B80000AD1844D002100202A68926A9047286873
:101B9000FFF70EFC050003D0B82100F076F932BD46
:101BA0000020207032BDF4B506000F0000247848F4
:101BB0000078062803D0072801D0B920F2BD754867
:101BC00000684168B14210D1017AB94202D0407A2E
:101BD000B84213D1FFF7A8FC05002FD004F0F6F8A7
:101BE000FFF732FCBA212800C7E0C168B1420BD12F
:101BF000017CB942EED0407CB842EBD004F0E6F86C
:101C0000FFF722FCBB20F2BD4169B14206D1017E43
:101C1000B942DFD0407EB842F0D1DBE7C169B142C2
:101C200006D12021415CB942D4D02121405CF2E7A9
:101C300004F0CCF8FFF708FCBC20F2BDFFF704FC71
:101C4000050004D004F0C2F8BA21280095E05048FD
:101C50000078062875D107204D4908704E4A0021AA
:101C6000C8204000FFF7A6FB050004D004F0AEF842
:101C7000BA21280081E047480068001DFFF7BCFA40
:101C80004448006841490A68B24206D10A79BA421A
:101C900003D146604A79027201248A68B24208D1AF
:101CA0000A7BBA4205D146604A7B030008331A55C5
:101CB000641C0A69B24209D10A7DBA4206D1466063
:101CC0004A7D03000833E4B21A55641C8A69B242A3
:101CD00009D10A7FBA4206D146604A7F0300083321
:101CE000E4B21A55641C0A6AB2420BD124228A5CFF
:101CF000BA4207D1466025228A5C03000833E4B269
:101D00001A55641C8A6AB2420AD12C228A5CBA42F1
:101D100006D146602D22895C02000832E4B21155DA
:101D2000242147541D4B01220121001DFFF78EFB8A
:101D3000050028D004F04AF8FFF786FBBA212800F6
:101D40001BE007281FD104F041F8050014D1114809
:101D500004683A002420215C3000FFF7B9FE00211E
:101D60002422A154009909B2A26A90470948006848
:101D7000FFF71EFB050003D0BA2100F086F8F2BD84
:101D80000020034908700020F2BD0000E801002097
:101D9000940800209C080020411B0008A71B000895
:101DA0000100C87802028878024348780002097866
:101DB00008435040704770B40100002008310323ED
:101DC000012400250E68EE40264000D0401C6D1C0A
:101DD000202DF7DB091D5B1EF3D1410008184004DC
:101DE000000C70BC7047F8B507000024481E06219F
:101DF00001F072F9461CF6B23B00083300210322C1
:101E000000201D00B0421BD000236F4679703C704B
:101E10006C466478B0420DD02F68DF40FF0705D5CF
:101E2000401CC0B2864201D16F463C705B1C641CF2
:101E3000202BEFDB6B461C7820312D1D521EE1D18B
:101E40002000F2BDF0B50C0005006035AE88006ED4
:101E5000310001F02BF907002889310001F03CF92D
:101E6000381AE9886143401A80B2F0BD30B50200EB
:101E70000C0015006435A8886421515A01F02CF932
:101E800069884C43001980B230BD0202C8B21043C9
:101E90007047F0B583B004000D0016005D20205C93
:101EA000042801D002284ED1A08C002803D0802124
:101EB0000901884206DB20006C30FFF771FF400506
:101EC000400DA08427006037012E1CD10121200085
:101ED000FFF7B8FF05003889B98801F0FDF8F988E7
:101EE000411801232A0089B2A08C01F067F8A08470
:101EF0002083A08CF98840186083A08CF988401A50
:101F0000A08303B0F0BD6D1C019500253889B98808
:101F100001F0E2F8060001230093206EB98801F079
:101F2000C5F8821B012392B2B1B2A08C01F046F831
:101F3000A084210018316A0088526D1CEDB201980E
:101F40008542DEDAE2E7A08E002803D08021090175
:101F5000884206DB20006C30FFF722FF4005400D71
:101F6000A086A08C002801D0802806DB20006C30E1
:101F7000FFF716FF4006400EA084012E1DD101235D
:101F8000E28E521D92B20821A08E01F017F8A086B1
:101F9000002326220421A08C01F010F8A084A08E3A
:101FA0002087A08E401C6087A08E401EA087A08C3A
:101FB0002083A08C6083A08CA2E76D1C0195002576
:101FC0000123E28E921D92B20721A08E00F0F6FF4F
:101FD000A086002326220421A08C00F0EFFFA0841D
:101FE0006800A18E22181187A18C2200183211528C
:101FF0006D1CEDB201988542E2DB82E70268490080
:102000004118098B6423C35A59435118036E5B0866
:10201000C91A914201D3012101E00021C943826A1A
:10202000C06A41435018704700B583B06946828C3E
:102030000A70828C120A4A7002005432537A012BC1
:1020400004D1838E0B71838E1B0A4B715423C35AA8
:102050008B705423C05A000AC87090798871684602
:1020600003F04AFA03B000BDF2B584B004000026C4
:10207000002700250CA800780390012800D1012535
:10208000C7480078022801D06020A3E00320C4499B
:1020900008705B2166540B98002802D169460E72C5
:1020A00002E002206946087201956846007A0090B5
:1020B0006846017C200000F08FF8010000D089E024
:1020C0002000FFF7B1FF002802D0010261206DE07F
:1020D00020005B308078022804D1E7682069FF2166
:1020E00088432061BBB26846027A0CA801782000C0
:1020F00000F05AFB010001D07E280DE0002D3ED0FB
:102100000420A74908700CA802780A99200000F062
:1021100088FC010005D09B285CD10221A04A1170E7
:1021200058E0039801282AD103209D490870022015
:1021300003F095F9002802D00102642036E00190F6
:102140000090082300220221200000F045F8010041
:1021500040D12000FFF768FF002802D00102622072
:1021600024E020005B308078022800D18D4FBBB284
:1021700000220021200000F017FB01002AD15B2083
:10218000205C012822D15B2026540196009605236D
:1021900000220421200000F01FF801001AD12000C5
:1021A000FFF742FF002803D001026320084311E03B
:1021B00020005B308078022800D1E768BBB20222A1
:1021C0000021200000F0F0FA010003D10220744940
:1021D0000870002005B0F0BD70B582B004000D009D
:1021E000079E009600F0EEF801003AD1022D05DBC3
:1021F0006D48E083623020846C482BE05C20215CD9
:1022000018A0102912DA490041181C390988E18305
:102210005C21615C490041181039098821845C21E6
:10222000615C49004018001F008813E00A398910DA
:102230004900415AE1835C21615C0A3989104900F7
:102240004118898921845C21615C0A39891049001F
:102250004018008B6084320006992000FFF719FEB9
:10226000002076BD6BA08DA05FA311A64CA967AF1F
:10227000E0A6D2A098A5BFA671A9C9AF34A002A3B9
:10228000A3A52CA797A9BEB1F7B58EB01F004848EB
:1022900000685621405C012801D1012600E000269B
:1022A000189D179C0B21681D00F0C1FFE078C0014C
:1022B0002871A078C001E17849080143E97060788D
:1022C000C001A17849080143A9702078C001617854
:1022D0004908014369702078400880210143297032
:1022E000009600BF33A31022290001A803F0B0F824
:1022F000010052D101A8017BFE220A400273169907
:1023000009094173199A002A02D110220A43427323
:10231000169909013A05120F0A438273C773E078D0
:10232000C0012871A078C001E17849080143E97033
:102330006078C001A17849080143A9702078C001E4
:102340006178490801436970207840082870009638
:1023500018A31022290009A803F07AF801001CD163
:102360000120009009AB102201A905A803F070F824
:10237000010012D110A8007800280DD00E9805A9F0
:102380000F9A10AB1B780C78157865400570521CBD
:10239000491C401C5B1EF6D1002011B0F0BD0000AE
:1023A00094080020280A000067AF0000BEB10000BA
:1023B0009808002000112233445566778899AABBFB
:1023C000CCDDEEFFF2B596B0040017001D0002262A
:1023D00006965420205A401C542160520005000DDE
:1023E00060525721615C01291AD1002804D15A207A
:1023F000205C401C5A21605416A8007804280FD095
:102400005420205A010509D05821615A002907D0CB
:1024100000F062FE481E8041C00F02E0012000E093
:1024200000200790280004D13878C107C90F0E4357
:1024300010E0012D01D100260CE0681E032142109E
:10244000920F121892109200801A0E1AF6B2B01C57
:10245000C0B2069016A80078002816D0022845D0F1
:1024600003D3042874D014D39DE00021280009D0A0
:1024700020003E308A1DD2B23B788354491C7F1C19
:10248000A942F5DBB0013E218CE0387880013E2185
:1024900088E0B0013E21605404AA921C05A905A859
:1024A000801C03F015F8002802D001029220E1E020
:1024B0000820442160546846C08A4521605468461B
:1024C000C08A000A462160546846808A47216054C9
:1024D0006846808A000A4821605404980014492103
:1024E00060540498001400124A215BE0B0013E21C0
:1024F000605404AA921C05A905A8801C02F0E8FFFC
:10250000002802D001029320B4E009204421605445
:102510006846C08A452160546846C08A000A462140
:1025200060546846808A472160546846808A000A61
:102530004821605404980014492160540498001400
:1025400000124A2160546A20205A64304B2129E04D
:10255000B0013E21605404AA921C05A905A8801C64
:1025600002F0B6FF002802D00102952082E00A2086
:10257000442160546846C08AC82100F097FD452177
:1025800060546846808AC82100F090FD462160545E
:10259000049800140A2100F09FFD472160545A203E
:1025A000205C482160543E20215C1C984001202280
:1025B000104008433E2160545421615A0905090F17
:1025C00001433E2021545420205A3F2160546C2066
:1025D000205C4021605420006C3041784122A1549D
:1025E00081784222A154C1784322A1545721615CD1
:1025F000012933D116A9097804292FD0290012D036
:102600000121039108A9029101905A20205C0090B9
:102610005420235A2A002100443120004430FFF77F
:1026200033FE002824D108AA5A20205C1070002113
:10263000A81D23003E335B5C56187370491CC9B259
:102640008142F6DB04ABEA1DD2B208A90DA800F066
:102650007BFC002810D0010296200BE004ABAA1DE1
:10266000D2B221003E310DA800F06EFC002803D04C
:1026700001029120084335E000210698002811DD71
:10268000A81D0DAB069A6E46367C76189E19103E34
:10269000367827003E37C0B23E54491C401C914258
:1026A000F1DB069206982D18AE1D5C202654F1B27F
:1026B00020003E3000F002FB010A22003E32F6B25A
:1026C000915521003E31ED1DEDB248555C20205C56
:1026D000801D5C2160545B20205C079901435B20D6
:1026E0002154002017B0F0BDF0B587B004000F00F2
:1026F0001500002003F03EFA06002ED1280003F05A
:10270000C7F9060003D003F061FB310226E0AA21DD
:1027100068460170417079006118CA8B120A827094
:10272000C98BC1703B005C21615C0A1FD2B2011DE4
:1027300020003E3000F074FC5C20225C7020215CA4
:10274000684603F0CFFA060003D003F03FFB3102E6
:1027500004E003F03BFB060003D00102972008438E
:1027600000E0002007B0F0BDF8B504000800170035
:102770001D0003F0FFF9060015D1380003F088F9B9
:10278000060007D12A0030202156052003F044FB23
:10279000060003D003F01AFB3000F2BD03F016FB75
:1027A000060000D10020F2BDFAB585B00027002553
:1027B000019700266946097D012900D10126694655
:1027C0008A7004005D20205C012810D14F703220F7
:1027D000205C01280FD1002A0DD0002E0BD00A203A
:1027E00002F090FE002834D0010270200EE168460D
:1027F0000122724042706846008B00284CD05D2058
:10280000205C022848D16846008B02F0C1FE0028F7
:102810001CD100212000FFF7F1FB6B4602003120A4
:10282000215C2000FFF7A0FF002819D1684600783E
:10283000002818D1A068401E85421CD2032002F057
:102840000EFE002817D001027920DFE00102772078
:10285000DCE002F02DFF0028CDD001027120D5E090
:1028600001027620D2E068460078012803D102F008
:1028700003FF002841D16D1CEDB2A1688D4203D247
:10288000694609780129BED122695107490FD2084A
:102890005019C000081820615D20205C022804D176
:1028A00068460078012800D0B2E0002569468978A2
:1028B0000291491E04910299491C039129002000AC
:1028C00000F0A4F9020029002000FFF70DFF01002D
:1028D00000D0A4E05D20205C022802D12069401CC9
:1028E0002061002D2AD15D20205C6946097D0129E7
:1028F0000ED1022804D1132003E00102782085E0E4
:10290000142002F0FFFD002818D0010275207DE0A0
:10291000012813D13220205C01280FD1E08E0399C9
:1029200000F0DAFB0100142000F0C0FB80B20028A8
:10293000019003D002F0E6FD002833D15D20205C39
:1029400002280AD10298854207DA002D05D1FA2023
:10295000400102F01DFE002827D16846407802F0B1
:102960007EFD002824D15D20205C022830D1029811
:1029700085422DDA691CC9B22000FFF73FFB6B4688
:1029800002003120215C2000FFF7EEFE002812D16A
:1029900068460078002814D102F06EFE00280DD1A0
:1029A000012715E00102722030E001027B202DE0BA
:1029B000010274202AE001027A2027E001027C2033
:1029C00024E00498854203D102F056FE00281BD172
:1029D0006D1CEDB20398854202DA380000D16DE734
:1029E0005D20205C012819D13220205C012815D1FE
:1029F0000198000412D0002E10D102F059FE0028D8
:102A00000CD00102732001E001027D20084306E0A2
:102A100068460078002801D17E2000E0002007B041
:102A2000F0BD70B504000D001600012E07D102F0B4
:102A30003FFE002803D001029820084370BD626960
:102A40005D20205C022801D1222100E01921330001
:102A5000012000F00BF8010007D12A00012120001D
:102A600000F020F8010000D1002070BD70B50C000E
:102A70001500012003F07EF8060001D001020CE0F1
:102A8000280003F005F8060004D1200002F03AFD0A
:102A9000060005D003F09AF93102E020084370BD2A
:102AA000002070BDF2B590B0160000256A469574FE
:102AB0000027157001005431069108AC059004AA56
:102AC00005996A3108A803F06DFA01906846007C08
:102AD00001286FD110A8007801284BD104AB5B1CF2
:102AE00005985421425A01466C3108A800F026F995
:102AF00005005FD16846407C012858D10795019DAB
:102B00000698C078012824D1002003900CA80290D8
:102B100005986C30019006988079009005985421B2
:102B2000435A0822211D3000FFF7AEFB69460870AA
:102B300003F04CF906006846007C002803D002F040
:102B40008DFD694688740798002836D00006010C70
:102B500051E02079307060797070A079B070E079C0
:102B6000F070207A3071607A7071A07AB071E07A7A
:102B7000F071DDE701200021725C635C9A4200D0B5
:102B80000020491C725C635C9A4200D00020491C02
:102B9000725C635C9A4200D00020491C0F29EBDB79
:102BA00006991622895E02F0A5FC070002D1019861
:102BB000002884D00795019DBAE7002D02D02D068C
:102BC000290C18E0002E01D0310214E06846807C08
:102BD000002802D06846807C0CE0002F04D0390227
:102BE0009A20084380B20FE06846007800286846C3
:102BF00004D0007801029A20084305E0007C0028F8
:102C000001D19B2000E0002011B0F0BDF8B5040018
:102C10000D005D20205C042801D0022809D1680045
:102C20002018018B200060308088414320684018C4
:102C30001FE068002618308F811F89B22000FFF73F
:102C4000D2F807002000603000890090308F401ECD
:102C5000062100F02BFA0D48414300984018318BB3
:102C6000962292004A43811820684018084A574328
:102C7000C019226E5208801A002D05D162685118C1
:102C8000226E5208891A6161F2BD0000A86100003D
:102C9000E09304004069704710B50C0002F0FAFBA5
:102CA000002803D001029920084310BD2078012894
:102CB00001D000202070002010BD000070B4020080
:102CC0000B000020190014D00C4C80252D020100AF
:102CD00010780002484008214600284203D0300006
:102CE000604080B200E0B0B2491EF5D1521C5B1EBC
:102CF000EDD103494140080070BC7047211000002D
:102D0000FFFF000070B402000B000021180011D07A
:102D10002F2480251078414008204E00294203D0FE
:102D200031006140C9B200E0F1B2401EF5D1521C41
:102D30005B1EEFD1080070BC70470000FCB58BB083
:102D400004000F0000F070F8002001250194002419
:102D500075A1019A0F2300940E78B4461678C640E8
:102D60000124344066466643009C6640F4B2521C1F
:102D7000491C5B1EEFD101996FA2125D89180A7878
:102D80000123834053400B70401C0828DFDB019E69
:102D90000A21301DFFF7B6FFB17B814241D102AC61
:102DA0003878207078786070B878A070F878E07023
:102DB0006846808D20716846808D000A6071307988
:102DC000A0717079E071B0792072F0796072307A18
:102DD000A072707AE072B07A2073F07A60733878FB
:102DE000A0737878E0734D4800685621405C012854
:102DF00000D0002000904A4B102202A902A802F045
:102E000027FB01000ED1307B2178884206D1707BF0
:102E10006178884202D10C98057002E000200C997C
:102E2000087000200DB0F0BDF8B4030008784978B0
:102E3000090201435143C805C00D00D13948009330
:102E400000210023009C0825212606404708202E4B
:102E500003D0012E01D0002001E080204000384343
:102E60006D1EF1D180B25D1C27780600EE407E40D9
:102E7000267067780126AE40761E0640B4460726C7
:102E8000F51A6646AE407E4066705B1C641C082BDB
:102E9000D9DB0023009C0934082521260640470879
:102EA000202E03D0012E01D0002001E08020400020
:102EB00038436D1EF1D180B25D1C27780600EE40CC
:102EC0007E40267067780126AE40761E0640B446E6
:102ED0000726F51A6646AE407E4066705B1C641C91
:102EE000052BD9DB0824212505404208202D03D0DD
:102EF000012D01D0002001E0802040001043641E1D
:102F0000F1D1009A927B80B25B1CD8405040009A6D
:102F100090730098C173F1BC7047000098080020BE
:102F2000B4230008FF0100000102040803060C0B93
:102F3000050A070E0F0D09000F0001040208050A1B
:102F4000030E0907060D0B0C79B582B0150000249D
:102F50000020112D01DB202200E010221A706D1ECE
:102F60000095134D019100211A78CEB2964217D2E6
:102F7000019A125CC9B26A54009A904202D0401C75
:102F8000C0B200E00020491CEEE702980094094B13
:102F9000294602F05DFA010000D1002004B070BDA6
:102FA000054800685621405C0128EED10124ECE779
:102FB000000C0020B423000898080020F8B4040096
:102FC0000D001600012B03D10821144A0A2002E04B
:102FD00005217F2206206B461E805D802300002B8A
:102FE00000D113001E000641012535401F000F418E
:102FF00001263E405B041B0C6E4002D01D000123E5
:103000002B4313406C4624889C42E8DB6C46648862
:10301000A342E4DB1800F2BC704700BFFF070000CA
:10302000F1B582B00F0016001C000025002E03D061
:103030003100380000F0FBF830002CD0029A31004B
:10304000380080236E463470019200BF14A26C4693
:103050002478A4001219545D0278019E37781E006E
:1030600037420AD0641EA441E40F6643164306703B
:103070000AA2555DAD1CEDB204E06643164306702E
:1030800006A2555D5B08E0D16A461478019A401C9F
:10309000521C491ED5D103B0F0BD00000000010153
:1030A00000000000000101000001000130B50B46E6
:1030B000014600202022012409E00D46D5409D4212
:1030C00005D31D469540491B254695404019154698
:1030D000521E002DF1DC30BD70B5002425460028BD
:1030E00001DA01244042002901DA01254942FFF7B3
:1030F000DDFFAC4200D04042002C00D0494270BD00
:10310000F0B51FB40646002082B005464024019168
:1031100000901BE0019922460F46304600F05DF812
:10312000049A059B801A994110D3104619462246ED
:1031300000F01EF9361A8F41019722460120002126
:10314000009F00F015F938184D4100902046641E8C
:103150000028DFDC019B00982946324607B0F0BD0D
:10316000F0B51FB486B00020009001900290069840
:10317000069980B204900798090C020400141143C8
:1031800007900027089D099806913E463C4603900B
:103190000398A9B20204000C039004982D0C154367
:1031A00048430021224600F0E3F8C719714110346A
:1031B0000E46402CECDB3846029A00F0D9F8009A13
:1031C000019B8018009059410298019110300290A3
:1031D0004028CCDB00980BB0F0BD10B5202A04DBF2
:1031E0000846203AD040002110BD0B46D340D040C5
:1031F0002024A21A91400843194610BD03460B43F0
:103200009B0703D009E008C9121F08C0042AFAD29C
:1032100003E00B780370401C491C521EF9D2704722
:10322000D2B201E00270401C491EFBD2704700225E
:10323000F6E710B513460A4604461946FFF7F0FFB5
:10324000204610BD024670B54A40D30FDB07400050
:103250002DD04A002AD0010E140E000212020919C4
:10326000400A520A8418E50104465443000A120A2F
:103270002E045043A4194219200CC543AA18120C5D
:103280000125AD03521C521912047F39240400D0C9
:10329000521C104301D44000491EC2B20C06C009A2
:1032A0002018401C4008802A02D003E0002070BD96
:1032B00040084000002900DA0020184370BD70B5B6
:1032C00002464A40D50F40004A00ED074008520828
:1032D000002814D0002A12D0C40DD30D41020120C1
:1032E000C0055202490A520AE41A091812187D341C
:1032F000914201D3641C00E04900002C01DA002057
:1033000070BD0023914201D3891A0343400849004C
:103310000028F7D100290AD0914202D10121C90722
:1033200005E0914201D2012101E00121C943E005FC
:10333000C018401900F02CF870BD10B5002296237B
:10334000114600F02DF810BD410040020122400A54
:10335000D205090E80187F2901DA002070479629CE
:1033600003DC9622511AC84070479639884070474E
:1033700010B5202A04DB0146203A9140002010BD00
:10338000914020239C1A0346E3401943904010BD0E
:10339000002904DA401C490001D140084000704770
:1033A00070B40024050C05D11024000402D10029BA
:1033B00021D01124050E01D100020834050F01D1DE
:1033C0000001241D850F01D18000A41C002801DB11
:1033D0004000641C002908D020252E1B0D46F54016
:1033E000A14000D001212943084301061B1B000A0C
:1033F000DB1D02D5002070BC7047DB051818801853
:103400000029F8DA401C4900F5D170BC40084000A2
:1034100070470000064C0125064E05E0E36807CC26
:103420002B430C3C98471034B442F7D3FCF74CFEC6
:103430003C8D00085C8D000870B58C180578401C28
:103440006B075B0F01D10378401C2A1106D102786B
:10345000401C03E006780E70401C491C5B1EF9D12D
:103460002B0705D40023521E0DD40B70491CFAE71C
:103470000378401CCB1A921C03E01D780D70491C88
:103480005B1C521EF9D5A142D8D3002070BD0000AC
:1034900000B597B000F0CEFC0C20009000200A9000
:1034A000012102900591684600F0B4FE20200E90A4
:1034B00000030F900EA800F0DFFC0848016901220C
:1034C00092041143016100220121022000F0AEFCB0
:1034D000022000F0A1FC17B000BD00004010024027
:1034E00010B5034800F01FFA024800F01CFA10BDA6
:1034F000E00300209803002010B5034800F013FA01
:10350000024800F010FA10BD2C050020E404002051
:1035100030B5446C1C252C400125A540046C656029
:10352000046863608368102B036803D099600068A7
:10353000C26030BD9A600068C16030BD10B50446FD
:1035400000F018FB002808D1204600F0CBFA002834
:1035500003D100F0DBFA002801D000F025FB0020A9
:1035600010BD10B5012000F039FB10BDF0B50746C5
:10357000C3B00D460320694616460871002401A910
:103580000122101BC3003846D8400B19641CE4B25A
:103590005870022CF5D300F03FF800F029F87D2494
:1035A000E400032302AA01A90748009401F066FB86
:1035B0002B46324602A90448009401F05FFB00F05C
:1035C00005F8002043B0F0BD8C05002010B503F0D5
:1035D00053FA012806D0012205205102000700F00D
:1035E000C5FB10BD012210210048F8E7000400507F
:1035F00010B503F041FA012807D00121052000226F
:103600004902000700F0B2FB10BD00221021014862
:10361000F8E70000000400501FB50521684601725C
:10362000FF210173FFF7E4FF7D24E400012301AAD9
:1036300002A90948009401F021FB012301AA03A972
:103640000548009401F01AFB68460079C007F4D1E0
:10365000FFF7BCFF1FBD00008C0500207047000075
:103660001CB502F0DBFD00281CD02520694608703F
:103670006A4601215B2002F0B1FE0DA000680190B6
:1036800001AA0321002002F0A9FE002003F080F926
:10369000012003F065F9022003F06EF9072002F023
:1036A000D5FD1CBD0C21072002F0D1FDF6E700007E
:1036B00092522A0010B50446FFF7D2FFA2220D490C
:1036C000002C06D09A23012C07D0022C05D0032C05
:1036D00006D00A704A708A7005E00B704B7001E0EA
:1036E0000A704A708B70034A0321002002F076FEB4
:1036F00010BD0000B000002010B5214A00219069E3
:10370000C305204804D5416902231943416191153D
:1037100093699B0505D543690124234343616302F3
:10372000194393695B0505D5436908242343436125
:10373000E301194393691B0505D543690424234319
:1037400043616302194393699B0405D543691024BF
:10375000234343616302194393699B0304D544697E
:1037600020231C43446119439369DB0305D5436956
:10377000402423434361A0020143916110BD000036
:10378000002002407405002070B5054600F0F4FAF0
:103790000646184C0AE0681C08D0002D04D000F042
:1037A000EBFA801BA84201D9032070BDA069C007B5
:1037B000F1D1A069800701D50220A061A069C005F0
:1037C00011D4A06980050ED4A06940050BD4A0696E
:1037D000000508D4A069800405D4A069800302D440
:1037E000A069C00303D5FFF787FF012070BD00204B
:1037F00070BD00000020024070B50C46054600F088
:10380000B9F900280BD1084A946021C2284600F07B
:1038100069F9002803D100F079F9002801D000F0FF
:10382000C3F9002070BD0000D8070020F7B50025BF
:1038300082B016460F46002A01D0002417E0012569
:1038400017E0A0088000211A0A0602990858009083
:10385000520DFF200006009BD04018400021182385
:1038600001919A1AFFF7B9FC3055641CE4B2BC42CE
:10387000E7D3284605B0F0BDFFB581B01C460F4622
:103880000025084600F048F8202800D902250398B2
:10389000002800D10125002C07D0384600F03CF864
:1038A00001460198FFF7A8FF0546002D2BD1002601
:1038B00000F060F90024781E009020E0A00880004D
:1038C000211A84460398C9B2005DCB001822D21A8F
:1038D000904006430098844201D003290DD10198FD
:1038E000614641183246022000F01AF9002803D040
:1038F00000F05AF9012504E00026641CE4B2BC4241
:10390000DCD300F003F9284605B0F0BD0148C068DB
:1039100070470000B40000204106490EC00900298C
:1039200000D0401C7047F0B4016C0D6801680C6851
:10393000466C1C2304221E401746B7402F420ED06F
:1039400067070CD50C68A40602D40C6894430C607D
:10395000416C19408A40016C4A60016B1AE00227F1
:10396000B74002462F402032002F17D0A70715D5A9
:103970000C68A40605D40C680A25AC430C60012130
:103980005171446C02211C40036CA140596000211C
:103990001171C16A002918D0F0BC08470827B74048
:1039A0002F4212D0240710D50C680E25AC430C60B2
:1039B000446C01211C400B46A340046C6360C1634E
:1039C000517100211171416BE4E7F0BC70470000B8
:1039D00070B504003CD01F48256814212818FFF753
:1039E00065FB800060641C48206402212046203072
:1039F0000246417129681948E3680140A068666978
:103A00001843236933431843A3691843E3691843F0
:103A1000236A1843084328600121A068890388426B
:103A200010D00D488030836A656C1C210D400F2634
:103A3000AE40B3438362656C63680D40816AAB40FE
:103A40000B4383620020E06301215171107170BD4E
:103A5000012070BDF8FFFDBF000002400F80FFFF96
:103A6000F8B504468C46203001790025012909D09B
:103A70000126067141790027012905D00771022529
:103A80002846F8BD0220F8BD02214171E763206895
:103A9000016849084900016061462046FFF738FD8A
:103AA000206B00282068016801D00E2205E0042266
:103AB00091430160206801680A2211430160206877
:103AC000016831430160DBE770B5044600F054F94A
:103AD0000546601C00D0641C00F04EF9401BA0425B
:103AE000FAD370BD70B5074D04462846FFF74CFE6B
:103AF000002805D10449486120602846FFF744FEAC
:103B000070BD000050C300007405002003484168E8
:103B10000122114341600020704700000020024054
:103B2000F8B5124D0746287C14460E46012807D0EA
:103B3000012028740E48FFF727FE002802D00CE071
:103B40000220F8BD00216961022F09D0012F09D0A0
:103B5000002F09D00648FFF717FE00212974F8BD91
:103B60003460FAE73480F8E73470F6E77405002033
:103B700050C3000009494868C0070DD0EFF310801A
:103B800072B6074ACA60074ACA6080F3108848685C
:103B9000C00701D00120704700207047002002407C
:103BA000EFCDAB890504030201484069704700006E
:103BB0007405002010B507494861012805D102F0BD
:103BC0004FFE002802D002F067FE10BD024901201E
:103BD000487010BD000401403C00002010B50449AD
:103BE0004A69024202D04861FFF7E4FF10BD0000BD
:103BF00000040140F8B500230124A2E027469F40BD
:103C00003A4070D04D68022D01D0122D14D1DD083C
:103C1000AD002D1800952D6A5E07AC46F50E0F26F7
:103C2000AE46AE406546B543AC460E697546AE40FD
:103C300065462E43009D2E624D68012D05D0022D54
:103C400003D0112D01D0122D16D185680326AC4664
:103C50005D00AE46AE406546B543AC46CE6875469F
:103C6000AE4065462E43866046680D79BE43ED063C
:103C7000ED0F9D403543456006685F000325BD405C
:103C8000AE46AE430D79B446AE07B60FBE406546AC
:103C90002E430660C6687546AE438D68BD40354309
:103CA000C5604D68ED004BD5294D6E6B26436E63A4
:103CB0009E08284DB6007519AC46AD689E07360FB4
:103CC0000F27B740BD4305273F07B84201D1002762
:103CD00015E0214FB84201D1012710E01F4FB84233
:103CE00002D102270BE02BE01D4FB84201D1032780
:103CF00005E01C4FB84201D1052700E00627B74078
:103D00002F436546AF60184D2E684F689643FF03FA
:103D100000D516432E606E684F689643BF0300D5EA
:103D200016436E60AE684F689643FF0200D5164397
:103D3000AE60EE684F689643BF0200D51643EE6052
:103D40005B1C0A681546DD4000D057E7F8BD00004F
:103D50000010024000000140000400500008005024
:103D6000000C0050001C005000040140002A01D04B
:103D700081617047816270470148006870470000A8
:103D8000A000002002480168491C01607047000043
:103D9000A000002010B5084800240168402211430B
:103DA0000160204600F00AF8002801D0012401E05B
:103DB00000F01CF8204610BD0020024070B50546FA
:103DC00009487D210024C9000068FFF76FF901F060
:103DD000F5F8002801D0012404E000222946501EF5
:103DE00000F024F8204670BDA40000200448416B78
:103DF000012211434163816B0204114381637047C7
:103E000000100240C106C90E012088400149086027
:103E10007047000080E100E0C106C90E0120884023
:103E2000014908607047000000E100E010B501F0B2
:103E300061FD10BD024801688215114301607047A1
:103E4000007000400A4B1A689208920002431A6000
:103E500008480369042213430361012906D040BFC7
:103E600020BF20BF016991430161704730BFF9E76E
:103E70000070004000ED00E0F8B504460078594DB0
:103E8000800672D5574E0027403EB06BC00004D468
:103E9000B06BA9050843B063012753480168C90501
:103EA00011D40168821511430160FFF765FF00908E
:103EB00005E0FFF761FF0099401A642837D84A48A7
:103EC0000068C005F5D532680321090560680A401D
:103ED0000140914208D08103890F032904D1316840
:103EE000890301D50120F8BD2A69032109040A408C
:103EF00022D0084090421FD0207880061CD5286927
:103F00002A6988430121C9040A432A612A698A432C
:103F10002A612861C0050FD5FFF72EFF009008E049
:103F2000FFF72AFF0099411A3048814201D9032046
:103F3000F8BD28698005F3D561688803800F0328E0
:103F400005D132680005824301400A433260286986
:103F5000032261681204114008432861002F04D035
:103F6000B16B012000078143B1632078C00705D001
:103F7000E868A168800880000843E860207880072E
:103F800005D5E8680C218843E1680843E86020789B
:103F9000400706D5E8680321890288432169084360
:103FA000E8602078000706D5E86803210903884304
:103FB00061690843E8602078400606D5E868012179
:103FC00089068843E1690843E8602078000606D541
:103FD000E868032189048843A1690843E860002058
:103FE000F8BD00004010024000700040881300003F
:103FF000F8B50E4605007DD053480068C007C00FD5
:10400000B0420AD250480168490849003143016072
:104010000068C007C00FB04271D128784B4C8007B0
:1040200005D5E068F0218843A9680843E060287856
:10403000C00752D06868022817D0032818D021681A
:10404000012818D08905002959DAE1688908890012
:104050000143E160FFF790FE69680746022912D02C
:1040600003291CD0012926D033E021688903EAE71F
:1040700021688901E7E74907E5E7FFF77DFEC11BF6
:104080003348814223D8E0680007800F0228F4D12A
:1040900023E0FFF771FEC11B2D48814217D8E0686D
:1040A0000007800F0328F4D117E0FFF765FEC11B5E
:1040B000274881420BD8E0680007800F0128F4D11F
:1040C0000BE0FFF759FEC11B2148814201D90320B3
:1040D000F8BDE0680007800FF3D11B480168C907ED
:1040E000C90FB1420DD90168490849003143016047
:1040F000006800E003E0C007C00FB04201D001201B
:10410000F8BD2878400706D5E068072109028843F2
:10411000E9680843E0602878000707D5E0680721D0
:10412000C90288432969C9000843E06000F036F8F5
:10413000E168084A0906090F515CC8400649086051
:104140000020FFF73BFEF8BD0020024000100240B7
:104150008813000000860008A400002004480549D8
:104160000068C968044A4905490F515CC840704756
:10417000A4000020001002401986000804480549E8
:104180000068C968044A8904490F515CC8407047F7
:10419000A4000020001002401986000810B5184A3B
:1041A000D1680C20084004280BD0082810D00C2817
:1041B00010D050680004410F0120C003491C884002
:1041C00010BD1068C00601D50E4810BD0E4810BDC8
:1041D0000E4810BD88020E4B000F185C0902D36810
:1041E000890F491CDB0301D5084A05E01268D20695
:1041F00001D5044A00E0044A5043FEF757FF10BDC2
:104200000010024000093D000024F40000127A0072
:1042100010860008FEB505007ED0FE4CE7680C2035
:10422000E66807400120000406402878C00747D010
:10423000082F05D00C2F0AD101200004864206D198
:10424000206880033CD568680028E5D038E001206C
:1042500069680004814203D121680143216011E0B3
:10426000052301221B0492049942216802D11143C3
:104270002160F1E7814321602168014000912068BD
:1042800090432060686800280DD0FFF775FD00900E
:1042900005E0FFF771FD0099401A64287AD820687C
:1042A0008003F6D50CE0FFF767FD009005E0FFF70F
:1042B00063FD0099401A6428F0D820688003F6D482
:1042C0002878800755D50923E868042F0DD00C2FD6
:1042D00001D1002E09D000283BD021689943014329
:1042E0002160FFF749FD064627E02168490701D50F
:1042F000002891D061681F22120291432A6912029C
:10430000114361602168994301432160FFF746FF33
:10431000E16809060A0F00E0BBE1BF49895CC840BB
:10432000BE4908600020FFF749FD002872D120E057
:10433000FFF722FD801B0228B0D820684007F7D580
:1043400060681F21090288432969090208436060E7
:104350000FE02068400840002060FFF70DFD064692
:1043600004E0FFF709FD801B022897D8206840076A
:10437000F7D42878C0065FD5002F0CD0E869002854
:1043800049D02068FF21013108432060FFF7F4FC89
:1043900006462DE0E4E02068800502D5E8690028A3
:1043A000A7D06068072149038843696A08436060B1
:1043B0006068298C0002000A090608436060686A88
:1043C000410B0120C003491C8840E16809060A0F1F
:1043D0009149895CC840914908600020FFF7EEFCD4
:1043E000002817D128E0FFF7C7FC801B0228A3D8BC
:1043F00020688005F7D56068072149038843696A0A
:10440000084360606068298C0002000A09060843BE
:10441000606011E023E12168FF20013081432160C9
:10442000FFF7AAFC064604E0FFF7A6FC801B022863
:104430009BD820688005F7D42878794E000724D5CA
:1044400068690028306910D0012108433061FFF706
:1044500093FC009005E0FFF78FFC0099401A0228BA
:104460007ED830698007F6D50FE040084000306103
:10447000FFF782FC009005E0FFF77EFC0099401AF0
:1044800002286DD830698007F6D42878400764D5B3
:1044900000200290A06BC00006D4A06B0121090788
:1044A0000843A063012002905E480168C90511D449
:1044B0000168821511430160FFF75EFC009005E082
:1044C000FFF75AFC0099401A642849D855480068FB
:1044D000C005F5D5FF20AA680130824203D13169B9
:1044E0000143316111E001218902002A07D005232F
:1044F0001B029A4203D132690A433261EFE7326903
:1045000082433261306988433061A86800280ED048
:10451000FFF732FC009006E0FFF72EFC0099411AED
:10452000414881421CD830698005F5D50DE0FFF780
:1045300023FC009006E0FFF71FFC0099411A3A485F
:1045400081420DD830698005F5D40298002804D046
:10455000A16B012000078143A1632878800600E059
:104560007CE02ED53148A9694314002916D0A268F1
:1045700001210A43A260626B0A436263016A194324
:104580000162FFF7F9FB064604E0FFF7F5FB801B2D
:10459000022863D8A0688007F7D512E0A16849080F
:1045A0004900A160016A99430162FFF7E5FB0646F5
:1045B00004E0FFF7E1FB801B02284FD8A0688007CA
:1045C000F7D4A86A002866D00C2F4DD001263606F5
:1045D0000228206805D0B0432060FFF7CDFB0546D8
:1045E0003EE0B0432060FFF7C7FB074604E0FFF75B
:1045F000C3FBC01B022831D820688001F7D4296B87
:10460000E86AE2680843696BFD231B049A4311437F
:1046100008430DE00010024000860008A4000020BE
:10462000401002400070004088130000000001406C
:10463000E060206830432060FFF79EFB054604E001
:10464000FFF79AFB401B022808D820688001F7D5A5
:1046500021E0FFF791FB401B022801D90320FEBD9A
:1046600020688001F5D416E00128F8D0E068012127
:104670000904EA6A014091420BD10F2189042A6B97
:104680000140914205D1032189050840696B8842A8
:1046900001D00120FEBD0020FEBDF8B50546044650
:1046A00020352878012819D0012028700220687050
:1046B0002168CA20486221685320486220688168C6
:1046C0000122920291438160206881681201914326
:1046D0008160FFF751FB064600270FE00220F8BD7E
:1046E000FFF74AFB811B7D20C000814206D921686B
:1046F000FF204862032068702F70F8BD2068C068F2
:104700004007EDD52168FF204862012068702F70B6
:104710000020F8BDF7B5054604462035287882B05C
:10472000012814D001202870022068702168CA2056
:10473000486221685320486220688068002640054E
:10474000FF27002812DAFFF717FB00900AE002208B
:1047500005B0F0BDFFF710FB0099411A7D20C000A5
:1047600081421CD82068C0684007F3D42068816863
:1047700001229202914381602068C1688022114029
:10478000204A8918C160FFF7F7FA00900DE0FFF7A3
:10479000F3FA0099411A7D20C000814205D92068B2
:1047A0004762032068702E70D2E72068C068400717
:1047B000EDD521680398486120688168C908C9005F
:1047C000816020688168049A114381600E48026804
:1047D000012109050A43026082680A438260206859
:1047E000816801229203114381602068816812115F
:1047F0001143816020684762012068702E7000209C
:10480000A6E700007FFBFFFF0004014070470000A7
:1048100010B504460068C068400509D52046FFF77A
:10482000F5FF2068C16880221140054A8918C160DF
:10483000012004490005486101202034607010BD4A
:104840007FFBFFFF00040140F8B5040050D025466F
:1048500020356878002803D12870204600F052F8EF
:10486000022068702168CA2048622168532048628B
:10487000204601F01BFCFF2604270028206802D0F8
:1048800046626F7034E081681D4A11408160216882
:1048900088686268A369104322691A4310438860DC
:1048A0002168E068086120680169228912041143C7
:1048B00001612068C16880229143C1602068C16C99
:1048C00089088900C164E169606901432068C26C9C
:1048D0001143C1642068806880060BD4204600F034
:1048E000FFF8002806D0206846626F70002028700C
:1048F0000120F8BD20684662012068700020F8BDE4
:10490000BFFF8FFF10B50068084988420DD10848E5
:104910000169012292041143016100220121022058
:10492000FFF784FA0220FFF777FA10BD0028004055
:1049300040100240F8B505460446203528780B465D
:1049400001280FD00120287002206870002A0BD0A7
:10495000D8789E7800040643587809780002490305
:10496000084317E00220F8BD5878C10603D5EF21AF
:1049700008400A305870D87801F08CFB060458784B
:1049800001F088FB00020643987801F083FB0643A0
:104990001878400306432168CA20486221685320E2
:1049A0004862204601F082FB0027002811D11148FF
:1049B0000640206846602068C16880229143C1603B
:1049C0002068806880060CD4204600F089F8002812
:1049D00007D02168FF204862042068702F700120F2
:1049E000F8BD2168FF204862012068702F70002008
:1049F000F8BD00003FFFFF00F8B50646044620362C
:104A000030780D46012822D00120307002207070CD
:104A1000206800278068002A1BD0400600D4EF7071
:104A20002978A878090408436978EA780902120409
:104A30001143084300902168CA204862216853202E
:104A40004862204601F032FB002837D116E00220F0
:104A5000F8BD400600D4EF70287801F01BFB03047A
:104A6000687801F017FB00020343A87801F012FBFD
:104A70000343E878000403430093DCE717490098F8
:104A800008402168086020688168012292049143EF
:104A900081602969E868084321688A681043886052
:104AA0002068C16880229143C160206880688006C8
:104AB0000CD4204600F014F8002807D02168FF200D
:104AC00048620420707037700120F8BD2168FF2013
:104AD00048620120707037700020F8BD7F7F7F0032
:104AE00070B504460068C168A0229143C160FFF719
:104AF00043F97D260546F60006E0FFF73DF9401B29
:104B0000B04201D9032070BD2068C0688006F4D58A
:104B1000002070BD70474030407C704770B5040085
:104B200007D0002625464035A662687C002802D0C2
:104B300005E0012070BD2E74204600F02FF8022001
:104B4000687420680168402291430160A168606830
:104B500022690843E168114308436169012208435F
:104B6000A169520211400843E1690843216A0843E0
:104B7000A16A084321680860A0690421000C08406C
:104B8000616A0843216848602068C16992009143C6
:104B9000C161666501206874002070BDF0B587B002
:104BA000064614216846FEF742FB2E4930688842CB
:104BB00055D12D48416B821411434163C16A0225CE
:104BC0002943C162C16A29400591C16A012739435D
:104BD000C162C06A6946384005901820A1C100240E
:104BE0006946224803950494FFF704F8802069463B
:104BF000A1C105206946000703950494FEF7FAFF5A
:104C00001B481C4D81C510206C6028608020EC6022
:104C10002C618701AF616C61A8601648083DFEF702
:104C2000D7FE002801D0FEF719FDB564AE6210482A
:104C3000104D143848352860AC600120EC60686085
:104C40006C61AC612F628020EC6128612846FEF720
:104C5000BFFE002801D0FEF701FDF564AE6207B08B
:104C6000F0BD000000300140001002400004005080
:104C7000300002409803002070477047FFB504469B
:104C800083B0012001900020264640360090307C01
:104C90000C9F1D4601280FD001203074FFF76CF8DF
:104CA0000290707C616801280DD0CA1FFD3A08D1BE
:104CB000A168002905D102E0022007B0F0BD042858
:104CC00001D00220C3E00498002828D005980028CD
:104CD00025D0002D23D0707C042801D005207074CD
:104CE000002060650599A163E587A5870499216384
:104CF000E586A5862064606420680168490603D4BF
:104D000001684022114301600121E068C902884224
:104D1000606848D1002804D0012D02D03CE0012079
:104D200095E0206B21680088C860206B801C2063A0
:104D3000E08E401EE0862FE020688168890710D54C
:104D4000E18E00290DD0019901290AD1216B098832
:104D5000C160206B801C2063E08E401EE086002036
:104D6000019020688168C9070DD0E18F00290AD021
:104D7000C068A16B0880A06B801CA063E08F401E00
:104D8000E08701200190FEF7F7FF01460298081A1C
:104D9000B84201D3781C59D1E08E0028CCD1E08FE5
:104DA0000028C9D146E0002801D0012D3CD1206B5C
:104DB000216800780873206B401C2063E08E401E41
:104DC000E08631E020688168890710D5E18E0029EE
:104DD0000DD0019901290AD1216B09780173206B4B
:104DE000401C2063E08E401EE08600200190206879
:104DF0008168C9070DD0E18F00290AD0C068A16B76
:104E00000870A06B401CA063E08F401EE08701206B
:104E10000190FEF7B1FF0299401AB84202D3781C04
:104E200002D013E0002F11D0E08E0028CAD1E08F0D
:104E30000028C7D139462046029A01F0E3FB00283A
:104E400007D0012000902020606509E00320009039
:104E500006E0A068002803D12068C168806801903E
:104E60000120707400203074009826E7F8B50546DC
:104E700004464035287C002696468C4601280CD0F6
:104E800001272F74687C616801280CD0CA1FFD3A85
:104E900007D1A168002904D101E00220F8BD04284F
:104EA00001D0022667E0604600282ED07046002818
:104EB0002BD0002B29D0687C042801D005206874F1
:104EC0000020606561462163A386E3867146A16385
:104ED000A387E38720646064697C042917D0E26CAF
:104EE000274911632749E26C0020D162E26C264910
:104EF0005163E16C8863E38F2168A26B0C31E06C35
:104F0000FEF7AEFD00281DD106E0012633E0E26C7D
:104F10001E4911631E49E6E7206841683943416034
:104F2000A16C00200863A16CC862A16C4863A16CED
:104F30008863E38E2268216B0C32A06CFEF790FD33
:104F4000002806D0606D10210843606501266F744B
:104F500011E020680168490603D40168402211432A
:104F60000160206841682022114341602068416847
:104F7000022211434160002028743046F8BD000031
:104F8000ED6400084D650008C1640008E364000892
:104F9000F764000810B5074C6078002809D001229A
:104FA0000520D1030007FEF7E1FE0020607001F04C
:104FB00069FD10BD4C00002070470000094910B584
:104FC000401E884201D9012010BD074C60610321B9
:104FD000081F00F08FFC0020A06107202061002046
:104FE00010BD0000FFFFFF0000E000E0F0B502464A
:104FF0002032137E012B15D001271776022353761A
:1050000005686C68AB687026B4430E68496826432F
:105010008024A34319436E600068816057760020A6
:105020001076F0BD0220F0BD70B5040005D0254615
:105030002035687E002802D006E0012070BD0020E7
:105040002876204600F00AF802206876211D2068A4
:1050500001F0C0FE01206876002070BD10B5006828
:10506000084988420CD10848816B102211438163A2
:10507000002201211120FEF7D9FE1120FEF7CCFEFF
:1050800010BD000000100040001002400222014646
:1050900020314A760068826801235207520F062A9F
:1050A00002D002681A4302604B7600207047026803
:1050B000D36801210B43D360006882685207520F06
:1050C000062A02D002680A430260002070470000EE
:1050D00002210246203251760168086A054B1842C7
:1050E00003D1086840084000086001205076002085
:1050F00070470000111100000168CA685208520090
:10510000CA600068016A044A114203D10168490873
:10511000490001600020704711110000704770B510
:105120000446006801690025C9438907002915DB89
:10513000C168C943890711D4E91E016101202076A5
:10514000206880698007204602D0FFF7E7FF04E06F
:1051500000F078F8204600F076F82576206801699E
:10516000C943490717D4C168C943490713D4042167
:10517000C943016102202076206880698005800F84
:10518000204602D0FFF7CAFF04E000F05BF820469B
:1051900000F059F8257620680169C943090716D43B
:1051A000C168C943090712D40821C9430161042019
:1051B00020762068C0698007204602D0FFF7AEFF46
:1051C00004E000F03FF8204600F03DF82576206826
:1051D0000169C943C90617D4C168C943C90613D4B4
:1051E0001021C9430161082020762068C06980052C
:1051F000800F204602D0FFF791FF04E000F022F874
:10520000204600F020F8257620680169C943C907C7
:1052100008D1C168C943C90704D1891E016120466C
:1052200000F012F820680169C943490609D4C16831
:10523000C943490605D44021C9430161204600F015
:1052400004F870BD70477047704770470146406F63
:10525000896F0843704710B5040003D0606F0028C1
:1052600002D007E0012010BD00217020015520462A
:1052700000F026F82420606720680168490849008A
:105280000160204601F068FE0128ECD0606A002829
:1052900002D0204601F0CAFD206841680922D202EE
:1052A00091434160206881682A229143816020688F
:1052B0000168012211430160204601F01DFE10BD6E
:1052C000F0B587B0064614216846FDF7B0FF2849BF
:1052D0003068884249D12748416B0122920311432B
:1052E0004163C16A01221143C162C06A00241040B7
:1052F00005900320400200900220032701A991C1DC
:1053000004200490052069460007FEF773FC1B4D3E
:105310001948AC60EC6081C5EC6080272C61AF60FF
:105320002020AC6168611548083DFEF751FB00285C
:1053300001D0FEF793F9F566AE62104D0E48483580
:10534000143828600320686029461020083191C174
:105350006C61AC61EC6128462C62FEF739FB0028D9
:1053600001D0FEF77BF9B566AE6207B0F0BD000074
:10537000003801400010024058000240E4040020C0
:10538000FFB50446406F83B017460D4620285CD118
:10539000002D0AD0002F08D0A168C001814207D19A
:1053A0002069002804D1E80702D0012007B0F0BD31
:1053B000204660300290007C012846D002980121EE
:1053C00001740020E06721206067FEF7D5FC2646C7
:1053D00040360190378277820120A1680003814224
:1053E00002D12069002802D02F46002511E00027B5
:1053F0000FE000228021204601F0C2FE002815D1D6
:10540000002F15D02168387888627F1C708A401E72
:105410007082708A019B002806980090E9D10022D2
:105420004021204601F0ACFE002808D00320BDE753
:1054300028882168C005C00D8862AD1CE6E72020E1
:105440006067029900200874B0E70220AEE7FEE72B
:1054500038B5049C0094FBF7CEFB002038BD10B596
:10546000002805D0012803D0022807D003280DD139
:1054700001F06EFA4000FF21F53104E001F068FA16
:1054800040007D210901081AFEF71EFB002010BD17
:105490000020704710B50C46FBF7E0FB024800788F
:1054A0002070002010BD00006401002010B5FBF743
:1054B000E6FB002010BD10B5072100F047FA10BD33
:1054C00007220A700149016000207047338A0008F2
:1054D000002303800B80138018467047FF22F532AB
:1054E000904201D9112070470148086000207047A0
:1054F000E40500200020704710B5072100F084FA71
:1055000010BD000070B50546002001F013FA002020
:1055100002F0CCFF02F0A0F9194C222DA06000D1BE
:105520002425FDF7B5FF01202070A0680068C16840
:1055300080221140134A8918C160012012490005D8
:10554000486100206060012002F0A4FF02F09AF997
:1055500001460E486943814203D942428D180146F3
:1055600000E000250022A068FFF7D4F802F08AF9D5
:1055700001462846FDF79AFD02F086FF002070BD27
:10558000500000207FFBFFFF00040140FFFF0000F0
:105590007CB505462D4C0120607002F05DF9A060DD
:1055A00002F05EF9002817D07D20C001684301AAEF
:1055B000694601F069FA68468088401E82B26846F2
:1055C0000088401E81B220460C3001F0A9FA204626
:1055D0000C30FFF76CFD36E0FDF75AFF012020701C
:1055E000A0680068C16880221140194A8918C1600A
:1055F000012018490005486100206060012002F088
:1056000049FF012002F04CFF02F03CF97D21684384
:10561000C900FDF761FD10490546884203D948429B
:105620002E180D4600E0002602F02CF901467D20E0
:10563000C0007043FDF73AFD02F026FF0022294624
:10564000A068FFF767F800207CBD00005000002034
:105650007FFBFFFF00040140FFFF000010B502F0D8
:10566000FBF804498860FFF718F8002002F012FFE9
:10567000002010BD5000002010B502F0EDF80B4CDA
:10568000A06002F0F3F8002809D0A068FFF705F841
:10569000002002F0FFFE002002F002FF03E00348BA
:1056A0000C30FFF729FD0020607010BD5000002075
:1056B00010B501E001F0A8F802F0DEF80028F9D0FA
:1056C000002002F0F3FE002010BD000008B50C48D9
:1056D000016B012211430163006B01211040009016
:1056E00000220A20FEF7A2FB0A20FEF795FB00220B
:1056F00011460B20FEF79AFB0B20FEF78DFB08BD31
:1057000000100240F0B587B014216846FDF78FFD08
:105710002048C16A01242143C162C16A2140059128
:10572000C16A02252943C162C06AE6032840059088
:105730000520224631460007FEF718FB270200220B
:1057400039461548FEF712FB05200194694600070B
:10575000009603950294FEF74DFA002669460E481E
:105760000097029603950194FEF744FA0B480190C6
:1057700005206946029600940007FEF73BFA0022D6
:1057800011460520FEF752FB0520FEF745FB07B04A
:10579000F0BD000000100240000400500000211085
:1057A00010B586B014216846FDF741FD00241E495E
:1057B0001E48059412C07F2101608460C4600461AA
:1057C000FF21446141600838FFF73EF8002801D00E
:1057D000FDF744FF6846047044708470039401220E
:1057E000694612480494FFF707F9002801D0FDF735
:1057F00035FF01206946087548758875CC750246E5
:1058000005A90A48FFF796F8002801D0FDF726FF02
:105810007D210022C9000548FEF77CFF002801D049
:10582000FDF71CFF06B010BD002800401C02002040
:1058300010B50E480C490160FF210531416000217F
:105840008160C16001614161C16101220162520256
:105850004162826181620721C162FFF75FF900281E
:1058600001D0FDF7FBFE10BD0030014040030020D9
:105870001CB500240E4800940C49019401603F219E
:10588000846041600B494461C160FFF7CDFB002893
:1058900001D0FDF7E3FE0094694605480194FFF747
:1058A000A5FB002801D0FDF7D9FE1CBD001000406B
:1058B00028040020E703000010B50C480A490160E5
:1058C000E1214902416000218160C1600161816183
:1058D000C1610C22016242614162FFF7BCFC0028F9
:1058E00001D0FDF7BBFE10BD00380140640400206C
:1058F000704700008307FF22DB0E9A408907090EDC
:10590000994000280BDA0007000F08388308084880
:105910009B001818C36993430B43C3617047830806
:1059200004489B001B181868904308431860704790
:1059300000ED00E000E400E010B50024FDF776FF84
:10594000002800D00224204610BD0000F3B5002539
:1059500083B0FE20254C01950090A0680E46606043
:105960002078012814D0F1B2039A606838E06A46C2
:1059700008216068FFF7E0FF002807D16068C01BBE
:10598000702819D060681030606002E004252AE0B9
:10599000174F019900980843E9D10DE0606810386D
:1059A00060606068B84201D206251CE06A460821A2
:1059B0006068FFF7C1FF054600990198FE23FC22AD
:1059C00059405040014302D0002DE7D001E0002DA6
:1059D00002D0062DDAD106E0039A6068F1B20830F1
:1059E000FFF7AAFF0546284605B0F0BDB400002029
:1059F0008000080810B50024FDF73EFF002800D005
:105A00000124204610BD0000F3B5002583B0FE2020
:105A10001C4C019500900F46A068294660602078D4
:105A2000012826D0F9B20023039A6068FFF7E2FF4D
:105A300018E06068B04217D06A4608216068FFF736
:105A40007BFF002801D0042518E001990098084345
:105A500003D06068103060600DE03A4603996068DA
:105A600001F092FD054609E00748606001F0BCFEC8
:105A7000F3E7054E803600980843DAD1284605B092
:105A8000F0BD0000B400002080000808704700004E
:105A9000F1B5314884B0C26904980025C60A4705AB
:105AA0002B4638463146FDF72BFB04462A48C06991
:105AB000214601F0A7FB029027480391C06900210D
:105AC000621C2B464B412946FDF74AFBC21B02983C
:105AD000B141039B381A9E41101AB14100D2641C97
